{"contracts/GHCToken.sol":{"GHCToken":{"abi":[{"inputs":[],"stateMutability":"nonpayable","type":"constructor"},{"inputs":[],"name":"AccessControlBadConfirmation","type":"error"},{"inputs":[{"internalType":"address","name":"account","type":"address"},{"internalType":"bytes32","name":"neededRole","type":"bytes32"}],"name":"AccessControlUnauthorizedAccount","type":"error"},{"inputs":[{"internalType":"address","name":"sender","type":"address"},{"internalType":"uint256","name":"balance","type":"uint256"},{"internalType":"uint256","name":"needed","type":"uint256"},{"internalType":"uint256","name":"tokenId","type":"uint256"}],"name":"ERC1155InsufficientBalance","type":"error"},{"inputs":[{"internalType":"address","name":"approver","type":"address"}],"name":"ERC1155InvalidApprover","type":"error"},{"inputs":[{"internalType":"uint256","name":"idsLength","type":"uint256"},{"internalType":"uint256","name":"valuesLength","type":"uint256"}],"name":"ERC1155InvalidArrayLength","type":"error"},{"inputs":[{"internalType":"address","name":"operator","type":"address"}],"name":"ERC1155InvalidOperator","type":"error"},{"inputs":[{"internalType":"address","name":"receiver","type":"address"}],"name":"ERC1155InvalidReceiver","type":"error"},{"inputs":[{"internalType":"address","name":"sender","type":"address"}],"name":"ERC1155InvalidSender","type":"error"},{"inputs":[{"internalType":"address","name":"operator","type":"address"},{"internalType":"address","name":"owner","type":"address"}],"name":"ERC1155MissingApprovalForAll","type":"error"},{"anonymous":false,"inputs":[{"indexed":true,"internalType":"address","name":"account","type":"address"},{"indexed":true,"internalType":"address","name":"operator","type":"address"},{"indexed":false,"internalType":"bool","name":"approved","type":"bool"}],"name":"ApprovalForAll","type":"event"},{"anonymous":false,"inputs":[{"indexed":true,"internalType":"uint256","name":"batchId","type":"uint256"},{"indexed":false,"internalType":"uint256","name":"tokenType","type":"uint256"},{"indexed":false,"internalType":"uint256","name":"quantity","type":"uint256"},{"indexed":true,"internalType":"address","name":"issuer","type":"address"}],"name":"BatchCreated","type":"event"},{"anonymous":false,"inputs":[{"indexed":true,"internalType":"bytes32","name":"role","type":"bytes32"},{"indexed":true,"internalType":"bytes32","name":"previousAdminRole","type":"bytes32"},{"indexed":true,"internalType":"bytes32","name":"newAdminRole","type":"bytes32"}],"name":"RoleAdminChanged","type":"event"},{"anonymous":false,"inputs":[{"indexed":true,"internalType":"bytes32","name":"role","type":"bytes32"},{"indexed":true,"internalType":"address","name":"account","type":"address"},{"indexed":true,"internalType":"address","name":"sender","type":"address"}],"name":"RoleGranted","type":"event"},{"anonymous":false,"inputs":[{"indexed":true,"internalType":"bytes32","name":"role","type":"bytes32"},{"indexed":true,"internalType":"address","name":"account","type":"address"},{"indexed":true,"internalType":"address","name":"sender","type":"address"}],"name":"RoleRevoked","type":"event"},{"anonymous":false,"inputs":[{"indexed":true,"internalType":"uint256","name":"batchId","type":"uint256"},{"indexed":false,"internalType":"uint256","name":"quantity","type":"uint256"},{"indexed":true,"internalType":"address","name":"to","type":"address"}],"name":"TokensMinted","type":"event"},{"anonymous":false,"inputs":[{"indexed":true,"internalType":"uint256","name":"batchId","type":"uint256"},{"indexed":false,"internalType":"uint256","name":"quantity","type":"uint256"},{"indexed":true,"internalType":"address","name":"from","type":"address"}],"name":"TokensRetired","type":"event"},{"anonymous":false,"inputs":[{"indexed":true,"internalType":"uint256","name":"batchId","type":"uint256"},{"indexed":false,"internalType":"uint256","name":"quantity","type":"uint256"},{"indexed":true,"internalType":"address","name":"from","type":"address"},{"indexed":true,"internalType":"address","name":"to","type":"address"}],"name":"TokensTransferred","type":"event"},{"anonymous":false,"inputs":[{"indexed":true,"internalType":"address","name":"operator","type":"address"},{"indexed":true,"internalType":"address","name":"from","type":"address"},{"indexed":true,"internalType":"address","name":"to","type":"address"},{"indexed":false,"internalType":"uint256[]","name":"ids","type":"uint256[]"},{"indexed":false,"internalType":"uint256[]","name":"values","type":"uint256[]"}],"name":"TransferBatch","type":"event"},{"anonymous":false,"inputs":[{"indexed":true,"internalType":"address","name":"operator","type":"address"},{"indexed":true,"internalType":"address","name":"from","type":"address"},{"indexed":true,"internalType":"address","name":"to","type":"address"},{"indexed":false,"internalType":"uint256","name":"id","type":"uint256"},{"indexed":false,"internalType":"uint256","name":"value","type":"uint256"}],"name":"TransferSingle","type":"event"},{"anonymous":false,"inputs":[{"indexed":false,"internalType":"string","name":"value","type":"string"},{"indexed":true,"internalType":"uint256","name":"id","type":"uint256"}],"name":"URI","type":"event"},{"inputs":[],"name":"CERTIFIER_ROLE","outputs":[{"internalType":"bytes32","name":"","type":"bytes32"}],"stateMutability":"view","type":"function"},{"inputs":[],"name":"DEFAULT_ADMIN_ROLE","outputs":[{"internalType":"bytes32","name":"","type":"bytes32"}],"stateMutability":"view","type":"function"},{"inputs":[],"name":"GOVERNANCE_ROLE","outputs":[{"internalType":"bytes32","name":"","type":"bytes32"}],"stateMutability":"view","type":"function"},{"inputs":[],"name":"MINT_TOKEN","outputs":[{"internalType":"uint256","name":"","type":"uint256"}],"stateMutability":"view","type":"function"},{"inputs":[],"name":"PRODUCER_ROLE","outputs":[{"internalType":"bytes32","name":"","type":"bytes32"}],"stateMutability":"view","type":"function"},{"inputs":[],"name":"RETIRE_TOKEN","outputs":[{"internalType":"uint256","name":"","type":"uint256"}],"stateMutability":"view","type":"function"},{"inputs":[],"name":"STATUS_ACTIVE","outputs":[{"internalType":"bytes32","name":"","type":"bytes32"}],"stateMutability":"view","type":"function"},{"inputs":[],"name":"STATUS_PARTIAL","outputs":[{"internalType":"bytes32","name":"","type":"bytes32"}],"stateMutability":"view","type":"function"},{"inputs":[],"name":"STATUS_RETIRED","outputs":[{"internalType":"bytes32","name":"","type":"bytes32"}],"stateMutability":"view","type":"function"},{"inputs":[],"name":"TRANSFER_TOKEN","outputs":[{"internalType":"uint256","name":"","type":"uint256"}],"stateMutability":"view","type":"function"},{"inputs":[{"internalType":"address","name":"account","type":"address"},{"internalType":"uint256","name":"id","type":"uint256"}],"name":"balanceOf","outputs":[{"internalType":"uint256","name":"","type":"uint256"}],"stateMutability":"view","type":"function"},{"inputs":[{"internalType":"address[]","name":"accounts","type":"address[]"},{"internalType":"uint256[]","name":"ids","type":"uint256[]"}],"name":"balanceOfBatch","outputs":[{"internalType":"uint256[]","name":"","type":"uint256[]"}],"stateMutability":"view","type":"function"},{"inputs":[],"name":"batchCounter","outputs":[{"internalType":"uint256","name":"","type":"uint256"}],"stateMutability":"view","type":"function"},{"inputs":[{"internalType":"uint256","name":"","type":"uint256"}],"name":"batches","outputs":[{"internalType":"uint256","name":"batchId","type":"uint256"},{"internalType":"uint256","name":"tokenType","type":"uint256"},{"internalType":"uint256","name":"quantity","type":"uint256"},{"internalType":"uint256","name":"issuanceDate","type":"uint256"},{"internalType":"bytes32","name":"status","type":"bytes32"},{"internalType":"address","name":"issuer","type":"address"},{"internalType":"bool","name":"exists","type":"bool"}],"stateMutability":"view","type":"function"},{"inputs":[{"internalType":"uint256","name":"_tokenType","type":"uint256"},{"internalType":"uint256","name":"_quantity","type":"uint256"}],"name":"createBatch","outputs":[{"internalType":"uint256","name":"","type":"uint256"}],"stateMutability":"nonpayable","type":"function"},{"inputs":[{"internalType":"uint256","name":"_batchId","type":"uint256"}],"name":"getBatch","outputs":[{"components":[{"internalType":"uint256","name":"batchId","type":"uint256"},{"internalType":"uint256","name":"tokenType","type":"uint256"},{"internalType":"uint256","name":"quantity","type":"uint256"},{"internalType":"uint256","name":"issuanceDate","type":"uint256"},{"internalType":"bytes32","name":"status","type":"bytes32"},{"internalType":"address","name":"issuer","type":"address"},{"internalType":"bool","name":"exists","type":"bool"}],"internalType":"struct GHCToken.Batch","name":"","type":"tuple"}],"stateMutability":"view","type":"function"},{"inputs":[{"internalType":"address","name":"_user","type":"address"},{"internalType":"uint256","name":"_batchId","type":"uint256"}],"name":"getBatchBalance","outputs":[{"internalType":"uint256","name":"","type":"uint256"}],"stateMutability":"view","type":"function"},{"inputs":[{"internalType":"uint256","name":"_batchId","type":"uint256"}],"name":"getBatchStatusString","outputs":[{"internalType":"string","name":"","type":"string"}],"stateMutability":"view","type":"function"},{"inputs":[{"internalType":"uint256","name":"_batchId","type":"uint256"}],"name":"getBatchTotalSupply","outputs":[{"internalType":"uint256","name":"","type":"uint256"}],"stateMutability":"view","type":"function"},{"inputs":[{"internalType":"bytes32","name":"role","type":"bytes32"}],"name":"getRoleAdmin","outputs":[{"internalType":"bytes32","name":"","type":"bytes32"}],"stateMutability":"view","type":"function"},{"inputs":[{"internalType":"address","name":"_user","type":"address"}],"name":"getUserBatches","outputs":[{"internalType":"uint256[]","name":"","type":"uint256[]"}],"stateMutability":"view","type":"function"},{"inputs":[{"internalType":"address","name":"_user","type":"address"}],"name":"getUserRoles","outputs":[{"internalType":"string[]","name":"","type":"string[]"}],"stateMutability":"view","type":"function"},{"inputs":[{"internalType":"bytes32","name":"role","type":"bytes32"},{"internalType":"address","name":"account","type":"address"}],"name":"grantRole","outputs":[],"stateMutability":"nonpayable","type":"function"},{"inputs":[{"internalType":"bytes32","name":"role","type":"bytes32"},{"internalType":"address","name":"account","type":"address"}],"name":"hasRole","outputs":[{"internalType":"bool","name":"","type":"bool"}],"stateMutability":"view","type":"function"},{"inputs":[{"internalType":"address","name":"account","type":"address"},{"internalType":"address","name":"operator","type":"address"}],"name":"isApprovedForAll","outputs":[{"internalType":"bool","name":"","type":"bool"}],"stateMutability":"view","type":"function"},{"inputs":[{"internalType":"uint256","name":"_batchId","type":"uint256"},{"internalType":"address","name":"_to","type":"address"},{"internalType":"uint256","name":"_quantity","type":"uint256"}],"name":"mintBatch","outputs":[],"stateMutability":"nonpayable","type":"function"},{"inputs":[{"internalType":"uint256","name":"","type":"uint256"}],"name":"mintedSupply","outputs":[{"internalType":"uint256","name":"","type":"uint256"}],"stateMutability":"view","type":"function"},{"inputs":[],"name":"name","outputs":[{"internalType":"string","name":"","type":"string"}],"stateMutability":"view","type":"function"},{"inputs":[{"internalType":"bytes32","name":"role","type":"bytes32"},{"internalType":"address","name":"callerConfirmation","type":"address"}],"name":"renounceRole","outputs":[],"stateMutability":"nonpayable","type":"function"},{"inputs":[{"internalType":"uint256","name":"_batchId","type":"uint256"},{"internalType":"uint256","name":"_quantity","type":"uint256"}],"name":"retireBatch","outputs":[],"stateMutability":"nonpayable","type":"function"},{"inputs":[{"internalType":"uint256","name":"","type":"uint256"}],"name":"retiredSupply","outputs":[{"internalType":"uint256","name":"","type":"uint256"}],"stateMutability":"view","type":"function"},{"inputs":[{"internalType":"bytes32","name":"role","type":"bytes32"},{"internalType":"address","name":"account","type":"address"}],"name":"revokeRole","outputs":[],"stateMutability":"nonpayable","type":"function"},{"inputs":[{"internalType":"address","name":"from","type":"address"},{"internalType":"address","name":"to","type":"address"},{"internalType":"uint256[]","name":"ids","type":"uint256[]"},{"internalType":"uint256[]","name":"values","type":"uint256[]"},{"internalType":"bytes","name":"data","type":"bytes"}],"name":"safeBatchTransferFrom","outputs":[],"stateMutability":"nonpayable","type":"function"},{"inputs":[{"internalType":"address","name":"from","type":"address"},{"internalType":"address","name":"to","type":"address"},{"internalType":"uint256","name":"id","type":"uint256"},{"internalType":"uint256","name":"value","type":"uint256"},{"internalType":"bytes","name":"data","type":"bytes"}],"name":"safeTransferFrom","outputs":[],"stateMutability":"nonpayable","type":"function"},{"inputs":[{"internalType":"address","name":"operator","type":"address"},{"internalType":"bool","name":"approved","type":"bool"}],"name":"setApprovalForAll","outputs":[],"stateMutability":"nonpayable","type":"function"},{"inputs":[{"internalType":"string","name":"_newBaseURI","type":"string"}],"name":"setBaseURI","outputs":[],"stateMutability":"nonpayable","type":"function"},{"inputs":[{"internalType":"bytes4","name":"interfaceId","type":"bytes4"}],"name":"supportsInterface","outputs":[{"internalType":"bool","name":"","type":"bool"}],"stateMutability":"view","type":"function"},{"inputs":[],"name":"symbol","outputs":[{"internalType":"string","name":"","type":"string"}],"stateMutability":"view","type":"function"},{"inputs":[{"internalType":"uint256","name":"","type":"uint256"}],"name":"totalSupply","outputs":[{"internalType":"uint256","name":"","type":"uint256"}],"stateMutability":"view","type":"function"},{"inputs":[{"internalType":"uint256","name":"_batchId","type":"uint256"},{"internalType":"address","name":"_from","type":"address"},{"internalType":"address","name":"_to","type":"address"},{"internalType":"uint256","name":"_quantity","type":"uint256"}],"name":"transferBatch","outputs":[],"stateMutability":"nonpayable","type":"function"},{"inputs":[{"internalType":"uint256","name":"_tokenId","type":"uint256"}],"name":"uri","outputs":[{"internalType":"string","name":"","type":"string"}],"stateMutability":"view","type":"function"}],"evm":{"bytecode":{"linkReferences":{},"object":"60806040526040518060400160405280601581526020017f477265656e20487964726f67656e204372656469740000000000000000000000815250600490816200004a9190620007dd565b506040518060400160405280600381526020017f474843000000000000000000000000000000000000000000000000000000000081525060059081620000919190620007dd565b503480156200009f57600080fd5b5060405180602001604052806000815250620000c181620003bb60201b60201c565b50604051806060016040528060228152602001620052da6022913960069081620000ec9190620007dd565b50620001026000801b33620003d060201b60201c565b50620001357f71840dc4906352362b0cdaf79870196c8e42acafade72d5d5a6d59291253ceb133620003d060201b60201c565b506200017c7f71840dc4906352362b0cdaf79870196c8e42acafade72d5d5a6d59291253ceb173f39fd6e51aad88f6f4ce6ab8827279cfffb92266620003d060201b60201c565b50620001c37f71840dc4906352362b0cdaf79870196c8e42acafade72d5d5a6d59291253ceb17370997970c51812dc3a010c7d01b50e0d17dc79c8620003d060201b60201c565b506200020a7f71840dc4906352362b0cdaf79870196c8e42acafade72d5d5a6d59291253ceb1733c44cdddb6a900fa2b585dd299e03d12fa4293bc620003d060201b60201c565b50620002517f65cb1d8422cdf0328f26b49e42e9f4524474c431da623cbe0ea455f1b67c9f777390f79bf6eb2c4f870365e785982e1f101e93b906620003d060201b60201c565b50620002987f65cb1d8422cdf0328f26b49e42e9f4524474c431da623cbe0ea455f1b67c9f777315d34aaf54267db7d7c367839aaf71a00a2c6a65620003d060201b60201c565b50620002df7f65cb1d8422cdf0328f26b49e42e9f4524474c431da623cbe0ea455f1b67c9f77739965507d1a55bcc2695c58ba16fb37d819b0a4dc620003d060201b60201c565b50620003267f8eb467f061ca67f42a2d2ca4a346fc9fb645efc0ba75056ee9f71c3a0ccc10a873976ea74026e726554db657fa54763abd0c3a0aa9620003d060201b60201c565b506200036d7f8eb467f061ca67f42a2d2ca4a346fc9fb645efc0ba75056ee9f71c3a0ccc10a87314dc79964da2c08b23698b3d3cc7ca32193d9955620003d060201b60201c565b50620003b47f8eb467f061ca67f42a2d2ca4a346fc9fb645efc0ba75056ee9f71c3a0ccc10a87323618e81e3f5cdf7f54c3d65f7fbc0abf5b21e8f620003d060201b60201c565b50620008c4565b8060029081620003cc9190620007dd565b5050565b6000620003e48383620004d460201b60201c565b620004c95760016003600085815260200190815260200160002060000160008473ffffffffffffffffffffffffffffffffffffffff1673ffffffffffffffffffffffffffffffffffffffff16815260200190815260200160002060006101000a81548160ff02191690831515021790555062000465620004f060201b60201c565b73ffffffffffffffffffffffffffffffffffffffff168273ffffffffffffffffffffffffffffffffffffffff16847f2f8788117e7eff1d82e926ec794901d17c78024a50270940304540a733656f0d60405160405180910390a460019050620004ce565b600090505b92915050565b6000620004e88383620004f860201b60201c565b905092915050565b600033905090565b60006003600084815260200190815260200160002060000160008373ffffffffffffffffffffffffffffffffffffffff1673ffffffffffffffffffffffffffffffffffffffff16815260200190815260200160002060009054906101000a900460ff16905092915050565b600081519050919050565b7f4e487b7100000000000000000000000000000000000000000000000000000000600052604160045260246000fd5b7f4e487b7100000000000000000000000000000000000000000000000000000000600052602260045260246000fd5b60006002820490506001821680620005e557607f821691505b602082108103620005fb57620005fa6200059d565b5b50919050565b60008190508160005260206000209050919050565b60006020601f8301049050919050565b600082821b905092915050565b600060088302620006657fffffffffffffffffffffffffffffffffffffffffffffffffffffffffffffffff8262000626565b62000671868362000626565b95508019841693508086168417925050509392505050565b6000819050919050565b6000819050919050565b6000620006be620006b8620006b28462000689565b62000693565b62000689565b9050919050565b6000819050919050565b620006da836200069d565b620006f2620006e982620006c5565b84845462000633565b825550505050565b600090565b62000709620006fa565b62000716818484620006cf565b505050565b5b818110156200073e5762000732600082620006ff565b6001810190506200071c565b5050565b601f8211156200078d57620007578162000601565b620007628462000616565b8101602085101562000772578190505b6200078a620007818562000616565b8301826200071b565b50505b505050565b600082821c905092915050565b6000620007b26000198460080262000792565b1980831691505092915050565b6000620007cd83836200079f565b9150826002028217905092915050565b620007e88262000563565b67ffffffffffffffff8111156200080457620008036200056e565b5b620008108254620005cc565b6200081d82828562000742565b600060209050601f83116001811462000855576000841562000840578287015190505b6200084c8582620007bf565b865550620008bc565b601f198416620008658662000601565b60005b828110156200088f5784890151825560018201915060208501945060208101905062000868565b86831015620008af5784890151620008ab601f8916826200079f565b8355505b6001600288020188555050505b505050505050565b614a0680620008d46000396000f3fe608060405234801561001057600080fd5b50600436106102525760003560e01c806368233eef11610146578063a217fddf116100c3578063cb3e1fe711610087578063cb3e1fe714610787578063d547741f146107a5578063d913a08b146107c1578063e985e9c5146107f1578063f242432a14610821578063f36c8f5c1461083d57610252565b8063a217fddf146106c9578063a22cb465146106e7578063a3b08bce14610703578063b32c4d8d14610721578063bd85b0391461075757610252565b806391d148541161010a57806391d148541461061157806392a2d84614610641578063933e97431461067157806393a0ac361461068f57806395d89b41146106ab57610252565b806368233eef1461055957806369d0b51714610577578063855fd7841461059557806391664369146105b1578063919956ef146105e157610252565b8063248a9ca3116101d45780634389cc22116101985780634389cc221461048f578063446f05bb146104ad5780634e1273f4146104dd57806355f804b31461050d5780635ac442821461052957610252565b8063248a9ca3146103ef5780632eb2c2d61461041f5780632f2ff15d1461043b57806336568abe146104575780633c3a18971461047357610252565b806306fdde031161021b57806306fdde031461032357806307fe8a8c146103415780630a48c3d8146103715780630e89341c146103a15780631ea0004b146103d157610252565b8062fdd58e1461025757806301ffc9a7146102875780630386a97d146102b7578063055e3282146102d557806306a36aee146102f3575b600080fd5b610271600480360381019061026c91906132f1565b61085b565b60405161027e9190613340565b60405180910390f35b6102a1600480360381019061029c91906133b3565b6108b5565b6040516102ae91906133fb565b60405180910390f35b6102bf6108c7565b6040516102cc919061342f565b60405180910390f35b6102dd6108eb565b6040516102ea9190613340565b60405180910390f35b61030d6004803603810190610308919061344a565b6108f0565b60405161031a91906135c9565b60405180910390f35b61032b610bb2565b6040516103389190613635565b60405180910390f35b61035b60048036038101906103569190613657565b610c40565b6040516103689190613635565b60405180910390f35b61038b60048036038101906103869190613657565b610e2e565b6040516103989190613340565b60405180910390f35b6103bb60048036038101906103b69190613657565b610e46565b6040516103c89190613635565b60405180910390f35b6103d9610e7a565b6040516103e69190613340565b60405180910390f35b610409600480360381019061040491906136b0565b610e7f565b604051610416919061342f565b60405180910390f35b610439600480360381019061043491906138da565b610e9f565b005b610455600480360381019061045091906139a9565b610f47565b005b610471600480360381019061046c91906139a9565b610f81565b005b61048d600480360381019061048891906139e9565b610ffc565b005b6104976111f4565b6040516104a4919061342f565b60405180910390f35b6104c760048036038101906104c291906132f1565b611218565b6040516104d49190613340565b60405180910390f35b6104f760048036038101906104f29190613aff565b61122c565b6040516105049190613c35565b60405180910390f35b61052760048036038101906105229190613cf8565b61133b565b005b610543600480360381019061053e9190613657565b611379565b6040516105509190613dfc565b60405180910390f35b6105616114ac565b60405161056e9190613340565b60405180910390f35b61057f6114b2565b60405161058c919061342f565b60405180910390f35b6105af60048036038101906105aa9190613e17565b6114d6565b005b6105cb60048036038101906105c69190613657565b6116d6565b6040516105d89190613340565b60405180910390f35b6105fb60048036038101906105f69190613657565b6116f3565b6040516106089190613340565b60405180910390f35b61062b600480360381019061062691906139a9565b61170b565b60405161063891906133fb565b60405180910390f35b61065b60048036038101906106569190613e17565b61171f565b6040516106689190613340565b60405180910390f35b610679611924565b6040516106869190613340565b60405180910390f35b6106a960048036038101906106a49190613e57565b611929565b005b6106b3611a60565b6040516106c09190613635565b60405180910390f35b6106d1611aee565b6040516106de919061342f565b60405180910390f35b61070160048036038101906106fc9190613eea565b611af5565b005b61070b611b0b565b604051610718919061342f565b60405180910390f35b61073b60048036038101906107369190613657565b611b2f565b60405161074e9796959493929190613f39565b60405180910390f35b610771600480360381019061076c9190613657565b611b9e565b60405161077e9190613340565b60405180910390f35b61078f611bb6565b60405161079c919061342f565b60405180910390f35b6107bf60048036038101906107ba91906139a9565b611bda565b005b6107db60048036038101906107d6919061344a565b611c14565b6040516107e89190613c35565b60405180910390f35b61080b60048036038101906108069190613fa8565b611d1a565b60405161081891906133fb565b60405180910390f35b61083b60048036038101906108369190613fe8565b611dae565b005b610845611e56565b604051610852919061342f565b60405180910390f35b600080600083815260200190815260200160002060008473ffffffffffffffffffffffffffffffffffffffff1673ffffffffffffffffffffffffffffffffffffffff16815260200190815260200160002054905092915050565b60006108c082611e7a565b9050919050565b7f0e2613da3f93fb28f9eefb62314cd4916001363ced4413a9fb328c4f14ba736281565b600281565b60606000600367ffffffffffffffff81111561090f5761090e6136e2565b5b60405190808252806020026020018201604052801561094257816020015b606081526020019060019003908161092d5790505b50905060006109717f71840dc4906352362b0cdaf79870196c8e42acafade72d5d5a6d59291253ceb18561170b565b156109d9576040518060400160405280600a81526020017f476f7665726e616e6365000000000000000000000000000000000000000000008152508282815181106109bf576109be61407f565b5b602002602001018190525080806109d5906140dd565b9150505b610a037f65cb1d8422cdf0328f26b49e42e9f4524474c431da623cbe0ea455f1b67c9f778561170b565b15610a6b576040518060400160405280600981526020017f4365727469666965720000000000000000000000000000000000000000000000815250828281518110610a5157610a5061407f565b5b60200260200101819052508080610a67906140dd565b9150505b610a957f8eb467f061ca67f42a2d2ca4a346fc9fb645efc0ba75056ee9f71c3a0ccc10a88561170b565b15610afd576040518060400160405280600881526020017f50726f6475636572000000000000000000000000000000000000000000000000815250828281518110610ae357610ae261407f565b5b60200260200101819052508080610af9906140dd565b9150505b60008167ffffffffffffffff811115610b1957610b186136e2565b5b604051908082528060200260200182016040528015610b4c57816020015b6060815260200190600190039081610b375790505b50905060005b82811015610ba657838181518110610b6d57610b6c61407f565b5b6020026020010151828281518110610b8857610b8761407f565b5b60200260200101819052508080610b9e906140dd565b915050610b52565b50809350505050919050565b60048054610bbf90614154565b80601f0160208091040260200160405190810160405280929190818152602001828054610beb90614154565b8015610c385780601f10610c0d57610100808354040283529160200191610c38565b820191906000526020600020905b815481529060010190602001808311610c1b57829003601f168201915b505050505081565b6060600a600083815260200190815260200160002060050160149054906101000a900460ff16610ca5576040517f08c379a0000000000000000000000000000000000000000000000000000000008152600401610c9c906141d1565b60405180910390fd5b6000600a60008481526020019081526020016000206004015490507ff07b88471cd28dc438f2291190512bd968fbd79b8c86b9ed015e51c1261d911f8103610d25576040518060400160405280600681526020017f4163746976650000000000000000000000000000000000000000000000000000815250915050610e29565b7f0e2613da3f93fb28f9eefb62314cd4916001363ced4413a9fb328c4f14ba73628103610d8a576040518060400160405280600781526020017f5061727469616c00000000000000000000000000000000000000000000000000815250915050610e29565b7fdbbf985ae41a60c90d9ccf8fd67956ffc89c51f508b27f75422c733b6bd8a4808103610def576040518060400160405280600781526020017f5265746972656400000000000000000000000000000000000000000000000000815250915050610e29565b6040518060400160405280600781526020017f556e6b6e6f776e000000000000000000000000000000000000000000000000008152509150505b919050565b60096020528060005260406000206000915090505481565b60606006610e5383611ef4565b604051602001610e649291906142c5565b6040516020818303038152906040529050919050565b600381565b600060036000838152602001908152602001600020600101549050919050565b6000610ea9611fc2565b90508073ffffffffffffffffffffffffffffffffffffffff168673ffffffffffffffffffffffffffffffffffffffff1614158015610eee5750610eec8682611d1a565b155b15610f325780866040517fe237d922000000000000000000000000000000000000000000000000000000008152600401610f299291906142e9565b60405180910390fd5b610f3f8686868686611fca565b505050505050565b7f71840dc4906352362b0cdaf79870196c8e42acafade72d5d5a6d59291253ceb1610f71816120c2565b610f7b83836120d6565b50505050565b610f89611fc2565b73ffffffffffffffffffffffffffffffffffffffff168173ffffffffffffffffffffffffffffffffffffffff1614610fed576040517f6697b23200000000000000000000000000000000000000000000000000000000815260040160405180910390fd5b610ff782826121c8565b505050565b7f71840dc4906352362b0cdaf79870196c8e42acafade72d5d5a6d59291253ceb1611026816120c2565b600a600085815260200190815260200160002060050160149054906101000a900460ff16611089576040517f08c379a0000000000000000000000000000000000000000000000000000000008152600401611080906141d1565b60405180910390fd5b7ff07b88471cd28dc438f2291190512bd968fbd79b8c86b9ed015e51c1261d911f600a60008681526020019081526020016000206004015414611101576040517f08c379a00000000000000000000000000000000000000000000000000000000081526004016110f89061435e565b60405180910390fd5b600a60008581526020019081526020016000206002015482111561115a576040517f08c379a0000000000000000000000000000000000000000000000000000000008152600401611151906143ca565b60405180910390fd5b611175838584604051806020016040528060008152506122bb565b8160086000868152602001908152602001600020600082825461119891906143ea565b925050819055508273ffffffffffffffffffffffffffffffffffffffff16847f06437edc6222bc3b01fd946ea7b36242878aef9a533aa8815121bb23dc0a7438846040516111e69190613340565b60405180910390a350505050565b7ff07b88471cd28dc438f2291190512bd968fbd79b8c86b9ed015e51c1261d911f81565b6000611224838361085b565b905092915050565b6060815183511461127857815183516040517f5b05999100000000000000000000000000000000000000000000000000000000815260040161126f92919061441e565b60405180910390fd5b6000835167ffffffffffffffff811115611295576112946136e2565b5b6040519080825280602002602001820160405280156112c35781602001602082028036833780820191505090505b50905060005b8451811015611330576113006112e8828761235490919063ffffffff16565b6112fb838761236890919063ffffffff16565b61085b565b8282815181106113135761131261407f565b5b60200260200101818152505080611329906140dd565b90506112c9565b508091505092915050565b7f71840dc4906352362b0cdaf79870196c8e42acafade72d5d5a6d59291253ceb1611365816120c2565b816006908161137491906145de565b505050565b6113816131f1565b600a600083815260200190815260200160002060050160149054906101000a900460ff166113e4576040517f08c379a00000000000000000000000000000000000000000000000000000000081526004016113db906141d1565b60405180910390fd5b600a60008381526020019081526020016000206040518060e001604052908160008201548152602001600182015481526020016002820154815260200160038201548152602001600482015481526020016005820160009054906101000a900473ffffffffffffffffffffffffffffffffffffffff1673ffffffffffffffffffffffffffffffffffffffff1673ffffffffffffffffffffffffffffffffffffffff1681526020016005820160149054906101000a900460ff1615151515815250509050919050565b600b5481565b7f65cb1d8422cdf0328f26b49e42e9f4524474c431da623cbe0ea455f1b67c9f7781565b600a600083815260200190815260200160002060050160149054906101000a900460ff16611539576040517f08c379a0000000000000000000000000000000000000000000000000000000008152600401611530906141d1565b60405180910390fd5b80611544338461085b565b1015611585576040517f08c379a000000000000000000000000000000000000000000000000000000000815260040161157c906146fc565b60405180910390fd5b61159033838361237c565b806009600084815260200190815260200160002060008282546115b391906143ea565b92505081905550600a60008381526020019081526020016000206002015460096000848152602001908152602001600020541061162a577fdbbf985ae41a60c90d9ccf8fd67956ffc89c51f508b27f75422c733b6bd8a480600a600084815260200190815260200160002060040181905550611683565b600060096000848152602001908152602001600020541115611682577f0e2613da3f93fb28f9eefb62314cd4916001363ced4413a9fb328c4f14ba7362600a6000848152602001908152602001600020600401819055505b5b3373ffffffffffffffffffffffffffffffffffffffff16827ff3ae8ac140e9737c0a2feb16481ee92fe0c3a6753433dfa6dcfac892109f618a836040516116ca9190613340565b60405180910390a35050565b600060076000838152602001908152602001600020549050919050565b60086020528060005260406000206000915090505481565b60006117178383612423565b905092915050565b60007f71840dc4906352362b0cdaf79870196c8e42acafade72d5d5a6d59291253ceb161174b816120c2565b6000831161178e576040517f08c379a000000000000000000000000000000000000000000000000000000000815260040161178590614768565b60405180910390fd5b600b60008154809291906117a1906140dd565b91905055506000600b5490506040518060e001604052808281526020018681526020018581526020014281526020017ff07b88471cd28dc438f2291190512bd968fbd79b8c86b9ed015e51c1261d911f81526020013373ffffffffffffffffffffffffffffffffffffffff16815260200160011515815250600a6000838152602001908152602001600020600082015181600001556020820151816001015560408201518160020155606082015181600301556080820151816004015560a08201518160050160006101000a81548173ffffffffffffffffffffffffffffffffffffffff021916908373ffffffffffffffffffffffffffffffffffffffff16021790555060c08201518160050160146101000a81548160ff0219169083151502179055509050503373ffffffffffffffffffffffffffffffffffffffff16817fb0276a592797313569cc2281fc9ebe219d41e85d21372111d56185efd5f3ad6a878760405161191192919061441e565b60405180910390a3809250505092915050565b600181565b600a600085815260200190815260200160002060050160149054906101000a900460ff1661198c576040517f08c379a0000000000000000000000000000000000000000000000000000000008152600401611983906141d1565b60405180910390fd5b80611997848661085b565b10156119d8576040517f08c379a00000000000000000000000000000000000000000000000000000000081526004016119cf906146fc565b60405180910390fd5b6119f4838386846040518060200160405280600081525061248e565b8173ffffffffffffffffffffffffffffffffffffffff168373ffffffffffffffffffffffffffffffffffffffff16857f09710a09da8aaba9531b885c1a91f51bdfbaaf2f030f718644525d11a43140c484604051611a529190613340565b60405180910390a450505050565b60058054611a6d90614154565b80601f0160208091040260200160405190810160405280929190818152602001828054611a9990614154565b8015611ae65780601f10611abb57610100808354040283529160200191611ae6565b820191906000526020600020905b815481529060010190602001808311611ac957829003601f168201915b505050505081565b6000801b81565b611b07611b00611fc2565b8383612599565b5050565b7fdbbf985ae41a60c90d9ccf8fd67956ffc89c51f508b27f75422c733b6bd8a48081565b600a6020528060005260406000206000915090508060000154908060010154908060020154908060030154908060040154908060050160009054906101000a900473ffffffffffffffffffffffffffffffffffffffff16908060050160149054906101000a900460ff16905087565b60076020528060005260406000206000915090505481565b7f8eb467f061ca67f42a2d2ca4a346fc9fb645efc0ba75056ee9f71c3a0ccc10a881565b7f71840dc4906352362b0cdaf79870196c8e42acafade72d5d5a6d59291253ceb1611c04816120c2565b611c0e83836121c8565b50505050565b6060600080600190505b600b548111611c5b576000611c33858361085b565b1115611c48578180611c44906140dd565b9250505b8080611c53906140dd565b915050611c1e565b5060008167ffffffffffffffff811115611c7857611c776136e2565b5b604051908082528060200260200182016040528015611ca65781602001602082028036833780820191505090505b509050600080600190505b600b548111611d0e576000611cc6878361085b565b1115611cfb5780838381518110611ce057611cdf61407f565b5b6020026020010181815250508180611cf7906140dd565b9250505b8080611d06906140dd565b915050611cb1565b50819350505050919050565b6000600160008473ffffffffffffffffffffffffffffffffffffffff1673ffffffffffffffffffffffffffffffffffffffff16815260200190815260200160002060008373ffffffffffffffffffffffffffffffffffffffff1673ffffffffffffffffffffffffffffffffffffffff16815260200190815260200160002060009054906101000a900460ff16905092915050565b6000611db8611fc2565b90508073ffffffffffffffffffffffffffffffffffffffff168673ffffffffffffffffffffffffffffffffffffffff1614158015611dfd5750611dfb8682611d1a565b155b15611e415780866040517fe237d922000000000000000000000000000000000000000000000000000000008152600401611e389291906142e9565b60405180910390fd5b611e4e868686868661248e565b505050505050565b7f71840dc4906352362b0cdaf79870196c8e42acafade72d5d5a6d59291253ceb181565b60007f7965db0b000000000000000000000000000000000000000000000000000000007bffffffffffffffffffffffffffffffffffffffffffffffffffffffff1916827bffffffffffffffffffffffffffffffffffffffffffffffffffffffff19161480611eed5750611eec82612709565b5b9050919050565b606060006001611f03846127eb565b01905060008167ffffffffffffffff811115611f2257611f216136e2565b5b6040519080825280601f01601f191660200182016040528015611f545781602001600182028036833780820191505090505b509050600082602083010190505b600115611fb7578080600190039150507f3031323334353637383961626364656600000000000000000000000000000000600a86061a8153600a8581611fab57611faa614788565b5b04945060008503611f62575b819350505050919050565b600033905090565b600073ffffffffffffffffffffffffffffffffffffffff168473ffffffffffffffffffffffffffffffffffffffff160361203c5760006040517f57f447ce00000000000000000000000000000000000000000000000000000000815260040161203391906147b7565b60405180910390fd5b600073ffffffffffffffffffffffffffffffffffffffff168573ffffffffffffffffffffffffffffffffffffffff16036120ae5760006040517f01a835140000000000000000000000000000000000000000000000000000000081526004016120a591906147b7565b60405180910390fd5b6120bb858585858561293e565b5050505050565b6120d3816120ce611fc2565b6129f0565b50565b60006120e2838361170b565b6121bd5760016003600085815260200190815260200160002060000160008473ffffffffffffffffffffffffffffffffffffffff1673ffffffffffffffffffffffffffffffffffffffff16815260200190815260200160002060006101000a81548160ff02191690831515021790555061215a611fc2565b73ffffffffffffffffffffffffffffffffffffffff168273ffffffffffffffffffffffffffffffffffffffff16847f2f8788117e7eff1d82e926ec794901d17c78024a50270940304540a733656f0d60405160405180910390a4600190506121c2565b600090505b92915050565b60006121d4838361170b565b156122b05760006003600085815260200190815260200160002060000160008473ffffffffffffffffffffffffffffffffffffffff1673ffffffffffffffffffffffffffffffffffffffff16815260200190815260200160002060006101000a81548160ff02191690831515021790555061224d611fc2565b73ffffffffffffffffffffffffffffffffffffffff168273ffffffffffffffffffffffffffffffffffffffff16847ff6391f5c32d9c69d2a47ea670b442974b53935d1edc7fd64eb21e047a839171b60405160405180910390a4600190506122b5565b600090505b92915050565b600073ffffffffffffffffffffffffffffffffffffffff168473ffffffffffffffffffffffffffffffffffffffff160361232d5760006040517f57f447ce00000000000000000000000000000000000000000000000000000000815260040161232491906147b7565b60405180910390fd5b60008061233a8585612a41565b9150915061234c60008784848761293e565b505050505050565b600060208202602084010151905092915050565b600060208202602084010151905092915050565b600073ffffffffffffffffffffffffffffffffffffffff168373ffffffffffffffffffffffffffffffffffffffff16036123ee5760006040517f01a835140000000000000000000000000000000000000000000000000000000081526004016123e591906147b7565b60405180910390fd5b6000806123fb8484612a41565b9150915061241c85600084846040518060200160405280600081525061293e565b5050505050565b60006003600084815260200190815260200160002060000160008373ffffffffffffffffffffffffffffffffffffffff1673ffffffffffffffffffffffffffffffffffffffff16815260200190815260200160002060009054906101000a900460ff16905092915050565b600073ffffffffffffffffffffffffffffffffffffffff168473ffffffffffffffffffffffffffffffffffffffff16036125005760006040517f57f447ce0000000000000000000000000000000000000000000000000000000081526004016124f791906147b7565b60405180910390fd5b600073ffffffffffffffffffffffffffffffffffffffff168573ffffffffffffffffffffffffffffffffffffffff16036125725760006040517f01a8351400000000000000000000000000000000000000000000000000000000815260040161256991906147b7565b60405180910390fd5b60008061257f8585612a41565b91509150612590878784848761293e565b50505050505050565b600073ffffffffffffffffffffffffffffffffffffffff168273ffffffffffffffffffffffffffffffffffffffff160361260b5760006040517fced3e10000000000000000000000000000000000000000000000000000000000815260040161260291906147b7565b60405180910390fd5b80600160008573ffffffffffffffffffffffffffffffffffffffff1673ffffffffffffffffffffffffffffffffffffffff16815260200190815260200160002060008473ffffffffffffffffffffffffffffffffffffffff1673ffffffffffffffffffffffffffffffffffffffff16815260200190815260200160002060006101000a81548160ff0219169083151502179055508173ffffffffffffffffffffffffffffffffffffffff168373ffffffffffffffffffffffffffffffffffffffff167f17307eab39ab6107e8899845ad3d59bd9653f200f220920489ca2b5937696c31836040516126fc91906133fb565b60405180910390a3505050565b60007fd9b67a26000000000000000000000000000000000000000000000000000000007bffffffffffffffffffffffffffffffffffffffffffffffffffffffff1916827bffffffffffffffffffffffffffffffffffffffffffffffffffffffff191614806127d457507f0e89341c000000000000000000000000000000000000000000000000000000007bffffffffffffffffffffffffffffffffffffffffffffffffffffffff1916827bffffffffffffffffffffffffffffffffffffffffffffffffffffffff1916145b806127e457506127e382612a71565b5b9050919050565b600080600090507a184f03e93ff9f4daa797ed6e38ed64bf6a1f0100000000000000008310612849577a184f03e93ff9f4daa797ed6e38ed64bf6a1f010000000000000000838161283f5761283e614788565b5b0492506040810190505b6d04ee2d6d415b85acef81000000008310612886576d04ee2d6d415b85acef8100000000838161287c5761287b614788565b5b0492506020810190505b662386f26fc1000083106128b557662386f26fc1000083816128ab576128aa614788565b5b0492506010810190505b6305f5e10083106128de576305f5e10083816128d4576128d3614788565b5b0492506008810190505b61271083106129035761271083816128f9576128f8614788565b5b0492506004810190505b60648310612926576064838161291c5761291b614788565b5b0492506002810190505b600a8310612935576001810190505b80915050919050565b61294a85858585612adb565b600073ffffffffffffffffffffffffffffffffffffffff168473ffffffffffffffffffffffffffffffffffffffff16146129e9576000612988611fc2565b905060018451036129d85760006129a960008661236890919063ffffffff16565b905060006129c160008661236890919063ffffffff16565b90506129d1838989858589612e89565b50506129e7565b6129e681878787878761303d565b5b505b5050505050565b6129fa828261170b565b612a3d5780826040517fe2517d3f000000000000000000000000000000000000000000000000000000008152600401612a349291906147d2565b60405180910390fd5b5050565b60608060405191506001825283602083015260408201905060018152826020820152604081016040529250929050565b60007f01ffc9a7000000000000000000000000000000000000000000000000000000007bffffffffffffffffffffffffffffffffffffffffffffffffffffffff1916827bffffffffffffffffffffffffffffffffffffffffffffffffffffffff1916149050919050565b8051825114612b2557815181516040517f5b059991000000000000000000000000000000000000000000000000000000008152600401612b1c92919061441e565b60405180910390fd5b6000612b2f611fc2565b905060005b8351811015612d44576000612b52828661236890919063ffffffff16565b90506000612b69838661236890919063ffffffff16565b9050600073ffffffffffffffffffffffffffffffffffffffff168873ffffffffffffffffffffffffffffffffffffffff1614612c9657600080600084815260200190815260200160002060008a73ffffffffffffffffffffffffffffffffffffffff1673ffffffffffffffffffffffffffffffffffffffff16815260200190815260200160002054905081811015612c3e57888183856040517f03dee4c5000000000000000000000000000000000000000000000000000000008152600401612c3594939291906147fb565b60405180910390fd5b81810360008085815260200190815260200160002060008b73ffffffffffffffffffffffffffffffffffffffff1673ffffffffffffffffffffffffffffffffffffffff16815260200190815260200160002081905550505b600073ffffffffffffffffffffffffffffffffffffffff168773ffffffffffffffffffffffffffffffffffffffff1614612d31578060008084815260200190815260200160002060008973ffffffffffffffffffffffffffffffffffffffff1673ffffffffffffffffffffffffffffffffffffffff1681526020019081526020016000206000828254612d2991906143ea565b925050819055505b505080612d3d906140dd565b9050612b34565b506001835103612e03576000612d6460008561236890919063ffffffff16565b90506000612d7c60008561236890919063ffffffff16565b90508573ffffffffffffffffffffffffffffffffffffffff168773ffffffffffffffffffffffffffffffffffffffff168473ffffffffffffffffffffffffffffffffffffffff167fc3d58168c5ae7397731d063d5bbf3d657854427343f4c083240f7aacaa2d0f628585604051612df492919061441e565b60405180910390a45050612e82565b8373ffffffffffffffffffffffffffffffffffffffff168573ffffffffffffffffffffffffffffffffffffffff168273ffffffffffffffffffffffffffffffffffffffff167f4a39dc06d4c0dbc64b70af90fd698a233a518aa5d07e595d983b8c0526c8f7fb8686604051612e79929190614840565b60405180910390a45b5050505050565b60008473ffffffffffffffffffffffffffffffffffffffff163b1115613035578373ffffffffffffffffffffffffffffffffffffffff1663f23a6e6187878686866040518663ffffffff1660e01b8152600401612eea9594939291906148cc565b6020604051808303816000875af1925050508015612f2657506040513d601f19601f82011682018060405250810190612f23919061493b565b60015b612faa573d8060008114612f56576040519150601f19603f3d011682016040523d82523d6000602084013e612f5b565b606091505b506000815103612fa257846040517f57f447ce000000000000000000000000000000000000000000000000000000008152600401612f9991906147b7565b60405180910390fd5b805160208201fd5b63f23a6e6160e01b7bffffffffffffffffffffffffffffffffffffffffffffffffffffffff1916817bffffffffffffffffffffffffffffffffffffffffffffffffffffffff19161461303357846040517f57f447ce00000000000000000000000000000000000000000000000000000000815260040161302a91906147b7565b60405180910390fd5b505b505050505050565b60008473ffffffffffffffffffffffffffffffffffffffff163b11156131e9578373ffffffffffffffffffffffffffffffffffffffff1663bc197c8187878686866040518663ffffffff1660e01b815260040161309e959493929190614968565b6020604051808303816000875af19250505080156130da57506040513d601f19601f820116820180604052508101906130d7919061493b565b60015b61315e573d806000811461310a576040519150601f19603f3d011682016040523d82523d6000602084013e61310f565b606091505b50600081510361315657846040517f57f447ce00000000000000000000000000000000000000000000000000000000815260040161314d91906147b7565b60405180910390fd5b805160208201fd5b63bc197c8160e01b7bffffffffffffffffffffffffffffffffffffffffffffffffffffffff1916817bffffffffffffffffffffffffffffffffffffffffffffffffffffffff1916146131e757846040517f57f447ce0000000000000000000000000000000000000000000000000000000081526004016131de91906147b7565b60405180910390fd5b505b505050505050565b6040518060e001604052806000815260200160008152602001600081526020016000815260200160008019168152602001600073ffffffffffffffffffffffffffffffffffffffff1681526020016000151581525090565b6000604051905090565b600080fd5b600080fd5b600073ffffffffffffffffffffffffffffffffffffffff82169050919050565b60006132888261325d565b9050919050565b6132988161327d565b81146132a357600080fd5b50565b6000813590506132b58161328f565b92915050565b6000819050919050565b6132ce816132bb565b81146132d957600080fd5b50565b6000813590506132eb816132c5565b92915050565b6000806040838503121561330857613307613253565b5b6000613316858286016132a6565b9250506020613327858286016132dc565b9150509250929050565b61333a816132bb565b82525050565b60006020820190506133556000830184613331565b92915050565b60007fffffffff0000000000000000000000000000000000000000000000000000000082169050919050565b6133908161335b565b811461339b57600080fd5b50565b6000813590506133ad81613387565b92915050565b6000602082840312156133c9576133c8613253565b5b60006133d78482850161339e565b91505092915050565b60008115159050919050565b6133f5816133e0565b82525050565b600060208201905061341060008301846133ec565b92915050565b6000819050919050565b61342981613416565b82525050565b60006020820190506134446000830184613420565b92915050565b6000602082840312156134605761345f613253565b5b600061346e848285016132a6565b91505092915050565b600081519050919050565b600082825260208201905092915050565b6000819050602082019050919050565b600081519050919050565b600082825260208201905092915050565b60005b838110156134dd5780820151818401526020810190506134c2565b60008484015250505050565b6000601f19601f8301169050919050565b6000613505826134a3565b61350f81856134ae565b935061351f8185602086016134bf565b613528816134e9565b840191505092915050565b600061353f83836134fa565b905092915050565b6000602082019050919050565b600061355f82613477565b6135698185613482565b93508360208202850161357b85613493565b8060005b858110156135b757848403895281516135988582613533565b94506135a383613547565b925060208a0199505060018101905061357f565b50829750879550505050505092915050565b600060208201905081810360008301526135e38184613554565b905092915050565b600082825260208201905092915050565b6000613607826134a3565b61361181856135eb565b93506136218185602086016134bf565b61362a816134e9565b840191505092915050565b6000602082019050818103600083015261364f81846135fc565b905092915050565b60006020828403121561366d5761366c613253565b5b600061367b848285016132dc565b91505092915050565b61368d81613416565b811461369857600080fd5b50565b6000813590506136aa81613684565b92915050565b6000602082840312156136c6576136c5613253565b5b60006136d48482850161369b565b91505092915050565b600080fd5b7f4e487b7100000000000000000000000000000000000000000000000000000000600052604160045260246000fd5b61371a826134e9565b810181811067ffffffffffffffff82111715613739576137386136e2565b5b80604052505050565b600061374c613249565b90506137588282613711565b919050565b600067ffffffffffffffff821115613778576137776136e2565b5b602082029050602081019050919050565b600080fd5b60006137a161379c8461375d565b613742565b905080838252602082019050602084028301858111156137c4576137c3613789565b5b835b818110156137ed57806137d988826132dc565b8452602084019350506020810190506137c6565b5050509392505050565b600082601f83011261380c5761380b6136dd565b5b813561381c84826020860161378e565b91505092915050565b600080fd5b600067ffffffffffffffff821115613845576138446136e2565b5b61384e826134e9565b9050602081019050919050565b82818337600083830152505050565b600061387d6138788461382a565b613742565b90508281526020810184848401111561389957613898613825565b5b6138a484828561385b565b509392505050565b600082601f8301126138c1576138c06136dd565b5b81356138d184826020860161386a565b91505092915050565b600080600080600060a086880312156138f6576138f5613253565b5b6000613904888289016132a6565b9550506020613915888289016132a6565b945050604086013567ffffffffffffffff81111561393657613935613258565b5b613942888289016137f7565b935050606086013567ffffffffffffffff81111561396357613962613258565b5b61396f888289016137f7565b925050608086013567ffffffffffffffff8111156139905761398f613258565b5b61399c888289016138ac565b9150509295509295909350565b600080604083850312156139c0576139bf613253565b5b60006139ce8582860161369b565b92505060206139df858286016132a6565b9150509250929050565b600080600060608486031215613a0257613a01613253565b5b6000613a10868287016132dc565b9350506020613a21868287016132a6565b9250506040613a32868287016132dc565b9150509250925092565b600067ffffffffffffffff821115613a5757613a566136e2565b5b602082029050602081019050919050565b6000613a7b613a7684613a3c565b613742565b90508083825260208201905060208402830185811115613a9e57613a9d613789565b5b835b81811015613ac75780613ab388826132a6565b845260208401935050602081019050613aa0565b5050509392505050565b600082601f830112613ae657613ae56136dd565b5b8135613af6848260208601613a68565b91505092915050565b60008060408385031215613b1657613b15613253565b5b600083013567ffffffffffffffff811115613b3457613b33613258565b5b613b4085828601613ad1565b925050602083013567ffffffffffffffff811115613b6157613b60613258565b5b613b6d858286016137f7565b9150509250929050565b600081519050919050565b600082825260208201905092915050565b6000819050602082019050919050565b613bac816132bb565b82525050565b6000613bbe8383613ba3565b60208301905092915050565b6000602082019050919050565b6000613be282613b77565b613bec8185613b82565b9350613bf783613b93565b8060005b83811015613c28578151613c0f8882613bb2565b9750613c1a83613bca565b925050600181019050613bfb565b5085935050505092915050565b60006020820190508181036000830152613c4f8184613bd7565b905092915050565b600067ffffffffffffffff821115613c7257613c716136e2565b5b613c7b826134e9565b9050602081019050919050565b6000613c9b613c9684613c57565b613742565b905082815260208101848484011115613cb757613cb6613825565b5b613cc284828561385b565b509392505050565b600082601f830112613cdf57613cde6136dd565b5b8135613cef848260208601613c88565b91505092915050565b600060208284031215613d0e57613d0d613253565b5b600082013567ffffffffffffffff811115613d2c57613d2b613258565b5b613d3884828501613cca565b91505092915050565b613d4a81613416565b82525050565b613d598161327d565b82525050565b613d68816133e0565b82525050565b60e082016000820151613d846000850182613ba3565b506020820151613d976020850182613ba3565b506040820151613daa6040850182613ba3565b506060820151613dbd6060850182613ba3565b506080820151613dd06080850182613d41565b5060a0820151613de360a0850182613d50565b5060c0820151613df660c0850182613d5f565b50505050565b600060e082019050613e116000830184613d6e565b92915050565b60008060408385031215613e2e57613e2d613253565b5b6000613e3c858286016132dc565b9250506020613e4d858286016132dc565b9150509250929050565b60008060008060808587031215613e7157613e70613253565b5b6000613e7f878288016132dc565b9450506020613e90878288016132a6565b9350506040613ea1878288016132a6565b9250506060613eb2878288016132dc565b91505092959194509250565b613ec7816133e0565b8114613ed257600080fd5b50565b600081359050613ee481613ebe565b92915050565b60008060408385031215613f0157613f00613253565b5b6000613f0f858286016132a6565b9250506020613f2085828601613ed5565b9150509250929050565b613f338161327d565b82525050565b600060e082019050613f4e600083018a613331565b613f5b6020830189613331565b613f686040830188613331565b613f756060830187613331565b613f826080830186613420565b613f8f60a0830185613f2a565b613f9c60c08301846133ec565b98975050505050505050565b60008060408385031215613fbf57613fbe613253565b5b6000613fcd858286016132a6565b9250506020613fde858286016132a6565b9150509250929050565b600080600080600060a0868803121561400457614003613253565b5b6000614012888289016132a6565b9550506020614023888289016132a6565b9450506040614034888289016132dc565b9350506060614045888289016132dc565b925050608086013567ffffffffffffffff81111561406657614065613258565b5b614072888289016138ac565b9150509295509295909350565b7f4e487b7100000000000000000000000000000000000000000000000000000000600052603260045260246000fd5b7f4e487b7100000000000000000000000000000000000000000000000000000000600052601160045260246000fd5b60006140e8826132bb565b91507fffffffffffffffffffffffffffffffffffffffffffffffffffffffffffffffff820361411a576141196140ae565b5b600182019050919050565b7f4e487b7100000000000000000000000000000000000000000000000000000000600052602260045260246000fd5b6000600282049050600182168061416c57607f821691505b60208210810361417f5761417e614125565b5b50919050565b7f426174636820646f6573206e6f74206578697374000000000000000000000000600082015250565b60006141bb6014836135eb565b91506141c682614185565b602082019050919050565b600060208201905081810360008301526141ea816141ae565b9050919050565b600081905092915050565b60008190508160005260206000209050919050565b6000815461421e81614154565b61422881866141f1565b9450600182166000811461424357600181146142585761428b565b60ff198316865281151582028601935061428b565b614261856141fc565b60005b8381101561428357815481890152600182019150602081019050614264565b838801955050505b50505092915050565b600061429f826134a3565b6142a981856141f1565b93506142b98185602086016134bf565b80840191505092915050565b60006142d18285614211565b91506142dd8284614294565b91508190509392505050565b60006040820190506142fe6000830185613f2a565b61430b6020830184613f2a565b9392505050565b7f4261746368206973206e6f742061637469766500000000000000000000000000600082015250565b60006143486013836135eb565b915061435382614312565b602082019050919050565b600060208201905081810360008301526143778161433b565b9050919050565b7f5175616e746974792065786365656473206261746368206c696d697400000000600082015250565b60006143b4601c836135eb565b91506143bf8261437e565b602082019050919050565b600060208201905081810360008301526143e3816143a7565b9050919050565b60006143f5826132bb565b9150614400836132bb565b9250828201905080821115614418576144176140ae565b5b92915050565b60006040820190506144336000830185613331565b6144406020830184613331565b9392505050565b60006020601f8301049050919050565b600082821b905092915050565b6000600883026144947fffffffffffffffffffffffffffffffffffffffffffffffffffffffffffffffff82614457565b61449e8683614457565b95508019841693508086168417925050509392505050565b6000819050919050565b60006144db6144d66144d1846132bb565b6144b6565b6132bb565b9050919050565b6000819050919050565b6144f5836144c0565b614509614501826144e2565b848454614464565b825550505050565b600090565b61451e614511565b6145298184846144ec565b505050565b5b8181101561454d57614542600082614516565b60018101905061452f565b5050565b601f82111561459257614563816141fc565b61456c84614447565b8101602085101561457b578190505b61458f61458785614447565b83018261452e565b50505b505050565b600082821c905092915050565b60006145b560001984600802614597565b1980831691505092915050565b60006145ce83836145a4565b9150826002028217905092915050565b6145e7826134a3565b67ffffffffffffffff811115614600576145ff6136e2565b5b61460a8254614154565b614615828285614551565b600060209050601f8311600181146146485760008415614636578287015190505b61464085826145c2565b8655506146a8565b601f198416614656866141fc565b60005b8281101561467e57848901518255600182019150602085019450602081019050614659565b8683101561469b5784890151614697601f8916826145a4565b8355505b6001600288020188555050505b505050505050565b7f496e73756666696369656e742062616c616e6365000000000000000000000000600082015250565b60006146e66014836135eb565b91506146f1826146b0565b602082019050919050565b60006020820190508181036000830152614715816146d9565b9050919050565b7f5175616e74697479206d7573742062652067726561746572207468616e203000600082015250565b6000614752601f836135eb565b915061475d8261471c565b602082019050919050565b6000602082019050818103600083015261478181614745565b9050919050565b7f4e487b7100000000000000000000000000000000000000000000000000000000600052601260045260246000fd5b60006020820190506147cc6000830184613f2a565b92915050565b60006040820190506147e76000830185613f2a565b6147f46020830184613420565b9392505050565b60006080820190506148106000830187613f2a565b61481d6020830186613331565b61482a6040830185613331565b6148376060830184613331565b95945050505050565b6000604082019050818103600083015261485a8185613bd7565b9050818103602083015261486e8184613bd7565b90509392505050565b600081519050919050565b600082825260208201905092915050565b600061489e82614877565b6148a88185614882565b93506148b88185602086016134bf565b6148c1816134e9565b840191505092915050565b600060a0820190506148e16000830188613f2a565b6148ee6020830187613f2a565b6148fb6040830186613331565b6149086060830185613331565b818103608083015261491a8184614893565b90509695505050505050565b60008151905061493581613387565b92915050565b60006020828403121561495157614950613253565b5b600061495f84828501614926565b91505092915050565b600060a08201905061497d6000830188613f2a565b61498a6020830187613f2a565b818103604083015261499c8186613bd7565b905081810360608301526149b08185613bd7565b905081810360808301526149c48184614893565b9050969550505050505056fea2646970667358221220d6a47cb1d744a2f87ef9e0e53faebc6709b36b2f43a02f111c55c2c62bdbe38464736f6c6343000814003368747470733a2f2f6170692e68326c65646765722e636f6d2f6d657461646174612f","opcodes":"PUSH1 0x80 PUSH1 0x40 MSTORE PUSH1 0x40 MLOAD DUP1 PUSH1 0x40 ADD PUSH1 0x40 MSTORE DUP1 PUSH1 0x15 DUP2 MSTORE PUSH1 0x20 ADD PUSH32 0x477265656E20487964726F67656E204372656469740000000000000000000000 DUP2 MSTORE POP PUSH1 0x4 SWAP1 DUP2 PUSH3 0x4A SWAP2 SWAP1 PUSH3 0x7DD JUMP JUMPDEST POP PUSH1 0x40 MLOAD DUP1 PUSH1 0x40 ADD PUSH1 0x40 MSTORE DUP1 PUSH1 0x3 DUP2 MSTORE PUSH1 0x20 ADD PUSH32 0x4748430000000000000000000000000000000000000000000000000000000000 DUP2 MSTORE POP PUSH1 0x5 SWAP1 DUP2 PUSH3 0x91 SWAP2 SWAP1 PUSH3 0x7DD JUMP JUMPDEST POP CALLVALUE DUP1 ISZERO PUSH3 0x9F JUMPI PUSH1 0x0 DUP1 REVERT JUMPDEST POP PUSH1 0x40 MLOAD DUP1 PUSH1 0x20 ADD PUSH1 0x40 MSTORE DUP1 PUSH1 0x0 DUP2 MSTORE POP PUSH3 0xC1 DUP2 PUSH3 0x3BB PUSH1 0x20 SHL PUSH1 0x20 SHR JUMP JUMPDEST POP PUSH1 0x40 MLOAD DUP1 PUSH1 0x60 ADD PUSH1 0x40 MSTORE DUP1 PUSH1 0x22 DUP2 MSTORE PUSH1 0x20 ADD PUSH3 0x52DA PUSH1 0x22 SWAP2 CODECOPY PUSH1 0x6 SWAP1 DUP2 PUSH3 0xEC SWAP2 SWAP1 PUSH3 0x7DD JUMP JUMPDEST POP PUSH3 0x102 PUSH1 0x0 DUP1 SHL CALLER PUSH3 0x3D0 PUSH1 0x20 SHL PUSH1 0x20 SHR JUMP JUMPDEST POP PUSH3 0x135 PUSH32 0x71840DC4906352362B0CDAF79870196C8E42ACAFADE72D5D5A6D59291253CEB1 CALLER PUSH3 0x3D0 PUSH1 0x20 SHL PUSH1 0x20 SHR JUMP JUMPDEST POP PUSH3 0x17C PUSH32 0x71840DC4906352362B0CDAF79870196C8E42ACAFADE72D5D5A6D59291253CEB1 PUSH20 0xF39FD6E51AAD88F6F4CE6AB8827279CFFFB92266 PUSH3 0x3D0 PUSH1 0x20 SHL PUSH1 0x20 SHR JUMP JUMPDEST POP PUSH3 0x1C3 PUSH32 0x71840DC4906352362B0CDAF79870196C8E42ACAFADE72D5D5A6D59291253CEB1 PUSH20 0x70997970C51812DC3A010C7D01B50E0D17DC79C8 PUSH3 0x3D0 PUSH1 0x20 SHL PUSH1 0x20 SHR JUMP JUMPDEST POP PUSH3 0x20A PUSH32 0x71840DC4906352362B0CDAF79870196C8E42ACAFADE72D5D5A6D59291253CEB1 PUSH20 0x3C44CDDDB6A900FA2B585DD299E03D12FA4293BC PUSH3 0x3D0 PUSH1 0x20 SHL PUSH1 0x20 SHR JUMP JUMPDEST POP PUSH3 0x251 PUSH32 0x65CB1D8422CDF0328F26B49E42E9F4524474C431DA623CBE0EA455F1B67C9F77 PUSH20 0x90F79BF6EB2C4F870365E785982E1F101E93B906 PUSH3 0x3D0 PUSH1 0x20 SHL PUSH1 0x20 SHR JUMP JUMPDEST POP PUSH3 0x298 PUSH32 0x65CB1D8422CDF0328F26B49E42E9F4524474C431DA623CBE0EA455F1B67C9F77 PUSH20 0x15D34AAF54267DB7D7C367839AAF71A00A2C6A65 PUSH3 0x3D0 PUSH1 0x20 SHL PUSH1 0x20 SHR JUMP JUMPDEST POP PUSH3 0x2DF PUSH32 0x65CB1D8422CDF0328F26B49E42E9F4524474C431DA623CBE0EA455F1B67C9F77 PUSH20 0x9965507D1A55BCC2695C58BA16FB37D819B0A4DC PUSH3 0x3D0 PUSH1 0x20 SHL PUSH1 0x20 SHR JUMP JUMPDEST POP PUSH3 0x326 PUSH32 0x8EB467F061CA67F42A2D2CA4A346FC9FB645EFC0BA75056EE9F71C3A0CCC10A8 PUSH20 0x976EA74026E726554DB657FA54763ABD0C3A0AA9 PUSH3 0x3D0 PUSH1 0x20 SHL PUSH1 0x20 SHR JUMP JUMPDEST POP PUSH3 0x36D PUSH32 0x8EB467F061CA67F42A2D2CA4A346FC9FB645EFC0BA75056EE9F71C3A0CCC10A8 PUSH20 0x14DC79964DA2C08B23698B3D3CC7CA32193D9955 PUSH3 0x3D0 PUSH1 0x20 SHL PUSH1 0x20 SHR JUMP JUMPDEST POP PUSH3 0x3B4 PUSH32 0x8EB467F061CA67F42A2D2CA4A346FC9FB645EFC0BA75056EE9F71C3A0CCC10A8 PUSH20 0x23618E81E3F5CDF7F54C3D65F7FBC0ABF5B21E8F PUSH3 0x3D0 PUSH1 0x20 SHL PUSH1 0x20 SHR JUMP JUMPDEST POP PUSH3 0x8C4 JUMP JUMPDEST DUP1 PUSH1 0x2 SWAP1 DUP2 PUSH3 0x3CC SWAP2 SWAP1 PUSH3 0x7DD JUMP JUMPDEST POP POP JUMP JUMPDEST PUSH1 0x0 PUSH3 0x3E4 DUP4 DUP4 PUSH3 0x4D4 PUSH1 0x20 SHL PUSH1 0x20 SHR JUMP JUMPDEST PUSH3 0x4C9 JUMPI PUSH1 0x1 PUSH1 0x3 PUSH1 0x0 DUP6 DUP2 MSTORE PUSH1 0x20 ADD SWAP1 DUP2 MSTORE PUSH1 0x20 ADD PUSH1 0x0 KECCAK256 PUSH1 0x0 ADD PUSH1 0x0 DUP5 PUSH20 0xFFFFFFFFFFFFFFFFFFFFFFFFFFFFFFFFFFFFFFFF AND PUSH20 0xFFFFFFFFFFFFFFFFFFFFFFFFFFFFFFFFFFFFFFFF AND DUP2 MSTORE PUSH1 0x20 ADD SWAP1 DUP2 MSTORE PUSH1 0x20 ADD PUSH1 0x0 KECCAK256 PUSH1 0x0 PUSH2 0x100 EXP DUP2 SLOAD DUP2 PUSH1 0xFF MUL NOT AND SWAP1 DUP4 ISZERO ISZERO MUL OR SWAP1 SSTORE POP PUSH3 0x465 PUSH3 0x4F0 PUSH1 0x20 SHL PUSH1 0x20 SHR JUMP JUMPDEST PUSH20 0xFFFFFFFFFFFFFFFFFFFFFFFFFFFFFFFFFFFFFFFF AND DUP3 PUSH20 0xFFFFFFFFFFFFFFFFFFFFFFFFFFFFFFFFFFFFFFFF AND DUP5 PUSH32 0x2F8788117E7EFF1D82E926EC794901D17C78024A50270940304540A733656F0D PUSH1 0x40 MLOAD PUSH1 0x40 MLOAD DUP1 SWAP2 SUB SWAP1 LOG4 PUSH1 0x1 SWAP1 POP PUSH3 0x4CE JUMP JUMPDEST PUSH1 0x0 SWAP1 POP JUMPDEST SWAP3 SWAP2 POP POP JUMP JUMPDEST PUSH1 0x0 PUSH3 0x4E8 DUP4 DUP4 PUSH3 0x4F8 PUSH1 0x20 SHL PUSH1 0x20 SHR JUMP JUMPDEST SWAP1 POP SWAP3 SWAP2 POP POP JUMP JUMPDEST PUSH1 0x0 CALLER SWAP1 POP SWAP1 JUMP JUMPDEST PUSH1 0x0 PUSH1 0x3 PUSH1 0x0 DUP5 DUP2 MSTORE PUSH1 0x20 ADD SWAP1 DUP2 MSTORE PUSH1 0x20 ADD PUSH1 0x0 KECCAK256 PUSH1 0x0 ADD PUSH1 0x0 DUP4 PUSH20 0xFFFFFFFFFFFFFFFFFFFFFFFFFFFFFFFFFFFFFFFF AND PUSH20 0xFFFFFFFFFFFFFFFFFFFFFFFFFFFFFFFFFFFFFFFF AND DUP2 MSTORE PUSH1 0x20 ADD SWAP1 DUP2 MSTORE PUSH1 0x20 ADD PUSH1 0x0 KECCAK256 PUSH1 0x0 SWAP1 SLOAD SWAP1 PUSH2 0x100 EXP SWAP1 DIV PUSH1 0xFF AND SWAP1 POP SWAP3 SWAP2 POP POP JUMP JUMPDEST PUSH1 0x0 DUP2 MLOAD SWAP1 POP SWAP2 SWAP1 POP JUMP JUMPDEST PUSH32 0x4E487B7100000000000000000000000000000000000000000000000000000000 PUSH1 0x0 MSTORE PUSH1 0x41 PUSH1 0x4 MSTORE PUSH1 0x24 PUSH1 0x0 REVERT JUMPDEST PUSH32 0x4E487B7100000000000000000000000000000000000000000000000000000000 PUSH1 0x0 MSTORE PUSH1 0x22 PUSH1 0x4 MSTORE PUSH1 0x24 PUSH1 0x0 REVERT JUMPDEST PUSH1 0x0 PUSH1 0x2 DUP3 DIV SWAP1 POP PUSH1 0x1 DUP3 AND DUP1 PUSH3 0x5E5 JUMPI PUSH1 0x7F DUP3 AND SWAP2 POP JUMPDEST PUSH1 0x20 DUP3 LT DUP2 SUB PUSH3 0x5FB JUMPI PUSH3 0x5FA PUSH3 0x59D JUMP JUMPDEST JUMPDEST POP SWAP2 SWAP1 POP JUMP JUMPDEST PUSH1 0x0 DUP2 SWAP1 POP DUP2 PUSH1 0x0 MSTORE PUSH1 0x20 PUSH1 0x0 KECCAK256 SWAP1 POP SWAP2 SWAP1 POP JUMP JUMPDEST PUSH1 0x0 PUSH1 0x20 PUSH1 0x1F DUP4 ADD DIV SWAP1 POP SWAP2 SWAP1 POP JUMP JUMPDEST PUSH1 0x0 DUP3 DUP3 SHL SWAP1 POP SWAP3 SWAP2 POP POP JUMP JUMPDEST PUSH1 0x0 PUSH1 0x8 DUP4 MUL PUSH3 0x665 PUSH32 0xFFFFFFFFFFFFFFFFFFFFFFFFFFFFFFFFFFFFFFFFFFFFFFFFFFFFFFFFFFFFFFFF DUP3 PUSH3 0x626 JUMP JUMPDEST PUSH3 0x671 DUP7 DUP4 PUSH3 0x626 JUMP JUMPDEST SWAP6 POP DUP1 NOT DUP5 AND SWAP4 POP DUP1 DUP7 AND DUP5 OR SWAP3 POP POP POP SWAP4 SWAP3 POP POP POP JUMP JUMPDEST PUSH1 0x0 DUP2 SWAP1 POP SWAP2 SWAP1 POP JUMP JUMPDEST PUSH1 0x0 DUP2 SWAP1 POP SWAP2 SWAP1 POP JUMP JUMPDEST PUSH1 0x0 PUSH3 0x6BE PUSH3 0x6B8 PUSH3 0x6B2 DUP5 PUSH3 0x689 JUMP JUMPDEST PUSH3 0x693 JUMP JUMPDEST PUSH3 0x689 JUMP JUMPDEST SWAP1 POP SWAP2 SWAP1 POP JUMP JUMPDEST PUSH1 0x0 DUP2 SWAP1 POP SWAP2 SWAP1 POP JUMP JUMPDEST PUSH3 0x6DA DUP4 PUSH3 0x69D JUMP JUMPDEST PUSH3 0x6F2 PUSH3 0x6E9 DUP3 PUSH3 0x6C5 JUMP JUMPDEST DUP5 DUP5 SLOAD PUSH3 0x633 JUMP JUMPDEST DUP3 SSTORE POP POP POP POP JUMP JUMPDEST PUSH1 0x0 SWAP1 JUMP JUMPDEST PUSH3 0x709 PUSH3 0x6FA JUMP JUMPDEST PUSH3 0x716 DUP2 DUP5 DUP5 PUSH3 0x6CF JUMP JUMPDEST POP POP POP JUMP JUMPDEST JUMPDEST DUP2 DUP2 LT ISZERO PUSH3 0x73E JUMPI PUSH3 0x732 PUSH1 0x0 DUP3 PUSH3 0x6FF JUMP JUMPDEST PUSH1 0x1 DUP2 ADD SWAP1 POP PUSH3 0x71C JUMP JUMPDEST POP POP JUMP JUMPDEST PUSH1 0x1F DUP3 GT ISZERO PUSH3 0x78D JUMPI PUSH3 0x757 DUP2 PUSH3 0x601 JUMP JUMPDEST PUSH3 0x762 DUP5 PUSH3 0x616 JUMP JUMPDEST DUP2 ADD PUSH1 0x20 DUP6 LT ISZERO PUSH3 0x772 JUMPI DUP2 SWAP1 POP JUMPDEST PUSH3 0x78A PUSH3 0x781 DUP6 PUSH3 0x616 JUMP JUMPDEST DUP4 ADD DUP3 PUSH3 0x71B JUMP JUMPDEST POP POP JUMPDEST POP POP POP JUMP JUMPDEST PUSH1 0x0 DUP3 DUP3 SHR SWAP1 POP SWAP3 SWAP2 POP POP JUMP JUMPDEST PUSH1 0x0 PUSH3 0x7B2 PUSH1 0x0 NOT DUP5 PUSH1 0x8 MUL PUSH3 0x792 JUMP JUMPDEST NOT DUP1 DUP4 AND SWAP2 POP POP SWAP3 SWAP2 POP POP JUMP JUMPDEST PUSH1 0x0 PUSH3 0x7CD DUP4 DUP4 PUSH3 0x79F JUMP JUMPDEST SWAP2 POP DUP3 PUSH1 0x2 MUL DUP3 OR SWAP1 POP SWAP3 SWAP2 POP POP JUMP JUMPDEST PUSH3 0x7E8 DUP3 PUSH3 0x563 JUMP JUMPDEST PUSH8 0xFFFFFFFFFFFFFFFF DUP2 GT ISZERO PUSH3 0x804 JUMPI PUSH3 0x803 PUSH3 0x56E JUMP JUMPDEST JUMPDEST PUSH3 0x810 DUP3 SLOAD PUSH3 0x5CC JUMP JUMPDEST PUSH3 0x81D DUP3 DUP3 DUP6 PUSH3 0x742 JUMP JUMPDEST PUSH1 0x0 PUSH1 0x20 SWAP1 POP PUSH1 0x1F DUP4 GT PUSH1 0x1 DUP2 EQ PUSH3 0x855 JUMPI PUSH1 0x0 DUP5 ISZERO PUSH3 0x840 JUMPI DUP3 DUP8 ADD MLOAD SWAP1 POP JUMPDEST PUSH3 0x84C DUP6 DUP3 PUSH3 0x7BF JUMP JUMPDEST DUP7 SSTORE POP PUSH3 0x8BC JUMP JUMPDEST PUSH1 0x1F NOT DUP5 AND PUSH3 0x865 DUP7 PUSH3 0x601 JUMP JUMPDEST PUSH1 0x0 JUMPDEST DUP3 DUP2 LT ISZERO PUSH3 0x88F JUMPI DUP5 DUP10 ADD MLOAD DUP3 SSTORE PUSH1 0x1 DUP3 ADD SWAP2 POP PUSH1 0x20 DUP6 ADD SWAP5 POP PUSH1 0x20 DUP2 ADD SWAP1 POP PUSH3 0x868 JUMP JUMPDEST DUP7 DUP4 LT ISZERO PUSH3 0x8AF JUMPI DUP5 DUP10 ADD MLOAD PUSH3 0x8AB PUSH1 0x1F DUP10 AND DUP3 PUSH3 0x79F JUMP JUMPDEST DUP4 SSTORE POP JUMPDEST PUSH1 0x1 PUSH1 0x2 DUP9 MUL ADD DUP9 SSTORE POP POP POP JUMPDEST POP POP POP POP POP POP JUMP JUMPDEST PUSH2 0x4A06 DUP1 PUSH3 0x8D4 PUSH1 0x0 CODECOPY PUSH1 0x0 RETURN INVALID PUSH1 0x80 PUSH1 0x40 MSTORE CALLVALUE DUP1 ISZERO PUSH2 0x10 JUMPI PUSH1 0x0 DUP1 REVERT JUMPDEST POP PUSH1 0x4 CALLDATASIZE LT PUSH2 0x252 JUMPI PUSH1 0x0 CALLDATALOAD PUSH1 0xE0 SHR DUP1 PUSH4 0x68233EEF GT PUSH2 0x146 JUMPI DUP1 PUSH4 0xA217FDDF GT PUSH2 0xC3 JUMPI DUP1 PUSH4 0xCB3E1FE7 GT PUSH2 0x87 JUMPI DUP1 PUSH4 0xCB3E1FE7 EQ PUSH2 0x787 JUMPI DUP1 PUSH4 0xD547741F EQ PUSH2 0x7A5 JUMPI DUP1 PUSH4 0xD913A08B EQ PUSH2 0x7C1 JUMPI DUP1 PUSH4 0xE985E9C5 EQ PUSH2 0x7F1 JUMPI DUP1 PUSH4 0xF242432A EQ PUSH2 0x821 JUMPI DUP1 PUSH4 0xF36C8F5C EQ PUSH2 0x83D JUMPI PUSH2 0x252 JUMP JUMPDEST DUP1 PUSH4 0xA217FDDF EQ PUSH2 0x6C9 JUMPI DUP1 PUSH4 0xA22CB465 EQ PUSH2 0x6E7 JUMPI DUP1 PUSH4 0xA3B08BCE EQ PUSH2 0x703 JUMPI DUP1 PUSH4 0xB32C4D8D EQ PUSH2 0x721 JUMPI DUP1 PUSH4 0xBD85B039 EQ PUSH2 0x757 JUMPI PUSH2 0x252 JUMP JUMPDEST DUP1 PUSH4 0x91D14854 GT PUSH2 0x10A JUMPI DUP1 PUSH4 0x91D14854 EQ PUSH2 0x611 JUMPI DUP1 PUSH4 0x92A2D846 EQ PUSH2 0x641 JUMPI DUP1 PUSH4 0x933E9743 EQ PUSH2 0x671 JUMPI DUP1 PUSH4 0x93A0AC36 EQ PUSH2 0x68F JUMPI DUP1 PUSH4 0x95D89B41 EQ PUSH2 0x6AB JUMPI PUSH2 0x252 JUMP JUMPDEST DUP1 PUSH4 0x68233EEF EQ PUSH2 0x559 JUMPI DUP1 PUSH4 0x69D0B517 EQ PUSH2 0x577 JUMPI DUP1 PUSH4 0x855FD784 EQ PUSH2 0x595 JUMPI DUP1 PUSH4 0x91664369 EQ PUSH2 0x5B1 JUMPI DUP1 PUSH4 0x919956EF EQ PUSH2 0x5E1 JUMPI PUSH2 0x252 JUMP JUMPDEST DUP1 PUSH4 0x248A9CA3 GT PUSH2 0x1D4 JUMPI DUP1 PUSH4 0x4389CC22 GT PUSH2 0x198 JUMPI DUP1 PUSH4 0x4389CC22 EQ PUSH2 0x48F JUMPI DUP1 PUSH4 0x446F05BB EQ PUSH2 0x4AD JUMPI DUP1 PUSH4 0x4E1273F4 EQ PUSH2 0x4DD JUMPI DUP1 PUSH4 0x55F804B3 EQ PUSH2 0x50D JUMPI DUP1 PUSH4 0x5AC44282 EQ PUSH2 0x529 JUMPI PUSH2 0x252 JUMP JUMPDEST DUP1 PUSH4 0x248A9CA3 EQ PUSH2 0x3EF JUMPI DUP1 PUSH4 0x2EB2C2D6 EQ PUSH2 0x41F JUMPI DUP1 PUSH4 0x2F2FF15D EQ PUSH2 0x43B JUMPI DUP1 PUSH4 0x36568ABE EQ PUSH2 0x457 JUMPI DUP1 PUSH4 0x3C3A1897 EQ PUSH2 0x473 JUMPI PUSH2 0x252 JUMP JUMPDEST DUP1 PUSH4 0x6FDDE03 GT PUSH2 0x21B JUMPI DUP1 PUSH4 0x6FDDE03 EQ PUSH2 0x323 JUMPI DUP1 PUSH4 0x7FE8A8C EQ PUSH2 0x341 JUMPI DUP1 PUSH4 0xA48C3D8 EQ PUSH2 0x371 JUMPI DUP1 PUSH4 0xE89341C EQ PUSH2 0x3A1 JUMPI DUP1 PUSH4 0x1EA0004B EQ PUSH2 0x3D1 JUMPI PUSH2 0x252 JUMP JUMPDEST DUP1 PUSH3 0xFDD58E EQ PUSH2 0x257 JUMPI DUP1 PUSH4 0x1FFC9A7 EQ PUSH2 0x287 JUMPI DUP1 PUSH4 0x386A97D EQ PUSH2 0x2B7 JUMPI DUP1 PUSH4 0x55E3282 EQ PUSH2 0x2D5 JUMPI DUP1 PUSH4 0x6A36AEE EQ PUSH2 0x2F3 JUMPI JUMPDEST PUSH1 0x0 DUP1 REVERT JUMPDEST PUSH2 0x271 PUSH1 0x4 DUP1 CALLDATASIZE SUB DUP2 ADD SWAP1 PUSH2 0x26C SWAP2 SWAP1 PUSH2 0x32F1 JUMP JUMPDEST PUSH2 0x85B JUMP JUMPDEST PUSH1 0x40 MLOAD PUSH2 0x27E SWAP2 SWAP1 PUSH2 0x3340 JUMP JUMPDEST PUSH1 0x40 MLOAD DUP1 SWAP2 SUB SWAP1 RETURN JUMPDEST PUSH2 0x2A1 PUSH1 0x4 DUP1 CALLDATASIZE SUB DUP2 ADD SWAP1 PUSH2 0x29C SWAP2 SWAP1 PUSH2 0x33B3 JUMP JUMPDEST PUSH2 0x8B5 JUMP JUMPDEST PUSH1 0x40 MLOAD PUSH2 0x2AE SWAP2 SWAP1 PUSH2 0x33FB JUMP JUMPDEST PUSH1 0x40 MLOAD DUP1 SWAP2 SUB SWAP1 RETURN JUMPDEST PUSH2 0x2BF PUSH2 0x8C7 JUMP JUMPDEST PUSH1 0x40 MLOAD PUSH2 0x2CC SWAP2 SWAP1 PUSH2 0x342F JUMP JUMPDEST PUSH1 0x40 MLOAD DUP1 SWAP2 SUB SWAP1 RETURN JUMPDEST PUSH2 0x2DD PUSH2 0x8EB JUMP JUMPDEST PUSH1 0x40 MLOAD PUSH2 0x2EA SWAP2 SWAP1 PUSH2 0x3340 JUMP JUMPDEST PUSH1 0x40 MLOAD DUP1 SWAP2 SUB SWAP1 RETURN JUMPDEST PUSH2 0x30D PUSH1 0x4 DUP1 CALLDATASIZE SUB DUP2 ADD SWAP1 PUSH2 0x308 SWAP2 SWAP1 PUSH2 0x344A JUMP JUMPDEST PUSH2 0x8F0 JUMP JUMPDEST PUSH1 0x40 MLOAD PUSH2 0x31A SWAP2 SWAP1 PUSH2 0x35C9 JUMP JUMPDEST PUSH1 0x40 MLOAD DUP1 SWAP2 SUB SWAP1 RETURN JUMPDEST PUSH2 0x32B PUSH2 0xBB2 JUMP JUMPDEST PUSH1 0x40 MLOAD PUSH2 0x338 SWAP2 SWAP1 PUSH2 0x3635 JUMP JUMPDEST PUSH1 0x40 MLOAD DUP1 SWAP2 SUB SWAP1 RETURN JUMPDEST PUSH2 0x35B PUSH1 0x4 DUP1 CALLDATASIZE SUB DUP2 ADD SWAP1 PUSH2 0x356 SWAP2 SWAP1 PUSH2 0x3657 JUMP JUMPDEST PUSH2 0xC40 JUMP JUMPDEST PUSH1 0x40 MLOAD PUSH2 0x368 SWAP2 SWAP1 PUSH2 0x3635 JUMP JUMPDEST PUSH1 0x40 MLOAD DUP1 SWAP2 SUB SWAP1 RETURN JUMPDEST PUSH2 0x38B PUSH1 0x4 DUP1 CALLDATASIZE SUB DUP2 ADD SWAP1 PUSH2 0x386 SWAP2 SWAP1 PUSH2 0x3657 JUMP JUMPDEST PUSH2 0xE2E JUMP JUMPDEST PUSH1 0x40 MLOAD PUSH2 0x398 SWAP2 SWAP1 PUSH2 0x3340 JUMP JUMPDEST PUSH1 0x40 MLOAD DUP1 SWAP2 SUB SWAP1 RETURN JUMPDEST PUSH2 0x3BB PUSH1 0x4 DUP1 CALLDATASIZE SUB DUP2 ADD SWAP1 PUSH2 0x3B6 SWAP2 SWAP1 PUSH2 0x3657 JUMP JUMPDEST PUSH2 0xE46 JUMP JUMPDEST PUSH1 0x40 MLOAD PUSH2 0x3C8 SWAP2 SWAP1 PUSH2 0x3635 JUMP JUMPDEST PUSH1 0x40 MLOAD DUP1 SWAP2 SUB SWAP1 RETURN JUMPDEST PUSH2 0x3D9 PUSH2 0xE7A JUMP JUMPDEST PUSH1 0x40 MLOAD PUSH2 0x3E6 SWAP2 SWAP1 PUSH2 0x3340 JUMP JUMPDEST PUSH1 0x40 MLOAD DUP1 SWAP2 SUB SWAP1 RETURN JUMPDEST PUSH2 0x409 PUSH1 0x4 DUP1 CALLDATASIZE SUB DUP2 ADD SWAP1 PUSH2 0x404 SWAP2 SWAP1 PUSH2 0x36B0 JUMP JUMPDEST PUSH2 0xE7F JUMP JUMPDEST PUSH1 0x40 MLOAD PUSH2 0x416 SWAP2 SWAP1 PUSH2 0x342F JUMP JUMPDEST PUSH1 0x40 MLOAD DUP1 SWAP2 SUB SWAP1 RETURN JUMPDEST PUSH2 0x439 PUSH1 0x4 DUP1 CALLDATASIZE SUB DUP2 ADD SWAP1 PUSH2 0x434 SWAP2 SWAP1 PUSH2 0x38DA JUMP JUMPDEST PUSH2 0xE9F JUMP JUMPDEST STOP JUMPDEST PUSH2 0x455 PUSH1 0x4 DUP1 CALLDATASIZE SUB DUP2 ADD SWAP1 PUSH2 0x450 SWAP2 SWAP1 PUSH2 0x39A9 JUMP JUMPDEST PUSH2 0xF47 JUMP JUMPDEST STOP JUMPDEST PUSH2 0x471 PUSH1 0x4 DUP1 CALLDATASIZE SUB DUP2 ADD SWAP1 PUSH2 0x46C SWAP2 SWAP1 PUSH2 0x39A9 JUMP JUMPDEST PUSH2 0xF81 JUMP JUMPDEST STOP JUMPDEST PUSH2 0x48D PUSH1 0x4 DUP1 CALLDATASIZE SUB DUP2 ADD SWAP1 PUSH2 0x488 SWAP2 SWAP1 PUSH2 0x39E9 JUMP JUMPDEST PUSH2 0xFFC JUMP JUMPDEST STOP JUMPDEST PUSH2 0x497 PUSH2 0x11F4 JUMP JUMPDEST PUSH1 0x40 MLOAD PUSH2 0x4A4 SWAP2 SWAP1 PUSH2 0x342F JUMP JUMPDEST PUSH1 0x40 MLOAD DUP1 SWAP2 SUB SWAP1 RETURN JUMPDEST PUSH2 0x4C7 PUSH1 0x4 DUP1 CALLDATASIZE SUB DUP2 ADD SWAP1 PUSH2 0x4C2 SWAP2 SWAP1 PUSH2 0x32F1 JUMP JUMPDEST PUSH2 0x1218 JUMP JUMPDEST PUSH1 0x40 MLOAD PUSH2 0x4D4 SWAP2 SWAP1 PUSH2 0x3340 JUMP JUMPDEST PUSH1 0x40 MLOAD DUP1 SWAP2 SUB SWAP1 RETURN JUMPDEST PUSH2 0x4F7 PUSH1 0x4 DUP1 CALLDATASIZE SUB DUP2 ADD SWAP1 PUSH2 0x4F2 SWAP2 SWAP1 PUSH2 0x3AFF JUMP JUMPDEST PUSH2 0x122C JUMP JUMPDEST PUSH1 0x40 MLOAD PUSH2 0x504 SWAP2 SWAP1 PUSH2 0x3C35 JUMP JUMPDEST PUSH1 0x40 MLOAD DUP1 SWAP2 SUB SWAP1 RETURN JUMPDEST PUSH2 0x527 PUSH1 0x4 DUP1 CALLDATASIZE SUB DUP2 ADD SWAP1 PUSH2 0x522 SWAP2 SWAP1 PUSH2 0x3CF8 JUMP JUMPDEST PUSH2 0x133B JUMP JUMPDEST STOP JUMPDEST PUSH2 0x543 PUSH1 0x4 DUP1 CALLDATASIZE SUB DUP2 ADD SWAP1 PUSH2 0x53E SWAP2 SWAP1 PUSH2 0x3657 JUMP JUMPDEST PUSH2 0x1379 JUMP JUMPDEST PUSH1 0x40 MLOAD PUSH2 0x550 SWAP2 SWAP1 PUSH2 0x3DFC JUMP JUMPDEST PUSH1 0x40 MLOAD DUP1 SWAP2 SUB SWAP1 RETURN JUMPDEST PUSH2 0x561 PUSH2 0x14AC JUMP JUMPDEST PUSH1 0x40 MLOAD PUSH2 0x56E SWAP2 SWAP1 PUSH2 0x3340 JUMP JUMPDEST PUSH1 0x40 MLOAD DUP1 SWAP2 SUB SWAP1 RETURN JUMPDEST PUSH2 0x57F PUSH2 0x14B2 JUMP JUMPDEST PUSH1 0x40 MLOAD PUSH2 0x58C SWAP2 SWAP1 PUSH2 0x342F JUMP JUMPDEST PUSH1 0x40 MLOAD DUP1 SWAP2 SUB SWAP1 RETURN JUMPDEST PUSH2 0x5AF PUSH1 0x4 DUP1 CALLDATASIZE SUB DUP2 ADD SWAP1 PUSH2 0x5AA SWAP2 SWAP1 PUSH2 0x3E17 JUMP JUMPDEST PUSH2 0x14D6 JUMP JUMPDEST STOP JUMPDEST PUSH2 0x5CB PUSH1 0x4 DUP1 CALLDATASIZE SUB DUP2 ADD SWAP1 PUSH2 0x5C6 SWAP2 SWAP1 PUSH2 0x3657 JUMP JUMPDEST PUSH2 0x16D6 JUMP JUMPDEST PUSH1 0x40 MLOAD PUSH2 0x5D8 SWAP2 SWAP1 PUSH2 0x3340 JUMP JUMPDEST PUSH1 0x40 MLOAD DUP1 SWAP2 SUB SWAP1 RETURN JUMPDEST PUSH2 0x5FB PUSH1 0x4 DUP1 CALLDATASIZE SUB DUP2 ADD SWAP1 PUSH2 0x5F6 SWAP2 SWAP1 PUSH2 0x3657 JUMP JUMPDEST PUSH2 0x16F3 JUMP JUMPDEST PUSH1 0x40 MLOAD PUSH2 0x608 SWAP2 SWAP1 PUSH2 0x3340 JUMP JUMPDEST PUSH1 0x40 MLOAD DUP1 SWAP2 SUB SWAP1 RETURN JUMPDEST PUSH2 0x62B PUSH1 0x4 DUP1 CALLDATASIZE SUB DUP2 ADD SWAP1 PUSH2 0x626 SWAP2 SWAP1 PUSH2 0x39A9 JUMP JUMPDEST PUSH2 0x170B JUMP JUMPDEST PUSH1 0x40 MLOAD PUSH2 0x638 SWAP2 SWAP1 PUSH2 0x33FB JUMP JUMPDEST PUSH1 0x40 MLOAD DUP1 SWAP2 SUB SWAP1 RETURN JUMPDEST PUSH2 0x65B PUSH1 0x4 DUP1 CALLDATASIZE SUB DUP2 ADD SWAP1 PUSH2 0x656 SWAP2 SWAP1 PUSH2 0x3E17 JUMP JUMPDEST PUSH2 0x171F JUMP JUMPDEST PUSH1 0x40 MLOAD PUSH2 0x668 SWAP2 SWAP1 PUSH2 0x3340 JUMP JUMPDEST PUSH1 0x40 MLOAD DUP1 SWAP2 SUB SWAP1 RETURN JUMPDEST PUSH2 0x679 PUSH2 0x1924 JUMP JUMPDEST PUSH1 0x40 MLOAD PUSH2 0x686 SWAP2 SWAP1 PUSH2 0x3340 JUMP JUMPDEST PUSH1 0x40 MLOAD DUP1 SWAP2 SUB SWAP1 RETURN JUMPDEST PUSH2 0x6A9 PUSH1 0x4 DUP1 CALLDATASIZE SUB DUP2 ADD SWAP1 PUSH2 0x6A4 SWAP2 SWAP1 PUSH2 0x3E57 JUMP JUMPDEST PUSH2 0x1929 JUMP JUMPDEST STOP JUMPDEST PUSH2 0x6B3 PUSH2 0x1A60 JUMP JUMPDEST PUSH1 0x40 MLOAD PUSH2 0x6C0 SWAP2 SWAP1 PUSH2 0x3635 JUMP JUMPDEST PUSH1 0x40 MLOAD DUP1 SWAP2 SUB SWAP1 RETURN JUMPDEST PUSH2 0x6D1 PUSH2 0x1AEE JUMP JUMPDEST PUSH1 0x40 MLOAD PUSH2 0x6DE SWAP2 SWAP1 PUSH2 0x342F JUMP JUMPDEST PUSH1 0x40 MLOAD DUP1 SWAP2 SUB SWAP1 RETURN JUMPDEST PUSH2 0x701 PUSH1 0x4 DUP1 CALLDATASIZE SUB DUP2 ADD SWAP1 PUSH2 0x6FC SWAP2 SWAP1 PUSH2 0x3EEA JUMP JUMPDEST PUSH2 0x1AF5 JUMP JUMPDEST STOP JUMPDEST PUSH2 0x70B PUSH2 0x1B0B JUMP JUMPDEST PUSH1 0x40 MLOAD PUSH2 0x718 SWAP2 SWAP1 PUSH2 0x342F JUMP JUMPDEST PUSH1 0x40 MLOAD DUP1 SWAP2 SUB SWAP1 RETURN JUMPDEST PUSH2 0x73B PUSH1 0x4 DUP1 CALLDATASIZE SUB DUP2 ADD SWAP1 PUSH2 0x736 SWAP2 SWAP1 PUSH2 0x3657 JUMP JUMPDEST PUSH2 0x1B2F JUMP JUMPDEST PUSH1 0x40 MLOAD PUSH2 0x74E SWAP8 SWAP7 SWAP6 SWAP5 SWAP4 SWAP3 SWAP2 SWAP1 PUSH2 0x3F39 JUMP JUMPDEST PUSH1 0x40 MLOAD DUP1 SWAP2 SUB SWAP1 RETURN JUMPDEST PUSH2 0x771 PUSH1 0x4 DUP1 CALLDATASIZE SUB DUP2 ADD SWAP1 PUSH2 0x76C SWAP2 SWAP1 PUSH2 0x3657 JUMP JUMPDEST PUSH2 0x1B9E JUMP JUMPDEST PUSH1 0x40 MLOAD PUSH2 0x77E SWAP2 SWAP1 PUSH2 0x3340 JUMP JUMPDEST PUSH1 0x40 MLOAD DUP1 SWAP2 SUB SWAP1 RETURN JUMPDEST PUSH2 0x78F PUSH2 0x1BB6 JUMP JUMPDEST PUSH1 0x40 MLOAD PUSH2 0x79C SWAP2 SWAP1 PUSH2 0x342F JUMP JUMPDEST PUSH1 0x40 MLOAD DUP1 SWAP2 SUB SWAP1 RETURN JUMPDEST PUSH2 0x7BF PUSH1 0x4 DUP1 CALLDATASIZE SUB DUP2 ADD SWAP1 PUSH2 0x7BA SWAP2 SWAP1 PUSH2 0x39A9 JUMP JUMPDEST PUSH2 0x1BDA JUMP JUMPDEST STOP JUMPDEST PUSH2 0x7DB PUSH1 0x4 DUP1 CALLDATASIZE SUB DUP2 ADD SWAP1 PUSH2 0x7D6 SWAP2 SWAP1 PUSH2 0x344A JUMP JUMPDEST PUSH2 0x1C14 JUMP JUMPDEST PUSH1 0x40 MLOAD PUSH2 0x7E8 SWAP2 SWAP1 PUSH2 0x3C35 JUMP JUMPDEST PUSH1 0x40 MLOAD DUP1 SWAP2 SUB SWAP1 RETURN JUMPDEST PUSH2 0x80B PUSH1 0x4 DUP1 CALLDATASIZE SUB DUP2 ADD SWAP1 PUSH2 0x806 SWAP2 SWAP1 PUSH2 0x3FA8 JUMP JUMPDEST PUSH2 0x1D1A JUMP JUMPDEST PUSH1 0x40 MLOAD PUSH2 0x818 SWAP2 SWAP1 PUSH2 0x33FB JUMP JUMPDEST PUSH1 0x40 MLOAD DUP1 SWAP2 SUB SWAP1 RETURN JUMPDEST PUSH2 0x83B PUSH1 0x4 DUP1 CALLDATASIZE SUB DUP2 ADD SWAP1 PUSH2 0x836 SWAP2 SWAP1 PUSH2 0x3FE8 JUMP JUMPDEST PUSH2 0x1DAE JUMP JUMPDEST STOP JUMPDEST PUSH2 0x845 PUSH2 0x1E56 JUMP JUMPDEST PUSH1 0x40 MLOAD PUSH2 0x852 SWAP2 SWAP1 PUSH2 0x342F JUMP JUMPDEST PUSH1 0x40 MLOAD DUP1 SWAP2 SUB SWAP1 RETURN JUMPDEST PUSH1 0x0 DUP1 PUSH1 0x0 DUP4 DUP2 MSTORE PUSH1 0x20 ADD SWAP1 DUP2 MSTORE PUSH1 0x20 ADD PUSH1 0x0 KECCAK256 PUSH1 0x0 DUP5 PUSH20 0xFFFFFFFFFFFFFFFFFFFFFFFFFFFFFFFFFFFFFFFF AND PUSH20 0xFFFFFFFFFFFFFFFFFFFFFFFFFFFFFFFFFFFFFFFF AND DUP2 MSTORE PUSH1 0x20 ADD SWAP1 DUP2 MSTORE PUSH1 0x20 ADD PUSH1 0x0 KECCAK256 SLOAD SWAP1 POP SWAP3 SWAP2 POP POP JUMP JUMPDEST PUSH1 0x0 PUSH2 0x8C0 DUP3 PUSH2 0x1E7A JUMP JUMPDEST SWAP1 POP SWAP2 SWAP1 POP JUMP JUMPDEST PUSH32 0xE2613DA3F93FB28F9EEFB62314CD4916001363CED4413A9FB328C4F14BA7362 DUP2 JUMP JUMPDEST PUSH1 0x2 DUP2 JUMP JUMPDEST PUSH1 0x60 PUSH1 0x0 PUSH1 0x3 PUSH8 0xFFFFFFFFFFFFFFFF DUP2 GT ISZERO PUSH2 0x90F JUMPI PUSH2 0x90E PUSH2 0x36E2 JUMP JUMPDEST JUMPDEST PUSH1 0x40 MLOAD SWAP1 DUP1 DUP3 MSTORE DUP1 PUSH1 0x20 MUL PUSH1 0x20 ADD DUP3 ADD PUSH1 0x40 MSTORE DUP1 ISZERO PUSH2 0x942 JUMPI DUP2 PUSH1 0x20 ADD JUMPDEST PUSH1 0x60 DUP2 MSTORE PUSH1 0x20 ADD SWAP1 PUSH1 0x1 SWAP1 SUB SWAP1 DUP2 PUSH2 0x92D JUMPI SWAP1 POP JUMPDEST POP SWAP1 POP PUSH1 0x0 PUSH2 0x971 PUSH32 0x71840DC4906352362B0CDAF79870196C8E42ACAFADE72D5D5A6D59291253CEB1 DUP6 PUSH2 0x170B JUMP JUMPDEST ISZERO PUSH2 0x9D9 JUMPI PUSH1 0x40 MLOAD DUP1 PUSH1 0x40 ADD PUSH1 0x40 MSTORE DUP1 PUSH1 0xA DUP2 MSTORE PUSH1 0x20 ADD PUSH32 0x476F7665726E616E636500000000000000000000000000000000000000000000 DUP2 MSTORE POP DUP3 DUP3 DUP2 MLOAD DUP2 LT PUSH2 0x9BF JUMPI PUSH2 0x9BE PUSH2 0x407F JUMP JUMPDEST JUMPDEST PUSH1 0x20 MUL PUSH1 0x20 ADD ADD DUP2 SWAP1 MSTORE POP DUP1 DUP1 PUSH2 0x9D5 SWAP1 PUSH2 0x40DD JUMP JUMPDEST SWAP2 POP POP JUMPDEST PUSH2 0xA03 PUSH32 0x65CB1D8422CDF0328F26B49E42E9F4524474C431DA623CBE0EA455F1B67C9F77 DUP6 PUSH2 0x170B JUMP JUMPDEST ISZERO PUSH2 0xA6B JUMPI PUSH1 0x40 MLOAD DUP1 PUSH1 0x40 ADD PUSH1 0x40 MSTORE DUP1 PUSH1 0x9 DUP2 MSTORE PUSH1 0x20 ADD PUSH32 0x4365727469666965720000000000000000000000000000000000000000000000 DUP2 MSTORE POP DUP3 DUP3 DUP2 MLOAD DUP2 LT PUSH2 0xA51 JUMPI PUSH2 0xA50 PUSH2 0x407F JUMP JUMPDEST JUMPDEST PUSH1 0x20 MUL PUSH1 0x20 ADD ADD DUP2 SWAP1 MSTORE POP DUP1 DUP1 PUSH2 0xA67 SWAP1 PUSH2 0x40DD JUMP JUMPDEST SWAP2 POP POP JUMPDEST PUSH2 0xA95 PUSH32 0x8EB467F061CA67F42A2D2CA4A346FC9FB645EFC0BA75056EE9F71C3A0CCC10A8 DUP6 PUSH2 0x170B JUMP JUMPDEST ISZERO PUSH2 0xAFD JUMPI PUSH1 0x40 MLOAD DUP1 PUSH1 0x40 ADD PUSH1 0x40 MSTORE DUP1 PUSH1 0x8 DUP2 MSTORE PUSH1 0x20 ADD PUSH32 0x50726F6475636572000000000000000000000000000000000000000000000000 DUP2 MSTORE POP DUP3 DUP3 DUP2 MLOAD DUP2 LT PUSH2 0xAE3 JUMPI PUSH2 0xAE2 PUSH2 0x407F JUMP JUMPDEST JUMPDEST PUSH1 0x20 MUL PUSH1 0x20 ADD ADD DUP2 SWAP1 MSTORE POP DUP1 DUP1 PUSH2 0xAF9 SWAP1 PUSH2 0x40DD JUMP JUMPDEST SWAP2 POP POP JUMPDEST PUSH1 0x0 DUP2 PUSH8 0xFFFFFFFFFFFFFFFF DUP2 GT ISZERO PUSH2 0xB19 JUMPI PUSH2 0xB18 PUSH2 0x36E2 JUMP JUMPDEST JUMPDEST PUSH1 0x40 MLOAD SWAP1 DUP1 DUP3 MSTORE DUP1 PUSH1 0x20 MUL PUSH1 0x20 ADD DUP3 ADD PUSH1 0x40 MSTORE DUP1 ISZERO PUSH2 0xB4C JUMPI DUP2 PUSH1 0x20 ADD JUMPDEST PUSH1 0x60 DUP2 MSTORE PUSH1 0x20 ADD SWAP1 PUSH1 0x1 SWAP1 SUB SWAP1 DUP2 PUSH2 0xB37 JUMPI SWAP1 POP JUMPDEST POP SWAP1 POP PUSH1 0x0 JUMPDEST DUP3 DUP2 LT ISZERO PUSH2 0xBA6 JUMPI DUP4 DUP2 DUP2 MLOAD DUP2 LT PUSH2 0xB6D JUMPI PUSH2 0xB6C PUSH2 0x407F JUMP JUMPDEST JUMPDEST PUSH1 0x20 MUL PUSH1 0x20 ADD ADD MLOAD DUP3 DUP3 DUP2 MLOAD DUP2 LT PUSH2 0xB88 JUMPI PUSH2 0xB87 PUSH2 0x407F JUMP JUMPDEST JUMPDEST PUSH1 0x20 MUL PUSH1 0x20 ADD ADD DUP2 SWAP1 MSTORE POP DUP1 DUP1 PUSH2 0xB9E SWAP1 PUSH2 0x40DD JUMP JUMPDEST SWAP2 POP POP PUSH2 0xB52 JUMP JUMPDEST POP DUP1 SWAP4 POP POP POP POP SWAP2 SWAP1 POP JUMP JUMPDEST PUSH1 0x4 DUP1 SLOAD PUSH2 0xBBF SWAP1 PUSH2 0x4154 JUMP JUMPDEST DUP1 PUSH1 0x1F ADD PUSH1 0x20 DUP1 SWAP2 DIV MUL PUSH1 0x20 ADD PUSH1 0x40 MLOAD SWAP1 DUP2 ADD PUSH1 0x40 MSTORE DUP1 SWAP3 SWAP2 SWAP1 DUP2 DUP2 MSTORE PUSH1 0x20 ADD DUP3 DUP1 SLOAD PUSH2 0xBEB SWAP1 PUSH2 0x4154 JUMP JUMPDEST DUP1 ISZERO PUSH2 0xC38 JUMPI DUP1 PUSH1 0x1F LT PUSH2 0xC0D JUMPI PUSH2 0x100 DUP1 DUP4 SLOAD DIV MUL DUP4 MSTORE SWAP2 PUSH1 0x20 ADD SWAP2 PUSH2 0xC38 JUMP JUMPDEST DUP3 ADD SWAP2 SWAP1 PUSH1 0x0 MSTORE PUSH1 0x20 PUSH1 0x0 KECCAK256 SWAP1 JUMPDEST DUP2 SLOAD DUP2 MSTORE SWAP1 PUSH1 0x1 ADD SWAP1 PUSH1 0x20 ADD DUP1 DUP4 GT PUSH2 0xC1B JUMPI DUP3 SWAP1 SUB PUSH1 0x1F AND DUP3 ADD SWAP2 JUMPDEST POP POP POP POP POP DUP2 JUMP JUMPDEST PUSH1 0x60 PUSH1 0xA PUSH1 0x0 DUP4 DUP2 MSTORE PUSH1 0x20 ADD SWAP1 DUP2 MSTORE PUSH1 0x20 ADD PUSH1 0x0 KECCAK256 PUSH1 0x5 ADD PUSH1 0x14 SWAP1 SLOAD SWAP1 PUSH2 0x100 EXP SWAP1 DIV PUSH1 0xFF AND PUSH2 0xCA5 JUMPI PUSH1 0x40 MLOAD PUSH32 0x8C379A000000000000000000000000000000000000000000000000000000000 DUP2 MSTORE PUSH1 0x4 ADD PUSH2 0xC9C SWAP1 PUSH2 0x41D1 JUMP JUMPDEST PUSH1 0x40 MLOAD DUP1 SWAP2 SUB SWAP1 REVERT JUMPDEST PUSH1 0x0 PUSH1 0xA PUSH1 0x0 DUP5 DUP2 MSTORE PUSH1 0x20 ADD SWAP1 DUP2 MSTORE PUSH1 0x20 ADD PUSH1 0x0 KECCAK256 PUSH1 0x4 ADD SLOAD SWAP1 POP PUSH32 0xF07B88471CD28DC438F2291190512BD968FBD79B8C86B9ED015E51C1261D911F DUP2 SUB PUSH2 0xD25 JUMPI PUSH1 0x40 MLOAD DUP1 PUSH1 0x40 ADD PUSH1 0x40 MSTORE DUP1 PUSH1 0x6 DUP2 MSTORE PUSH1 0x20 ADD PUSH32 0x4163746976650000000000000000000000000000000000000000000000000000 DUP2 MSTORE POP SWAP2 POP POP PUSH2 0xE29 JUMP JUMPDEST PUSH32 0xE2613DA3F93FB28F9EEFB62314CD4916001363CED4413A9FB328C4F14BA7362 DUP2 SUB PUSH2 0xD8A JUMPI PUSH1 0x40 MLOAD DUP1 PUSH1 0x40 ADD PUSH1 0x40 MSTORE DUP1 PUSH1 0x7 DUP2 MSTORE PUSH1 0x20 ADD PUSH32 0x5061727469616C00000000000000000000000000000000000000000000000000 DUP2 MSTORE POP SWAP2 POP POP PUSH2 0xE29 JUMP JUMPDEST PUSH32 0xDBBF985AE41A60C90D9CCF8FD67956FFC89C51F508B27F75422C733B6BD8A480 DUP2 SUB PUSH2 0xDEF JUMPI PUSH1 0x40 MLOAD DUP1 PUSH1 0x40 ADD PUSH1 0x40 MSTORE DUP1 PUSH1 0x7 DUP2 MSTORE PUSH1 0x20 ADD PUSH32 0x5265746972656400000000000000000000000000000000000000000000000000 DUP2 MSTORE POP SWAP2 POP POP PUSH2 0xE29 JUMP JUMPDEST PUSH1 0x40 MLOAD DUP1 PUSH1 0x40 ADD PUSH1 0x40 MSTORE DUP1 PUSH1 0x7 DUP2 MSTORE PUSH1 0x20 ADD PUSH32 0x556E6B6E6F776E00000000000000000000000000000000000000000000000000 DUP2 MSTORE POP SWAP2 POP POP JUMPDEST SWAP2 SWAP1 POP JUMP JUMPDEST PUSH1 0x9 PUSH1 0x20 MSTORE DUP1 PUSH1 0x0 MSTORE PUSH1 0x40 PUSH1 0x0 KECCAK256 PUSH1 0x0 SWAP2 POP SWAP1 POP SLOAD DUP2 JUMP JUMPDEST PUSH1 0x60 PUSH1 0x6 PUSH2 0xE53 DUP4 PUSH2 0x1EF4 JUMP JUMPDEST PUSH1 0x40 MLOAD PUSH1 0x20 ADD PUSH2 0xE64 SWAP3 SWAP2 SWAP1 PUSH2 0x42C5 JUMP JUMPDEST PUSH1 0x40 MLOAD PUSH1 0x20 DUP2 DUP4 SUB SUB DUP2 MSTORE SWAP1 PUSH1 0x40 MSTORE SWAP1 POP SWAP2 SWAP1 POP JUMP JUMPDEST PUSH1 0x3 DUP2 JUMP JUMPDEST PUSH1 0x0 PUSH1 0x3 PUSH1 0x0 DUP4 DUP2 MSTORE PUSH1 0x20 ADD SWAP1 DUP2 MSTORE PUSH1 0x20 ADD PUSH1 0x0 KECCAK256 PUSH1 0x1 ADD SLOAD SWAP1 POP SWAP2 SWAP1 POP JUMP JUMPDEST PUSH1 0x0 PUSH2 0xEA9 PUSH2 0x1FC2 JUMP JUMPDEST SWAP1 POP DUP1 PUSH20 0xFFFFFFFFFFFFFFFFFFFFFFFFFFFFFFFFFFFFFFFF AND DUP7 PUSH20 0xFFFFFFFFFFFFFFFFFFFFFFFFFFFFFFFFFFFFFFFF AND EQ ISZERO DUP1 ISZERO PUSH2 0xEEE JUMPI POP PUSH2 0xEEC DUP7 DUP3 PUSH2 0x1D1A JUMP JUMPDEST ISZERO JUMPDEST ISZERO PUSH2 0xF32 JUMPI DUP1 DUP7 PUSH1 0x40 MLOAD PUSH32 0xE237D92200000000000000000000000000000000000000000000000000000000 DUP2 MSTORE PUSH1 0x4 ADD PUSH2 0xF29 SWAP3 SWAP2 SWAP1 PUSH2 0x42E9 JUMP JUMPDEST PUSH1 0x40 MLOAD DUP1 SWAP2 SUB SWAP1 REVERT JUMPDEST PUSH2 0xF3F DUP7 DUP7 DUP7 DUP7 DUP7 PUSH2 0x1FCA JUMP JUMPDEST POP POP POP POP POP POP JUMP JUMPDEST PUSH32 0x71840DC4906352362B0CDAF79870196C8E42ACAFADE72D5D5A6D59291253CEB1 PUSH2 0xF71 DUP2 PUSH2 0x20C2 JUMP JUMPDEST PUSH2 0xF7B DUP4 DUP4 PUSH2 0x20D6 JUMP JUMPDEST POP POP POP POP JUMP JUMPDEST PUSH2 0xF89 PUSH2 0x1FC2 JUMP JUMPDEST PUSH20 0xFFFFFFFFFFFFFFFFFFFFFFFFFFFFFFFFFFFFFFFF AND DUP2 PUSH20 0xFFFFFFFFFFFFFFFFFFFFFFFFFFFFFFFFFFFFFFFF AND EQ PUSH2 0xFED JUMPI PUSH1 0x40 MLOAD PUSH32 0x6697B23200000000000000000000000000000000000000000000000000000000 DUP2 MSTORE PUSH1 0x4 ADD PUSH1 0x40 MLOAD DUP1 SWAP2 SUB SWAP1 REVERT JUMPDEST PUSH2 0xFF7 DUP3 DUP3 PUSH2 0x21C8 JUMP JUMPDEST POP POP POP JUMP JUMPDEST PUSH32 0x71840DC4906352362B0CDAF79870196C8E42ACAFADE72D5D5A6D59291253CEB1 PUSH2 0x1026 DUP2 PUSH2 0x20C2 JUMP JUMPDEST PUSH1 0xA PUSH1 0x0 DUP6 DUP2 MSTORE PUSH1 0x20 ADD SWAP1 DUP2 MSTORE PUSH1 0x20 ADD PUSH1 0x0 KECCAK256 PUSH1 0x5 ADD PUSH1 0x14 SWAP1 SLOAD SWAP1 PUSH2 0x100 EXP SWAP1 DIV PUSH1 0xFF AND PUSH2 0x1089 JUMPI PUSH1 0x40 MLOAD PUSH32 0x8C379A000000000000000000000000000000000000000000000000000000000 DUP2 MSTORE PUSH1 0x4 ADD PUSH2 0x1080 SWAP1 PUSH2 0x41D1 JUMP JUMPDEST PUSH1 0x40 MLOAD DUP1 SWAP2 SUB SWAP1 REVERT JUMPDEST PUSH32 0xF07B88471CD28DC438F2291190512BD968FBD79B8C86B9ED015E51C1261D911F PUSH1 0xA PUSH1 0x0 DUP7 DUP2 MSTORE PUSH1 0x20 ADD SWAP1 DUP2 MSTORE PUSH1 0x20 ADD PUSH1 0x0 KECCAK256 PUSH1 0x4 ADD SLOAD EQ PUSH2 0x1101 JUMPI PUSH1 0x40 MLOAD PUSH32 0x8C379A000000000000000000000000000000000000000000000000000000000 DUP2 MSTORE PUSH1 0x4 ADD PUSH2 0x10F8 SWAP1 PUSH2 0x435E JUMP JUMPDEST PUSH1 0x40 MLOAD DUP1 SWAP2 SUB SWAP1 REVERT JUMPDEST PUSH1 0xA PUSH1 0x0 DUP6 DUP2 MSTORE PUSH1 0x20 ADD SWAP1 DUP2 MSTORE PUSH1 0x20 ADD PUSH1 0x0 KECCAK256 PUSH1 0x2 ADD SLOAD DUP3 GT ISZERO PUSH2 0x115A JUMPI PUSH1 0x40 MLOAD PUSH32 0x8C379A000000000000000000000000000000000000000000000000000000000 DUP2 MSTORE PUSH1 0x4 ADD PUSH2 0x1151 SWAP1 PUSH2 0x43CA JUMP JUMPDEST PUSH1 0x40 MLOAD DUP1 SWAP2 SUB SWAP1 REVERT JUMPDEST PUSH2 0x1175 DUP4 DUP6 DUP5 PUSH1 0x40 MLOAD DUP1 PUSH1 0x20 ADD PUSH1 0x40 MSTORE DUP1 PUSH1 0x0 DUP2 MSTORE POP PUSH2 0x22BB JUMP JUMPDEST DUP2 PUSH1 0x8 PUSH1 0x0 DUP7 DUP2 MSTORE PUSH1 0x20 ADD SWAP1 DUP2 MSTORE PUSH1 0x20 ADD PUSH1 0x0 KECCAK256 PUSH1 0x0 DUP3 DUP3 SLOAD PUSH2 0x1198 SWAP2 SWAP1 PUSH2 0x43EA JUMP JUMPDEST SWAP3 POP POP DUP2 SWAP1 SSTORE POP DUP3 PUSH20 0xFFFFFFFFFFFFFFFFFFFFFFFFFFFFFFFFFFFFFFFF AND DUP5 PUSH32 0x6437EDC6222BC3B01FD946EA7B36242878AEF9A533AA8815121BB23DC0A7438 DUP5 PUSH1 0x40 MLOAD PUSH2 0x11E6 SWAP2 SWAP1 PUSH2 0x3340 JUMP JUMPDEST PUSH1 0x40 MLOAD DUP1 SWAP2 SUB SWAP1 LOG3 POP POP POP POP JUMP JUMPDEST PUSH32 0xF07B88471CD28DC438F2291190512BD968FBD79B8C86B9ED015E51C1261D911F DUP2 JUMP JUMPDEST PUSH1 0x0 PUSH2 0x1224 DUP4 DUP4 PUSH2 0x85B JUMP JUMPDEST SWAP1 POP SWAP3 SWAP2 POP POP JUMP JUMPDEST PUSH1 0x60 DUP2 MLOAD DUP4 MLOAD EQ PUSH2 0x1278 JUMPI DUP2 MLOAD DUP4 MLOAD PUSH1 0x40 MLOAD PUSH32 0x5B05999100000000000000000000000000000000000000000000000000000000 DUP2 MSTORE PUSH1 0x4 ADD PUSH2 0x126F SWAP3 SWAP2 SWAP1 PUSH2 0x441E JUMP JUMPDEST PUSH1 0x40 MLOAD DUP1 SWAP2 SUB SWAP1 REVERT JUMPDEST PUSH1 0x0 DUP4 MLOAD PUSH8 0xFFFFFFFFFFFFFFFF DUP2 GT ISZERO PUSH2 0x1295 JUMPI PUSH2 0x1294 PUSH2 0x36E2 JUMP JUMPDEST JUMPDEST PUSH1 0x40 MLOAD SWAP1 DUP1 DUP3 MSTORE DUP1 PUSH1 0x20 MUL PUSH1 0x20 ADD DUP3 ADD PUSH1 0x40 MSTORE DUP1 ISZERO PUSH2 0x12C3 JUMPI DUP2 PUSH1 0x20 ADD PUSH1 0x20 DUP3 MUL DUP1 CALLDATASIZE DUP4 CALLDATACOPY DUP1 DUP3 ADD SWAP2 POP POP SWAP1 POP JUMPDEST POP SWAP1 POP PUSH1 0x0 JUMPDEST DUP5 MLOAD DUP2 LT ISZERO PUSH2 0x1330 JUMPI PUSH2 0x1300 PUSH2 0x12E8 DUP3 DUP8 PUSH2 0x2354 SWAP1 SWAP2 SWAP1 PUSH4 0xFFFFFFFF AND JUMP JUMPDEST PUSH2 0x12FB DUP4 DUP8 PUSH2 0x2368 SWAP1 SWAP2 SWAP1 PUSH4 0xFFFFFFFF AND JUMP JUMPDEST PUSH2 0x85B JUMP JUMPDEST DUP3 DUP3 DUP2 MLOAD DUP2 LT PUSH2 0x1313 JUMPI PUSH2 0x1312 PUSH2 0x407F JUMP JUMPDEST JUMPDEST PUSH1 0x20 MUL PUSH1 0x20 ADD ADD DUP2 DUP2 MSTORE POP POP DUP1 PUSH2 0x1329 SWAP1 PUSH2 0x40DD JUMP JUMPDEST SWAP1 POP PUSH2 0x12C9 JUMP JUMPDEST POP DUP1 SWAP2 POP POP SWAP3 SWAP2 POP POP JUMP JUMPDEST PUSH32 0x71840DC4906352362B0CDAF79870196C8E42ACAFADE72D5D5A6D59291253CEB1 PUSH2 0x1365 DUP2 PUSH2 0x20C2 JUMP JUMPDEST DUP2 PUSH1 0x6 SWAP1 DUP2 PUSH2 0x1374 SWAP2 SWAP1 PUSH2 0x45DE JUMP JUMPDEST POP POP POP JUMP JUMPDEST PUSH2 0x1381 PUSH2 0x31F1 JUMP JUMPDEST PUSH1 0xA PUSH1 0x0 DUP4 DUP2 MSTORE PUSH1 0x20 ADD SWAP1 DUP2 MSTORE PUSH1 0x20 ADD PUSH1 0x0 KECCAK256 PUSH1 0x5 ADD PUSH1 0x14 SWAP1 SLOAD SWAP1 PUSH2 0x100 EXP SWAP1 DIV PUSH1 0xFF AND PUSH2 0x13E4 JUMPI PUSH1 0x40 MLOAD PUSH32 0x8C379A000000000000000000000000000000000000000000000000000000000 DUP2 MSTORE PUSH1 0x4 ADD PUSH2 0x13DB SWAP1 PUSH2 0x41D1 JUMP JUMPDEST PUSH1 0x40 MLOAD DUP1 SWAP2 SUB SWAP1 REVERT JUMPDEST PUSH1 0xA PUSH1 0x0 DUP4 DUP2 MSTORE PUSH1 0x20 ADD SWAP1 DUP2 MSTORE PUSH1 0x20 ADD PUSH1 0x0 KECCAK256 PUSH1 0x40 MLOAD DUP1 PUSH1 0xE0 ADD PUSH1 0x40 MSTORE SWAP1 DUP2 PUSH1 0x0 DUP3 ADD SLOAD DUP2 MSTORE PUSH1 0x20 ADD PUSH1 0x1 DUP3 ADD SLOAD DUP2 MSTORE PUSH1 0x20 ADD PUSH1 0x2 DUP3 ADD SLOAD DUP2 MSTORE PUSH1 0x20 ADD PUSH1 0x3 DUP3 ADD SLOAD DUP2 MSTORE PUSH1 0x20 ADD PUSH1 0x4 DUP3 ADD SLOAD DUP2 MSTORE PUSH1 0x20 ADD PUSH1 0x5 DUP3 ADD PUSH1 0x0 SWAP1 SLOAD SWAP1 PUSH2 0x100 EXP SWAP1 DIV PUSH20 0xFFFFFFFFFFFFFFFFFFFFFFFFFFFFFFFFFFFFFFFF AND PUSH20 0xFFFFFFFFFFFFFFFFFFFFFFFFFFFFFFFFFFFFFFFF AND PUSH20 0xFFFFFFFFFFFFFFFFFFFFFFFFFFFFFFFFFFFFFFFF AND DUP2 MSTORE PUSH1 0x20 ADD PUSH1 0x5 DUP3 ADD PUSH1 0x14 SWAP1 SLOAD SWAP1 PUSH2 0x100 EXP SWAP1 DIV PUSH1 0xFF AND ISZERO ISZERO ISZERO ISZERO DUP2 MSTORE POP POP SWAP1 POP SWAP2 SWAP1 POP JUMP JUMPDEST PUSH1 0xB SLOAD DUP2 JUMP JUMPDEST PUSH32 0x65CB1D8422CDF0328F26B49E42E9F4524474C431DA623CBE0EA455F1B67C9F77 DUP2 JUMP JUMPDEST PUSH1 0xA PUSH1 0x0 DUP4 DUP2 MSTORE PUSH1 0x20 ADD SWAP1 DUP2 MSTORE PUSH1 0x20 ADD PUSH1 0x0 KECCAK256 PUSH1 0x5 ADD PUSH1 0x14 SWAP1 SLOAD SWAP1 PUSH2 0x100 EXP SWAP1 DIV PUSH1 0xFF AND PUSH2 0x1539 JUMPI PUSH1 0x40 MLOAD PUSH32 0x8C379A000000000000000000000000000000000000000000000000000000000 DUP2 MSTORE PUSH1 0x4 ADD PUSH2 0x1530 SWAP1 PUSH2 0x41D1 JUMP JUMPDEST PUSH1 0x40 MLOAD DUP1 SWAP2 SUB SWAP1 REVERT JUMPDEST DUP1 PUSH2 0x1544 CALLER DUP5 PUSH2 0x85B JUMP JUMPDEST LT ISZERO PUSH2 0x1585 JUMPI PUSH1 0x40 MLOAD PUSH32 0x8C379A000000000000000000000000000000000000000000000000000000000 DUP2 MSTORE PUSH1 0x4 ADD PUSH2 0x157C SWAP1 PUSH2 0x46FC JUMP JUMPDEST PUSH1 0x40 MLOAD DUP1 SWAP2 SUB SWAP1 REVERT JUMPDEST PUSH2 0x1590 CALLER DUP4 DUP4 PUSH2 0x237C JUMP JUMPDEST DUP1 PUSH1 0x9 PUSH1 0x0 DUP5 DUP2 MSTORE PUSH1 0x20 ADD SWAP1 DUP2 MSTORE PUSH1 0x20 ADD PUSH1 0x0 KECCAK256 PUSH1 0x0 DUP3 DUP3 SLOAD PUSH2 0x15B3 SWAP2 SWAP1 PUSH2 0x43EA JUMP JUMPDEST SWAP3 POP POP DUP2 SWAP1 SSTORE POP PUSH1 0xA PUSH1 0x0 DUP4 DUP2 MSTORE PUSH1 0x20 ADD SWAP1 DUP2 MSTORE PUSH1 0x20 ADD PUSH1 0x0 KECCAK256 PUSH1 0x2 ADD SLOAD PUSH1 0x9 PUSH1 0x0 DUP5 DUP2 MSTORE PUSH1 0x20 ADD SWAP1 DUP2 MSTORE PUSH1 0x20 ADD PUSH1 0x0 KECCAK256 SLOAD LT PUSH2 0x162A JUMPI PUSH32 0xDBBF985AE41A60C90D9CCF8FD67956FFC89C51F508B27F75422C733B6BD8A480 PUSH1 0xA PUSH1 0x0 DUP5 DUP2 MSTORE PUSH1 0x20 ADD SWAP1 DUP2 MSTORE PUSH1 0x20 ADD PUSH1 0x0 KECCAK256 PUSH1 0x4 ADD DUP2 SWAP1 SSTORE POP PUSH2 0x1683 JUMP JUMPDEST PUSH1 0x0 PUSH1 0x9 PUSH1 0x0 DUP5 DUP2 MSTORE PUSH1 0x20 ADD SWAP1 DUP2 MSTORE PUSH1 0x20 ADD PUSH1 0x0 KECCAK256 SLOAD GT ISZERO PUSH2 0x1682 JUMPI PUSH32 0xE2613DA3F93FB28F9EEFB62314CD4916001363CED4413A9FB328C4F14BA7362 PUSH1 0xA PUSH1 0x0 DUP5 DUP2 MSTORE PUSH1 0x20 ADD SWAP1 DUP2 MSTORE PUSH1 0x20 ADD PUSH1 0x0 KECCAK256 PUSH1 0x4 ADD DUP2 SWAP1 SSTORE POP JUMPDEST JUMPDEST CALLER PUSH20 0xFFFFFFFFFFFFFFFFFFFFFFFFFFFFFFFFFFFFFFFF AND DUP3 PUSH32 0xF3AE8AC140E9737C0A2FEB16481EE92FE0C3A6753433DFA6DCFAC892109F618A DUP4 PUSH1 0x40 MLOAD PUSH2 0x16CA SWAP2 SWAP1 PUSH2 0x3340 JUMP JUMPDEST PUSH1 0x40 MLOAD DUP1 SWAP2 SUB SWAP1 LOG3 POP POP JUMP JUMPDEST PUSH1 0x0 PUSH1 0x7 PUSH1 0x0 DUP4 DUP2 MSTORE PUSH1 0x20 ADD SWAP1 DUP2 MSTORE PUSH1 0x20 ADD PUSH1 0x0 KECCAK256 SLOAD SWAP1 POP SWAP2 SWAP1 POP JUMP JUMPDEST PUSH1 0x8 PUSH1 0x20 MSTORE DUP1 PUSH1 0x0 MSTORE PUSH1 0x40 PUSH1 0x0 KECCAK256 PUSH1 0x0 SWAP2 POP SWAP1 POP SLOAD DUP2 JUMP JUMPDEST PUSH1 0x0 PUSH2 0x1717 DUP4 DUP4 PUSH2 0x2423 JUMP JUMPDEST SWAP1 POP SWAP3 SWAP2 POP POP JUMP JUMPDEST PUSH1 0x0 PUSH32 0x71840DC4906352362B0CDAF79870196C8E42ACAFADE72D5D5A6D59291253CEB1 PUSH2 0x174B DUP2 PUSH2 0x20C2 JUMP JUMPDEST PUSH1 0x0 DUP4 GT PUSH2 0x178E JUMPI PUSH1 0x40 MLOAD PUSH32 0x8C379A000000000000000000000000000000000000000000000000000000000 DUP2 MSTORE PUSH1 0x4 ADD PUSH2 0x1785 SWAP1 PUSH2 0x4768 JUMP JUMPDEST PUSH1 0x40 MLOAD DUP1 SWAP2 SUB SWAP1 REVERT JUMPDEST PUSH1 0xB PUSH1 0x0 DUP2 SLOAD DUP1 SWAP3 SWAP2 SWAP1 PUSH2 0x17A1 SWAP1 PUSH2 0x40DD JUMP JUMPDEST SWAP2 SWAP1 POP SSTORE POP PUSH1 0x0 PUSH1 0xB SLOAD SWAP1 POP PUSH1 0x40 MLOAD DUP1 PUSH1 0xE0 ADD PUSH1 0x40 MSTORE DUP1 DUP3 DUP2 MSTORE PUSH1 0x20 ADD DUP7 DUP2 MSTORE PUSH1 0x20 ADD DUP6 DUP2 MSTORE PUSH1 0x20 ADD TIMESTAMP DUP2 MSTORE PUSH1 0x20 ADD PUSH32 0xF07B88471CD28DC438F2291190512BD968FBD79B8C86B9ED015E51C1261D911F DUP2 MSTORE PUSH1 0x20 ADD CALLER PUSH20 0xFFFFFFFFFFFFFFFFFFFFFFFFFFFFFFFFFFFFFFFF AND DUP2 MSTORE PUSH1 0x20 ADD PUSH1 0x1 ISZERO ISZERO DUP2 MSTORE POP PUSH1 0xA PUSH1 0x0 DUP4 DUP2 MSTORE PUSH1 0x20 ADD SWAP1 DUP2 MSTORE PUSH1 0x20 ADD PUSH1 0x0 KECCAK256 PUSH1 0x0 DUP3 ADD MLOAD DUP2 PUSH1 0x0 ADD SSTORE PUSH1 0x20 DUP3 ADD MLOAD DUP2 PUSH1 0x1 ADD SSTORE PUSH1 0x40 DUP3 ADD MLOAD DUP2 PUSH1 0x2 ADD SSTORE PUSH1 0x60 DUP3 ADD MLOAD DUP2 PUSH1 0x3 ADD SSTORE PUSH1 0x80 DUP3 ADD MLOAD DUP2 PUSH1 0x4 ADD SSTORE PUSH1 0xA0 DUP3 ADD MLOAD DUP2 PUSH1 0x5 ADD PUSH1 0x0 PUSH2 0x100 EXP DUP2 SLOAD DUP2 PUSH20 0xFFFFFFFFFFFFFFFFFFFFFFFFFFFFFFFFFFFFFFFF MUL NOT AND SWAP1 DUP4 PUSH20 0xFFFFFFFFFFFFFFFFFFFFFFFFFFFFFFFFFFFFFFFF AND MUL OR SWAP1 SSTORE POP PUSH1 0xC0 DUP3 ADD MLOAD DUP2 PUSH1 0x5 ADD PUSH1 0x14 PUSH2 0x100 EXP DUP2 SLOAD DUP2 PUSH1 0xFF MUL NOT AND SWAP1 DUP4 ISZERO ISZERO MUL OR SWAP1 SSTORE POP SWAP1 POP POP CALLER PUSH20 0xFFFFFFFFFFFFFFFFFFFFFFFFFFFFFFFFFFFFFFFF AND DUP2 PUSH32 0xB0276A592797313569CC2281FC9EBE219D41E85D21372111D56185EFD5F3AD6A DUP8 DUP8 PUSH1 0x40 MLOAD PUSH2 0x1911 SWAP3 SWAP2 SWAP1 PUSH2 0x441E JUMP JUMPDEST PUSH1 0x40 MLOAD DUP1 SWAP2 SUB SWAP1 LOG3 DUP1 SWAP3 POP POP POP SWAP3 SWAP2 POP POP JUMP JUMPDEST PUSH1 0x1 DUP2 JUMP JUMPDEST PUSH1 0xA PUSH1 0x0 DUP6 DUP2 MSTORE PUSH1 0x20 ADD SWAP1 DUP2 MSTORE PUSH1 0x20 ADD PUSH1 0x0 KECCAK256 PUSH1 0x5 ADD PUSH1 0x14 SWAP1 SLOAD SWAP1 PUSH2 0x100 EXP SWAP1 DIV PUSH1 0xFF AND PUSH2 0x198C JUMPI PUSH1 0x40 MLOAD PUSH32 0x8C379A000000000000000000000000000000000000000000000000000000000 DUP2 MSTORE PUSH1 0x4 ADD PUSH2 0x1983 SWAP1 PUSH2 0x41D1 JUMP JUMPDEST PUSH1 0x40 MLOAD DUP1 SWAP2 SUB SWAP1 REVERT JUMPDEST DUP1 PUSH2 0x1997 DUP5 DUP7 PUSH2 0x85B JUMP JUMPDEST LT ISZERO PUSH2 0x19D8 JUMPI PUSH1 0x40 MLOAD PUSH32 0x8C379A000000000000000000000000000000000000000000000000000000000 DUP2 MSTORE PUSH1 0x4 ADD PUSH2 0x19CF SWAP1 PUSH2 0x46FC JUMP JUMPDEST PUSH1 0x40 MLOAD DUP1 SWAP2 SUB SWAP1 REVERT JUMPDEST PUSH2 0x19F4 DUP4 DUP4 DUP7 DUP5 PUSH1 0x40 MLOAD DUP1 PUSH1 0x20 ADD PUSH1 0x40 MSTORE DUP1 PUSH1 0x0 DUP2 MSTORE POP PUSH2 0x248E JUMP JUMPDEST DUP2 PUSH20 0xFFFFFFFFFFFFFFFFFFFFFFFFFFFFFFFFFFFFFFFF AND DUP4 PUSH20 0xFFFFFFFFFFFFFFFFFFFFFFFFFFFFFFFFFFFFFFFF AND DUP6 PUSH32 0x9710A09DA8AABA9531B885C1A91F51BDFBAAF2F030F718644525D11A43140C4 DUP5 PUSH1 0x40 MLOAD PUSH2 0x1A52 SWAP2 SWAP1 PUSH2 0x3340 JUMP JUMPDEST PUSH1 0x40 MLOAD DUP1 SWAP2 SUB SWAP1 LOG4 POP POP POP POP JUMP JUMPDEST PUSH1 0x5 DUP1 SLOAD PUSH2 0x1A6D SWAP1 PUSH2 0x4154 JUMP JUMPDEST DUP1 PUSH1 0x1F ADD PUSH1 0x20 DUP1 SWAP2 DIV MUL PUSH1 0x20 ADD PUSH1 0x40 MLOAD SWAP1 DUP2 ADD PUSH1 0x40 MSTORE DUP1 SWAP3 SWAP2 SWAP1 DUP2 DUP2 MSTORE PUSH1 0x20 ADD DUP3 DUP1 SLOAD PUSH2 0x1A99 SWAP1 PUSH2 0x4154 JUMP JUMPDEST DUP1 ISZERO PUSH2 0x1AE6 JUMPI DUP1 PUSH1 0x1F LT PUSH2 0x1ABB JUMPI PUSH2 0x100 DUP1 DUP4 SLOAD DIV MUL DUP4 MSTORE SWAP2 PUSH1 0x20 ADD SWAP2 PUSH2 0x1AE6 JUMP JUMPDEST DUP3 ADD SWAP2 SWAP1 PUSH1 0x0 MSTORE PUSH1 0x20 PUSH1 0x0 KECCAK256 SWAP1 JUMPDEST DUP2 SLOAD DUP2 MSTORE SWAP1 PUSH1 0x1 ADD SWAP1 PUSH1 0x20 ADD DUP1 DUP4 GT PUSH2 0x1AC9 JUMPI DUP3 SWAP1 SUB PUSH1 0x1F AND DUP3 ADD SWAP2 JUMPDEST POP POP POP POP POP DUP2 JUMP JUMPDEST PUSH1 0x0 DUP1 SHL DUP2 JUMP JUMPDEST PUSH2 0x1B07 PUSH2 0x1B00 PUSH2 0x1FC2 JUMP JUMPDEST DUP4 DUP4 PUSH2 0x2599 JUMP JUMPDEST POP POP JUMP JUMPDEST PUSH32 0xDBBF985AE41A60C90D9CCF8FD67956FFC89C51F508B27F75422C733B6BD8A480 DUP2 JUMP JUMPDEST PUSH1 0xA PUSH1 0x20 MSTORE DUP1 PUSH1 0x0 MSTORE PUSH1 0x40 PUSH1 0x0 KECCAK256 PUSH1 0x0 SWAP2 POP SWAP1 POP DUP1 PUSH1 0x0 ADD SLOAD SWAP1 DUP1 PUSH1 0x1 ADD SLOAD SWAP1 DUP1 PUSH1 0x2 ADD SLOAD SWAP1 DUP1 PUSH1 0x3 ADD SLOAD SWAP1 DUP1 PUSH1 0x4 ADD SLOAD SWAP1 DUP1 PUSH1 0x5 ADD PUSH1 0x0 SWAP1 SLOAD SWAP1 PUSH2 0x100 EXP SWAP1 DIV PUSH20 0xFFFFFFFFFFFFFFFFFFFFFFFFFFFFFFFFFFFFFFFF AND SWAP1 DUP1 PUSH1 0x5 ADD PUSH1 0x14 SWAP1 SLOAD SWAP1 PUSH2 0x100 EXP SWAP1 DIV PUSH1 0xFF AND SWAP1 POP DUP8 JUMP JUMPDEST PUSH1 0x7 PUSH1 0x20 MSTORE DUP1 PUSH1 0x0 MSTORE PUSH1 0x40 PUSH1 0x0 KECCAK256 PUSH1 0x0 SWAP2 POP SWAP1 POP SLOAD DUP2 JUMP JUMPDEST PUSH32 0x8EB467F061CA67F42A2D2CA4A346FC9FB645EFC0BA75056EE9F71C3A0CCC10A8 DUP2 JUMP JUMPDEST PUSH32 0x71840DC4906352362B0CDAF79870196C8E42ACAFADE72D5D5A6D59291253CEB1 PUSH2 0x1C04 DUP2 PUSH2 0x20C2 JUMP JUMPDEST PUSH2 0x1C0E DUP4 DUP4 PUSH2 0x21C8 JUMP JUMPDEST POP POP POP POP JUMP JUMPDEST PUSH1 0x60 PUSH1 0x0 DUP1 PUSH1 0x1 SWAP1 POP JUMPDEST PUSH1 0xB SLOAD DUP2 GT PUSH2 0x1C5B JUMPI PUSH1 0x0 PUSH2 0x1C33 DUP6 DUP4 PUSH2 0x85B JUMP JUMPDEST GT ISZERO PUSH2 0x1C48 JUMPI DUP2 DUP1 PUSH2 0x1C44 SWAP1 PUSH2 0x40DD JUMP JUMPDEST SWAP3 POP POP JUMPDEST DUP1 DUP1 PUSH2 0x1C53 SWAP1 PUSH2 0x40DD JUMP JUMPDEST SWAP2 POP POP PUSH2 0x1C1E JUMP JUMPDEST POP PUSH1 0x0 DUP2 PUSH8 0xFFFFFFFFFFFFFFFF DUP2 GT ISZERO PUSH2 0x1C78 JUMPI PUSH2 0x1C77 PUSH2 0x36E2 JUMP JUMPDEST JUMPDEST PUSH1 0x40 MLOAD SWAP1 DUP1 DUP3 MSTORE DUP1 PUSH1 0x20 MUL PUSH1 0x20 ADD DUP3 ADD PUSH1 0x40 MSTORE DUP1 ISZERO PUSH2 0x1CA6 JUMPI DUP2 PUSH1 0x20 ADD PUSH1 0x20 DUP3 MUL DUP1 CALLDATASIZE DUP4 CALLDATACOPY DUP1 DUP3 ADD SWAP2 POP POP SWAP1 POP JUMPDEST POP SWAP1 POP PUSH1 0x0 DUP1 PUSH1 0x1 SWAP1 POP JUMPDEST PUSH1 0xB SLOAD DUP2 GT PUSH2 0x1D0E JUMPI PUSH1 0x0 PUSH2 0x1CC6 DUP8 DUP4 PUSH2 0x85B JUMP JUMPDEST GT ISZERO PUSH2 0x1CFB JUMPI DUP1 DUP4 DUP4 DUP2 MLOAD DUP2 LT PUSH2 0x1CE0 JUMPI PUSH2 0x1CDF PUSH2 0x407F JUMP JUMPDEST JUMPDEST PUSH1 0x20 MUL PUSH1 0x20 ADD ADD DUP2 DUP2 MSTORE POP POP DUP2 DUP1 PUSH2 0x1CF7 SWAP1 PUSH2 0x40DD JUMP JUMPDEST SWAP3 POP POP JUMPDEST DUP1 DUP1 PUSH2 0x1D06 SWAP1 PUSH2 0x40DD JUMP JUMPDEST SWAP2 POP POP PUSH2 0x1CB1 JUMP JUMPDEST POP DUP2 SWAP4 POP POP POP POP SWAP2 SWAP1 POP JUMP JUMPDEST PUSH1 0x0 PUSH1 0x1 PUSH1 0x0 DUP5 PUSH20 0xFFFFFFFFFFFFFFFFFFFFFFFFFFFFFFFFFFFFFFFF AND PUSH20 0xFFFFFFFFFFFFFFFFFFFFFFFFFFFFFFFFFFFFFFFF AND DUP2 MSTORE PUSH1 0x20 ADD SWAP1 DUP2 MSTORE PUSH1 0x20 ADD PUSH1 0x0 KECCAK256 PUSH1 0x0 DUP4 PUSH20 0xFFFFFFFFFFFFFFFFFFFFFFFFFFFFFFFFFFFFFFFF AND PUSH20 0xFFFFFFFFFFFFFFFFFFFFFFFFFFFFFFFFFFFFFFFF AND DUP2 MSTORE PUSH1 0x20 ADD SWAP1 DUP2 MSTORE PUSH1 0x20 ADD PUSH1 0x0 KECCAK256 PUSH1 0x0 SWAP1 SLOAD SWAP1 PUSH2 0x100 EXP SWAP1 DIV PUSH1 0xFF AND SWAP1 POP SWAP3 SWAP2 POP POP JUMP JUMPDEST PUSH1 0x0 PUSH2 0x1DB8 PUSH2 0x1FC2 JUMP JUMPDEST SWAP1 POP DUP1 PUSH20 0xFFFFFFFFFFFFFFFFFFFFFFFFFFFFFFFFFFFFFFFF AND DUP7 PUSH20 0xFFFFFFFFFFFFFFFFFFFFFFFFFFFFFFFFFFFFFFFF AND EQ ISZERO DUP1 ISZERO PUSH2 0x1DFD JUMPI POP PUSH2 0x1DFB DUP7 DUP3 PUSH2 0x1D1A JUMP JUMPDEST ISZERO JUMPDEST ISZERO PUSH2 0x1E41 JUMPI DUP1 DUP7 PUSH1 0x40 MLOAD PUSH32 0xE237D92200000000000000000000000000000000000000000000000000000000 DUP2 MSTORE PUSH1 0x4 ADD PUSH2 0x1E38 SWAP3 SWAP2 SWAP1 PUSH2 0x42E9 JUMP JUMPDEST PUSH1 0x40 MLOAD DUP1 SWAP2 SUB SWAP1 REVERT JUMPDEST PUSH2 0x1E4E DUP7 DUP7 DUP7 DUP7 DUP7 PUSH2 0x248E JUMP JUMPDEST POP POP POP POP POP POP JUMP JUMPDEST PUSH32 0x71840DC4906352362B0CDAF79870196C8E42ACAFADE72D5D5A6D59291253CEB1 DUP2 JUMP JUMPDEST PUSH1 0x0 PUSH32 0x7965DB0B00000000000000000000000000000000000000000000000000000000 PUSH28 0xFFFFFFFFFFFFFFFFFFFFFFFFFFFFFFFFFFFFFFFFFFFFFFFFFFFFFFFF NOT AND DUP3 PUSH28 0xFFFFFFFFFFFFFFFFFFFFFFFFFFFFFFFFFFFFFFFFFFFFFFFFFFFFFFFF NOT AND EQ DUP1 PUSH2 0x1EED JUMPI POP PUSH2 0x1EEC DUP3 PUSH2 0x2709 JUMP JUMPDEST JUMPDEST SWAP1 POP SWAP2 SWAP1 POP JUMP JUMPDEST PUSH1 0x60 PUSH1 0x0 PUSH1 0x1 PUSH2 0x1F03 DUP5 PUSH2 0x27EB JUMP JUMPDEST ADD SWAP1 POP PUSH1 0x0 DUP2 PUSH8 0xFFFFFFFFFFFFFFFF DUP2 GT ISZERO PUSH2 0x1F22 JUMPI PUSH2 0x1F21 PUSH2 0x36E2 JUMP JUMPDEST JUMPDEST PUSH1 0x40 MLOAD SWAP1 DUP1 DUP3 MSTORE DUP1 PUSH1 0x1F ADD PUSH1 0x1F NOT AND PUSH1 0x20 ADD DUP3 ADD PUSH1 0x40 MSTORE DUP1 ISZERO PUSH2 0x1F54 JUMPI DUP2 PUSH1 0x20 ADD PUSH1 0x1 DUP3 MUL DUP1 CALLDATASIZE DUP4 CALLDATACOPY DUP1 DUP3 ADD SWAP2 POP POP SWAP1 POP JUMPDEST POP SWAP1 POP PUSH1 0x0 DUP3 PUSH1 0x20 DUP4 ADD ADD SWAP1 POP JUMPDEST PUSH1 0x1 ISZERO PUSH2 0x1FB7 JUMPI DUP1 DUP1 PUSH1 0x1 SWAP1 SUB SWAP2 POP POP PUSH32 0x3031323334353637383961626364656600000000000000000000000000000000 PUSH1 0xA DUP7 MOD BYTE DUP2 MSTORE8 PUSH1 0xA DUP6 DUP2 PUSH2 0x1FAB JUMPI PUSH2 0x1FAA PUSH2 0x4788 JUMP JUMPDEST JUMPDEST DIV SWAP5 POP PUSH1 0x0 DUP6 SUB PUSH2 0x1F62 JUMPI JUMPDEST DUP2 SWAP4 POP POP POP POP SWAP2 SWAP1 POP JUMP JUMPDEST PUSH1 0x0 CALLER SWAP1 POP SWAP1 JUMP JUMPDEST PUSH1 0x0 PUSH20 0xFFFFFFFFFFFFFFFFFFFFFFFFFFFFFFFFFFFFFFFF AND DUP5 PUSH20 0xFFFFFFFFFFFFFFFFFFFFFFFFFFFFFFFFFFFFFFFF AND SUB PUSH2 0x203C JUMPI PUSH1 0x0 PUSH1 0x40 MLOAD PUSH32 0x57F447CE00000000000000000000000000000000000000000000000000000000 DUP2 MSTORE PUSH1 0x4 ADD PUSH2 0x2033 SWAP2 SWAP1 PUSH2 0x47B7 JUMP JUMPDEST PUSH1 0x40 MLOAD DUP1 SWAP2 SUB SWAP1 REVERT JUMPDEST PUSH1 0x0 PUSH20 0xFFFFFFFFFFFFFFFFFFFFFFFFFFFFFFFFFFFFFFFF AND DUP6 PUSH20 0xFFFFFFFFFFFFFFFFFFFFFFFFFFFFFFFFFFFFFFFF AND SUB PUSH2 0x20AE JUMPI PUSH1 0x0 PUSH1 0x40 MLOAD PUSH32 0x1A8351400000000000000000000000000000000000000000000000000000000 DUP2 MSTORE PUSH1 0x4 ADD PUSH2 0x20A5 SWAP2 SWAP1 PUSH2 0x47B7 JUMP JUMPDEST PUSH1 0x40 MLOAD DUP1 SWAP2 SUB SWAP1 REVERT JUMPDEST PUSH2 0x20BB DUP6 DUP6 DUP6 DUP6 DUP6 PUSH2 0x293E JUMP JUMPDEST POP POP POP POP POP JUMP JUMPDEST PUSH2 0x20D3 DUP2 PUSH2 0x20CE PUSH2 0x1FC2 JUMP JUMPDEST PUSH2 0x29F0 JUMP JUMPDEST POP JUMP JUMPDEST PUSH1 0x0 PUSH2 0x20E2 DUP4 DUP4 PUSH2 0x170B JUMP JUMPDEST PUSH2 0x21BD JUMPI PUSH1 0x1 PUSH1 0x3 PUSH1 0x0 DUP6 DUP2 MSTORE PUSH1 0x20 ADD SWAP1 DUP2 MSTORE PUSH1 0x20 ADD PUSH1 0x0 KECCAK256 PUSH1 0x0 ADD PUSH1 0x0 DUP5 PUSH20 0xFFFFFFFFFFFFFFFFFFFFFFFFFFFFFFFFFFFFFFFF AND PUSH20 0xFFFFFFFFFFFFFFFFFFFFFFFFFFFFFFFFFFFFFFFF AND DUP2 MSTORE PUSH1 0x20 ADD SWAP1 DUP2 MSTORE PUSH1 0x20 ADD PUSH1 0x0 KECCAK256 PUSH1 0x0 PUSH2 0x100 EXP DUP2 SLOAD DUP2 PUSH1 0xFF MUL NOT AND SWAP1 DUP4 ISZERO ISZERO MUL OR SWAP1 SSTORE POP PUSH2 0x215A PUSH2 0x1FC2 JUMP JUMPDEST PUSH20 0xFFFFFFFFFFFFFFFFFFFFFFFFFFFFFFFFFFFFFFFF AND DUP3 PUSH20 0xFFFFFFFFFFFFFFFFFFFFFFFFFFFFFFFFFFFFFFFF AND DUP5 PUSH32 0x2F8788117E7EFF1D82E926EC794901D17C78024A50270940304540A733656F0D PUSH1 0x40 MLOAD PUSH1 0x40 MLOAD DUP1 SWAP2 SUB SWAP1 LOG4 PUSH1 0x1 SWAP1 POP PUSH2 0x21C2 JUMP JUMPDEST PUSH1 0x0 SWAP1 POP JUMPDEST SWAP3 SWAP2 POP POP JUMP JUMPDEST PUSH1 0x0 PUSH2 0x21D4 DUP4 DUP4 PUSH2 0x170B JUMP JUMPDEST ISZERO PUSH2 0x22B0 JUMPI PUSH1 0x0 PUSH1 0x3 PUSH1 0x0 DUP6 DUP2 MSTORE PUSH1 0x20 ADD SWAP1 DUP2 MSTORE PUSH1 0x20 ADD PUSH1 0x0 KECCAK256 PUSH1 0x0 ADD PUSH1 0x0 DUP5 PUSH20 0xFFFFFFFFFFFFFFFFFFFFFFFFFFFFFFFFFFFFFFFF AND PUSH20 0xFFFFFFFFFFFFFFFFFFFFFFFFFFFFFFFFFFFFFFFF AND DUP2 MSTORE PUSH1 0x20 ADD SWAP1 DUP2 MSTORE PUSH1 0x20 ADD PUSH1 0x0 KECCAK256 PUSH1 0x0 PUSH2 0x100 EXP DUP2 SLOAD DUP2 PUSH1 0xFF MUL NOT AND SWAP1 DUP4 ISZERO ISZERO MUL OR SWAP1 SSTORE POP PUSH2 0x224D PUSH2 0x1FC2 JUMP JUMPDEST PUSH20 0xFFFFFFFFFFFFFFFFFFFFFFFFFFFFFFFFFFFFFFFF AND DUP3 PUSH20 0xFFFFFFFFFFFFFFFFFFFFFFFFFFFFFFFFFFFFFFFF AND DUP5 PUSH32 0xF6391F5C32D9C69D2A47EA670B442974B53935D1EDC7FD64EB21E047A839171B PUSH1 0x40 MLOAD PUSH1 0x40 MLOAD DUP1 SWAP2 SUB SWAP1 LOG4 PUSH1 0x1 SWAP1 POP PUSH2 0x22B5 JUMP JUMPDEST PUSH1 0x0 SWAP1 POP JUMPDEST SWAP3 SWAP2 POP POP JUMP JUMPDEST PUSH1 0x0 PUSH20 0xFFFFFFFFFFFFFFFFFFFFFFFFFFFFFFFFFFFFFFFF AND DUP5 PUSH20 0xFFFFFFFFFFFFFFFFFFFFFFFFFFFFFFFFFFFFFFFF AND SUB PUSH2 0x232D JUMPI PUSH1 0x0 PUSH1 0x40 MLOAD PUSH32 0x57F447CE00000000000000000000000000000000000000000000000000000000 DUP2 MSTORE PUSH1 0x4 ADD PUSH2 0x2324 SWAP2 SWAP1 PUSH2 0x47B7 JUMP JUMPDEST PUSH1 0x40 MLOAD DUP1 SWAP2 SUB SWAP1 REVERT JUMPDEST PUSH1 0x0 DUP1 PUSH2 0x233A DUP6 DUP6 PUSH2 0x2A41 JUMP JUMPDEST SWAP2 POP SWAP2 POP PUSH2 0x234C PUSH1 0x0 DUP8 DUP5 DUP5 DUP8 PUSH2 0x293E JUMP JUMPDEST POP POP POP POP POP POP JUMP JUMPDEST PUSH1 0x0 PUSH1 0x20 DUP3 MUL PUSH1 0x20 DUP5 ADD ADD MLOAD SWAP1 POP SWAP3 SWAP2 POP POP JUMP JUMPDEST PUSH1 0x0 PUSH1 0x20 DUP3 MUL PUSH1 0x20 DUP5 ADD ADD MLOAD SWAP1 POP SWAP3 SWAP2 POP POP JUMP JUMPDEST PUSH1 0x0 PUSH20 0xFFFFFFFFFFFFFFFFFFFFFFFFFFFFFFFFFFFFFFFF AND DUP4 PUSH20 0xFFFFFFFFFFFFFFFFFFFFFFFFFFFFFFFFFFFFFFFF AND SUB PUSH2 0x23EE JUMPI PUSH1 0x0 PUSH1 0x40 MLOAD PUSH32 0x1A8351400000000000000000000000000000000000000000000000000000000 DUP2 MSTORE PUSH1 0x4 ADD PUSH2 0x23E5 SWAP2 SWAP1 PUSH2 0x47B7 JUMP JUMPDEST PUSH1 0x40 MLOAD DUP1 SWAP2 SUB SWAP1 REVERT JUMPDEST PUSH1 0x0 DUP1 PUSH2 0x23FB DUP5 DUP5 PUSH2 0x2A41 JUMP JUMPDEST SWAP2 POP SWAP2 POP PUSH2 0x241C DUP6 PUSH1 0x0 DUP5 DUP5 PUSH1 0x40 MLOAD DUP1 PUSH1 0x20 ADD PUSH1 0x40 MSTORE DUP1 PUSH1 0x0 DUP2 MSTORE POP PUSH2 0x293E JUMP JUMPDEST POP POP POP POP POP JUMP JUMPDEST PUSH1 0x0 PUSH1 0x3 PUSH1 0x0 DUP5 DUP2 MSTORE PUSH1 0x20 ADD SWAP1 DUP2 MSTORE PUSH1 0x20 ADD PUSH1 0x0 KECCAK256 PUSH1 0x0 ADD PUSH1 0x0 DUP4 PUSH20 0xFFFFFFFFFFFFFFFFFFFFFFFFFFFFFFFFFFFFFFFF AND PUSH20 0xFFFFFFFFFFFFFFFFFFFFFFFFFFFFFFFFFFFFFFFF AND DUP2 MSTORE PUSH1 0x20 ADD SWAP1 DUP2 MSTORE PUSH1 0x20 ADD PUSH1 0x0 KECCAK256 PUSH1 0x0 SWAP1 SLOAD SWAP1 PUSH2 0x100 EXP SWAP1 DIV PUSH1 0xFF AND SWAP1 POP SWAP3 SWAP2 POP POP JUMP JUMPDEST PUSH1 0x0 PUSH20 0xFFFFFFFFFFFFFFFFFFFFFFFFFFFFFFFFFFFFFFFF AND DUP5 PUSH20 0xFFFFFFFFFFFFFFFFFFFFFFFFFFFFFFFFFFFFFFFF AND SUB PUSH2 0x2500 JUMPI PUSH1 0x0 PUSH1 0x40 MLOAD PUSH32 0x57F447CE00000000000000000000000000000000000000000000000000000000 DUP2 MSTORE PUSH1 0x4 ADD PUSH2 0x24F7 SWAP2 SWAP1 PUSH2 0x47B7 JUMP JUMPDEST PUSH1 0x40 MLOAD DUP1 SWAP2 SUB SWAP1 REVERT JUMPDEST PUSH1 0x0 PUSH20 0xFFFFFFFFFFFFFFFFFFFFFFFFFFFFFFFFFFFFFFFF AND DUP6 PUSH20 0xFFFFFFFFFFFFFFFFFFFFFFFFFFFFFFFFFFFFFFFF AND SUB PUSH2 0x2572 JUMPI PUSH1 0x0 PUSH1 0x40 MLOAD PUSH32 0x1A8351400000000000000000000000000000000000000000000000000000000 DUP2 MSTORE PUSH1 0x4 ADD PUSH2 0x2569 SWAP2 SWAP1 PUSH2 0x47B7 JUMP JUMPDEST PUSH1 0x40 MLOAD DUP1 SWAP2 SUB SWAP1 REVERT JUMPDEST PUSH1 0x0 DUP1 PUSH2 0x257F DUP6 DUP6 PUSH2 0x2A41 JUMP JUMPDEST SWAP2 POP SWAP2 POP PUSH2 0x2590 DUP8 DUP8 DUP5 DUP5 DUP8 PUSH2 0x293E JUMP JUMPDEST POP POP POP POP POP POP POP JUMP JUMPDEST PUSH1 0x0 PUSH20 0xFFFFFFFFFFFFFFFFFFFFFFFFFFFFFFFFFFFFFFFF AND DUP3 PUSH20 0xFFFFFFFFFFFFFFFFFFFFFFFFFFFFFFFFFFFFFFFF AND SUB PUSH2 0x260B JUMPI PUSH1 0x0 PUSH1 0x40 MLOAD PUSH32 0xCED3E10000000000000000000000000000000000000000000000000000000000 DUP2 MSTORE PUSH1 0x4 ADD PUSH2 0x2602 SWAP2 SWAP1 PUSH2 0x47B7 JUMP JUMPDEST PUSH1 0x40 MLOAD DUP1 SWAP2 SUB SWAP1 REVERT JUMPDEST DUP1 PUSH1 0x1 PUSH1 0x0 DUP6 PUSH20 0xFFFFFFFFFFFFFFFFFFFFFFFFFFFFFFFFFFFFFFFF AND PUSH20 0xFFFFFFFFFFFFFFFFFFFFFFFFFFFFFFFFFFFFFFFF AND DUP2 MSTORE PUSH1 0x20 ADD SWAP1 DUP2 MSTORE PUSH1 0x20 ADD PUSH1 0x0 KECCAK256 PUSH1 0x0 DUP5 PUSH20 0xFFFFFFFFFFFFFFFFFFFFFFFFFFFFFFFFFFFFFFFF AND PUSH20 0xFFFFFFFFFFFFFFFFFFFFFFFFFFFFFFFFFFFFFFFF AND DUP2 MSTORE PUSH1 0x20 ADD SWAP1 DUP2 MSTORE PUSH1 0x20 ADD PUSH1 0x0 KECCAK256 PUSH1 0x0 PUSH2 0x100 EXP DUP2 SLOAD DUP2 PUSH1 0xFF MUL NOT AND SWAP1 DUP4 ISZERO ISZERO MUL OR SWAP1 SSTORE POP DUP2 PUSH20 0xFFFFFFFFFFFFFFFFFFFFFFFFFFFFFFFFFFFFFFFF AND DUP4 PUSH20 0xFFFFFFFFFFFFFFFFFFFFFFFFFFFFFFFFFFFFFFFF AND PUSH32 0x17307EAB39AB6107E8899845AD3D59BD9653F200F220920489CA2B5937696C31 DUP4 PUSH1 0x40 MLOAD PUSH2 0x26FC SWAP2 SWAP1 PUSH2 0x33FB JUMP JUMPDEST PUSH1 0x40 MLOAD DUP1 SWAP2 SUB SWAP1 LOG3 POP POP POP JUMP JUMPDEST PUSH1 0x0 PUSH32 0xD9B67A2600000000000000000000000000000000000000000000000000000000 PUSH28 0xFFFFFFFFFFFFFFFFFFFFFFFFFFFFFFFFFFFFFFFFFFFFFFFFFFFFFFFF NOT AND DUP3 PUSH28 0xFFFFFFFFFFFFFFFFFFFFFFFFFFFFFFFFFFFFFFFFFFFFFFFFFFFFFFFF NOT AND EQ DUP1 PUSH2 0x27D4 JUMPI POP PUSH32 0xE89341C00000000000000000000000000000000000000000000000000000000 PUSH28 0xFFFFFFFFFFFFFFFFFFFFFFFFFFFFFFFFFFFFFFFFFFFFFFFFFFFFFFFF NOT AND DUP3 PUSH28 0xFFFFFFFFFFFFFFFFFFFFFFFFFFFFFFFFFFFFFFFFFFFFFFFFFFFFFFFF NOT AND EQ JUMPDEST DUP1 PUSH2 0x27E4 JUMPI POP PUSH2 0x27E3 DUP3 PUSH2 0x2A71 JUMP JUMPDEST JUMPDEST SWAP1 POP SWAP2 SWAP1 POP JUMP JUMPDEST PUSH1 0x0 DUP1 PUSH1 0x0 SWAP1 POP PUSH27 0x184F03E93FF9F4DAA797ED6E38ED64BF6A1F010000000000000000 DUP4 LT PUSH2 0x2849 JUMPI PUSH27 0x184F03E93FF9F4DAA797ED6E38ED64BF6A1F010000000000000000 DUP4 DUP2 PUSH2 0x283F JUMPI PUSH2 0x283E PUSH2 0x4788 JUMP JUMPDEST JUMPDEST DIV SWAP3 POP PUSH1 0x40 DUP2 ADD SWAP1 POP JUMPDEST PUSH14 0x4EE2D6D415B85ACEF8100000000 DUP4 LT PUSH2 0x2886 JUMPI PUSH14 0x4EE2D6D415B85ACEF8100000000 DUP4 DUP2 PUSH2 0x287C JUMPI PUSH2 0x287B PUSH2 0x4788 JUMP JUMPDEST JUMPDEST DIV SWAP3 POP PUSH1 0x20 DUP2 ADD SWAP1 POP JUMPDEST PUSH7 0x2386F26FC10000 DUP4 LT PUSH2 0x28B5 JUMPI PUSH7 0x2386F26FC10000 DUP4 DUP2 PUSH2 0x28AB JUMPI PUSH2 0x28AA PUSH2 0x4788 JUMP JUMPDEST JUMPDEST DIV SWAP3 POP PUSH1 0x10 DUP2 ADD SWAP1 POP JUMPDEST PUSH4 0x5F5E100 DUP4 LT PUSH2 0x28DE JUMPI PUSH4 0x5F5E100 DUP4 DUP2 PUSH2 0x28D4 JUMPI PUSH2 0x28D3 PUSH2 0x4788 JUMP JUMPDEST JUMPDEST DIV SWAP3 POP PUSH1 0x8 DUP2 ADD SWAP1 POP JUMPDEST PUSH2 0x2710 DUP4 LT PUSH2 0x2903 JUMPI PUSH2 0x2710 DUP4 DUP2 PUSH2 0x28F9 JUMPI PUSH2 0x28F8 PUSH2 0x4788 JUMP JUMPDEST JUMPDEST DIV SWAP3 POP PUSH1 0x4 DUP2 ADD SWAP1 POP JUMPDEST PUSH1 0x64 DUP4 LT PUSH2 0x2926 JUMPI PUSH1 0x64 DUP4 DUP2 PUSH2 0x291C JUMPI PUSH2 0x291B PUSH2 0x4788 JUMP JUMPDEST JUMPDEST DIV SWAP3 POP PUSH1 0x2 DUP2 ADD SWAP1 POP JUMPDEST PUSH1 0xA DUP4 LT PUSH2 0x2935 JUMPI PUSH1 0x1 DUP2 ADD SWAP1 POP JUMPDEST DUP1 SWAP2 POP POP SWAP2 SWAP1 POP JUMP JUMPDEST PUSH2 0x294A DUP6 DUP6 DUP6 DUP6 PUSH2 0x2ADB JUMP JUMPDEST PUSH1 0x0 PUSH20 0xFFFFFFFFFFFFFFFFFFFFFFFFFFFFFFFFFFFFFFFF AND DUP5 PUSH20 0xFFFFFFFFFFFFFFFFFFFFFFFFFFFFFFFFFFFFFFFF AND EQ PUSH2 0x29E9 JUMPI PUSH1 0x0 PUSH2 0x2988 PUSH2 0x1FC2 JUMP JUMPDEST SWAP1 POP PUSH1 0x1 DUP5 MLOAD SUB PUSH2 0x29D8 JUMPI PUSH1 0x0 PUSH2 0x29A9 PUSH1 0x0 DUP7 PUSH2 0x2368 SWAP1 SWAP2 SWAP1 PUSH4 0xFFFFFFFF AND JUMP JUMPDEST SWAP1 POP PUSH1 0x0 PUSH2 0x29C1 PUSH1 0x0 DUP7 PUSH2 0x2368 SWAP1 SWAP2 SWAP1 PUSH4 0xFFFFFFFF AND JUMP JUMPDEST SWAP1 POP PUSH2 0x29D1 DUP4 DUP10 DUP10 DUP6 DUP6 DUP10 PUSH2 0x2E89 JUMP JUMPDEST POP POP PUSH2 0x29E7 JUMP JUMPDEST PUSH2 0x29E6 DUP2 DUP8 DUP8 DUP8 DUP8 DUP8 PUSH2 0x303D JUMP JUMPDEST JUMPDEST POP JUMPDEST POP POP POP POP POP JUMP JUMPDEST PUSH2 0x29FA DUP3 DUP3 PUSH2 0x170B JUMP JUMPDEST PUSH2 0x2A3D JUMPI DUP1 DUP3 PUSH1 0x40 MLOAD PUSH32 0xE2517D3F00000000000000000000000000000000000000000000000000000000 DUP2 MSTORE PUSH1 0x4 ADD PUSH2 0x2A34 SWAP3 SWAP2 SWAP1 PUSH2 0x47D2 JUMP JUMPDEST PUSH1 0x40 MLOAD DUP1 SWAP2 SUB SWAP1 REVERT JUMPDEST POP POP JUMP JUMPDEST PUSH1 0x60 DUP1 PUSH1 0x40 MLOAD SWAP2 POP PUSH1 0x1 DUP3 MSTORE DUP4 PUSH1 0x20 DUP4 ADD MSTORE PUSH1 0x40 DUP3 ADD SWAP1 POP PUSH1 0x1 DUP2 MSTORE DUP3 PUSH1 0x20 DUP3 ADD MSTORE PUSH1 0x40 DUP2 ADD PUSH1 0x40 MSTORE SWAP3 POP SWAP3 SWAP1 POP JUMP JUMPDEST PUSH1 0x0 PUSH32 0x1FFC9A700000000000000000000000000000000000000000000000000000000 PUSH28 0xFFFFFFFFFFFFFFFFFFFFFFFFFFFFFFFFFFFFFFFFFFFFFFFFFFFFFFFF NOT AND DUP3 PUSH28 0xFFFFFFFFFFFFFFFFFFFFFFFFFFFFFFFFFFFFFFFFFFFFFFFFFFFFFFFF NOT AND EQ SWAP1 POP SWAP2 SWAP1 POP JUMP JUMPDEST DUP1 MLOAD DUP3 MLOAD EQ PUSH2 0x2B25 JUMPI DUP2 MLOAD DUP2 MLOAD PUSH1 0x40 MLOAD PUSH32 0x5B05999100000000000000000000000000000000000000000000000000000000 DUP2 MSTORE PUSH1 0x4 ADD PUSH2 0x2B1C SWAP3 SWAP2 SWAP1 PUSH2 0x441E JUMP JUMPDEST PUSH1 0x40 MLOAD DUP1 SWAP2 SUB SWAP1 REVERT JUMPDEST PUSH1 0x0 PUSH2 0x2B2F PUSH2 0x1FC2 JUMP JUMPDEST SWAP1 POP PUSH1 0x0 JUMPDEST DUP4 MLOAD DUP2 LT ISZERO PUSH2 0x2D44 JUMPI PUSH1 0x0 PUSH2 0x2B52 DUP3 DUP7 PUSH2 0x2368 SWAP1 SWAP2 SWAP1 PUSH4 0xFFFFFFFF AND JUMP JUMPDEST SWAP1 POP PUSH1 0x0 PUSH2 0x2B69 DUP4 DUP7 PUSH2 0x2368 SWAP1 SWAP2 SWAP1 PUSH4 0xFFFFFFFF AND JUMP JUMPDEST SWAP1 POP PUSH1 0x0 PUSH20 0xFFFFFFFFFFFFFFFFFFFFFFFFFFFFFFFFFFFFFFFF AND DUP9 PUSH20 0xFFFFFFFFFFFFFFFFFFFFFFFFFFFFFFFFFFFFFFFF AND EQ PUSH2 0x2C96 JUMPI PUSH1 0x0 DUP1 PUSH1 0x0 DUP5 DUP2 MSTORE PUSH1 0x20 ADD SWAP1 DUP2 MSTORE PUSH1 0x20 ADD PUSH1 0x0 KECCAK256 PUSH1 0x0 DUP11 PUSH20 0xFFFFFFFFFFFFFFFFFFFFFFFFFFFFFFFFFFFFFFFF AND PUSH20 0xFFFFFFFFFFFFFFFFFFFFFFFFFFFFFFFFFFFFFFFF AND DUP2 MSTORE PUSH1 0x20 ADD SWAP1 DUP2 MSTORE PUSH1 0x20 ADD PUSH1 0x0 KECCAK256 SLOAD SWAP1 POP DUP2 DUP2 LT ISZERO PUSH2 0x2C3E JUMPI DUP9 DUP2 DUP4 DUP6 PUSH1 0x40 MLOAD PUSH32 0x3DEE4C500000000000000000000000000000000000000000000000000000000 DUP2 MSTORE PUSH1 0x4 ADD PUSH2 0x2C35 SWAP5 SWAP4 SWAP3 SWAP2 SWAP1 PUSH2 0x47FB JUMP JUMPDEST PUSH1 0x40 MLOAD DUP1 SWAP2 SUB SWAP1 REVERT JUMPDEST DUP2 DUP2 SUB PUSH1 0x0 DUP1 DUP6 DUP2 MSTORE PUSH1 0x20 ADD SWAP1 DUP2 MSTORE PUSH1 0x20 ADD PUSH1 0x0 KECCAK256 PUSH1 0x0 DUP12 PUSH20 0xFFFFFFFFFFFFFFFFFFFFFFFFFFFFFFFFFFFFFFFF AND PUSH20 0xFFFFFFFFFFFFFFFFFFFFFFFFFFFFFFFFFFFFFFFF AND DUP2 MSTORE PUSH1 0x20 ADD SWAP1 DUP2 MSTORE PUSH1 0x20 ADD PUSH1 0x0 KECCAK256 DUP2 SWAP1 SSTORE POP POP JUMPDEST PUSH1 0x0 PUSH20 0xFFFFFFFFFFFFFFFFFFFFFFFFFFFFFFFFFFFFFFFF AND DUP8 PUSH20 0xFFFFFFFFFFFFFFFFFFFFFFFFFFFFFFFFFFFFFFFF AND EQ PUSH2 0x2D31 JUMPI DUP1 PUSH1 0x0 DUP1 DUP5 DUP2 MSTORE PUSH1 0x20 ADD SWAP1 DUP2 MSTORE PUSH1 0x20 ADD PUSH1 0x0 KECCAK256 PUSH1 0x0 DUP10 PUSH20 0xFFFFFFFFFFFFFFFFFFFFFFFFFFFFFFFFFFFFFFFF AND PUSH20 0xFFFFFFFFFFFFFFFFFFFFFFFFFFFFFFFFFFFFFFFF AND DUP2 MSTORE PUSH1 0x20 ADD SWAP1 DUP2 MSTORE PUSH1 0x20 ADD PUSH1 0x0 KECCAK256 PUSH1 0x0 DUP3 DUP3 SLOAD PUSH2 0x2D29 SWAP2 SWAP1 PUSH2 0x43EA JUMP JUMPDEST SWAP3 POP POP DUP2 SWAP1 SSTORE POP JUMPDEST POP POP DUP1 PUSH2 0x2D3D SWAP1 PUSH2 0x40DD JUMP JUMPDEST SWAP1 POP PUSH2 0x2B34 JUMP JUMPDEST POP PUSH1 0x1 DUP4 MLOAD SUB PUSH2 0x2E03 JUMPI PUSH1 0x0 PUSH2 0x2D64 PUSH1 0x0 DUP6 PUSH2 0x2368 SWAP1 SWAP2 SWAP1 PUSH4 0xFFFFFFFF AND JUMP JUMPDEST SWAP1 POP PUSH1 0x0 PUSH2 0x2D7C PUSH1 0x0 DUP6 PUSH2 0x2368 SWAP1 SWAP2 SWAP1 PUSH4 0xFFFFFFFF AND JUMP JUMPDEST SWAP1 POP DUP6 PUSH20 0xFFFFFFFFFFFFFFFFFFFFFFFFFFFFFFFFFFFFFFFF AND DUP8 PUSH20 0xFFFFFFFFFFFFFFFFFFFFFFFFFFFFFFFFFFFFFFFF AND DUP5 PUSH20 0xFFFFFFFFFFFFFFFFFFFFFFFFFFFFFFFFFFFFFFFF AND PUSH32 0xC3D58168C5AE7397731D063D5BBF3D657854427343F4C083240F7AACAA2D0F62 DUP6 DUP6 PUSH1 0x40 MLOAD PUSH2 0x2DF4 SWAP3 SWAP2 SWAP1 PUSH2 0x441E JUMP JUMPDEST PUSH1 0x40 MLOAD DUP1 SWAP2 SUB SWAP1 LOG4 POP POP PUSH2 0x2E82 JUMP JUMPDEST DUP4 PUSH20 0xFFFFFFFFFFFFFFFFFFFFFFFFFFFFFFFFFFFFFFFF AND DUP6 PUSH20 0xFFFFFFFFFFFFFFFFFFFFFFFFFFFFFFFFFFFFFFFF AND DUP3 PUSH20 0xFFFFFFFFFFFFFFFFFFFFFFFFFFFFFFFFFFFFFFFF AND PUSH32 0x4A39DC06D4C0DBC64B70AF90FD698A233A518AA5D07E595D983B8C0526C8F7FB DUP7 DUP7 PUSH1 0x40 MLOAD PUSH2 0x2E79 SWAP3 SWAP2 SWAP1 PUSH2 0x4840 JUMP JUMPDEST PUSH1 0x40 MLOAD DUP1 SWAP2 SUB SWAP1 LOG4 JUMPDEST POP POP POP POP POP JUMP JUMPDEST PUSH1 0x0 DUP5 PUSH20 0xFFFFFFFFFFFFFFFFFFFFFFFFFFFFFFFFFFFFFFFF AND EXTCODESIZE GT ISZERO PUSH2 0x3035 JUMPI DUP4 PUSH20 0xFFFFFFFFFFFFFFFFFFFFFFFFFFFFFFFFFFFFFFFF AND PUSH4 0xF23A6E61 DUP8 DUP8 DUP7 DUP7 DUP7 PUSH1 0x40 MLOAD DUP7 PUSH4 0xFFFFFFFF AND PUSH1 0xE0 SHL DUP2 MSTORE PUSH1 0x4 ADD PUSH2 0x2EEA SWAP6 SWAP5 SWAP4 SWAP3 SWAP2 SWAP1 PUSH2 0x48CC JUMP JUMPDEST PUSH1 0x20 PUSH1 0x40 MLOAD DUP1 DUP4 SUB DUP2 PUSH1 0x0 DUP8 GAS CALL SWAP3 POP POP POP DUP1 ISZERO PUSH2 0x2F26 JUMPI POP PUSH1 0x40 MLOAD RETURNDATASIZE PUSH1 0x1F NOT PUSH1 0x1F DUP3 ADD AND DUP3 ADD DUP1 PUSH1 0x40 MSTORE POP DUP2 ADD SWAP1 PUSH2 0x2F23 SWAP2 SWAP1 PUSH2 0x493B JUMP JUMPDEST PUSH1 0x1 JUMPDEST PUSH2 0x2FAA JUMPI RETURNDATASIZE DUP1 PUSH1 0x0 DUP2 EQ PUSH2 0x2F56 JUMPI PUSH1 0x40 MLOAD SWAP2 POP PUSH1 0x1F NOT PUSH1 0x3F RETURNDATASIZE ADD AND DUP3 ADD PUSH1 0x40 MSTORE RETURNDATASIZE DUP3 MSTORE RETURNDATASIZE PUSH1 0x0 PUSH1 0x20 DUP5 ADD RETURNDATACOPY PUSH2 0x2F5B JUMP JUMPDEST PUSH1 0x60 SWAP2 POP JUMPDEST POP PUSH1 0x0 DUP2 MLOAD SUB PUSH2 0x2FA2 JUMPI DUP5 PUSH1 0x40 MLOAD PUSH32 0x57F447CE00000000000000000000000000000000000000000000000000000000 DUP2 MSTORE PUSH1 0x4 ADD PUSH2 0x2F99 SWAP2 SWAP1 PUSH2 0x47B7 JUMP JUMPDEST PUSH1 0x40 MLOAD DUP1 SWAP2 SUB SWAP1 REVERT JUMPDEST DUP1 MLOAD PUSH1 0x20 DUP3 ADD REVERT JUMPDEST PUSH4 0xF23A6E61 PUSH1 0xE0 SHL PUSH28 0xFFFFFFFFFFFFFFFFFFFFFFFFFFFFFFFFFFFFFFFFFFFFFFFFFFFFFFFF NOT AND DUP2 PUSH28 0xFFFFFFFFFFFFFFFFFFFFFFFFFFFFFFFFFFFFFFFFFFFFFFFFFFFFFFFF NOT AND EQ PUSH2 0x3033 JUMPI DUP5 PUSH1 0x40 MLOAD PUSH32 0x57F447CE00000000000000000000000000000000000000000000000000000000 DUP2 MSTORE PUSH1 0x4 ADD PUSH2 0x302A SWAP2 SWAP1 PUSH2 0x47B7 JUMP JUMPDEST PUSH1 0x40 MLOAD DUP1 SWAP2 SUB SWAP1 REVERT JUMPDEST POP JUMPDEST POP POP POP POP POP POP JUMP JUMPDEST PUSH1 0x0 DUP5 PUSH20 0xFFFFFFFFFFFFFFFFFFFFFFFFFFFFFFFFFFFFFFFF AND EXTCODESIZE GT ISZERO PUSH2 0x31E9 JUMPI DUP4 PUSH20 0xFFFFFFFFFFFFFFFFFFFFFFFFFFFFFFFFFFFFFFFF AND PUSH4 0xBC197C81 DUP8 DUP8 DUP7 DUP7 DUP7 PUSH1 0x40 MLOAD DUP7 PUSH4 0xFFFFFFFF AND PUSH1 0xE0 SHL DUP2 MSTORE PUSH1 0x4 ADD PUSH2 0x309E SWAP6 SWAP5 SWAP4 SWAP3 SWAP2 SWAP1 PUSH2 0x4968 JUMP JUMPDEST PUSH1 0x20 PUSH1 0x40 MLOAD DUP1 DUP4 SUB DUP2 PUSH1 0x0 DUP8 GAS CALL SWAP3 POP POP POP DUP1 ISZERO PUSH2 0x30DA JUMPI POP PUSH1 0x40 MLOAD RETURNDATASIZE PUSH1 0x1F NOT PUSH1 0x1F DUP3 ADD AND DUP3 ADD DUP1 PUSH1 0x40 MSTORE POP DUP2 ADD SWAP1 PUSH2 0x30D7 SWAP2 SWAP1 PUSH2 0x493B JUMP JUMPDEST PUSH1 0x1 JUMPDEST PUSH2 0x315E JUMPI RETURNDATASIZE DUP1 PUSH1 0x0 DUP2 EQ PUSH2 0x310A JUMPI PUSH1 0x40 MLOAD SWAP2 POP PUSH1 0x1F NOT PUSH1 0x3F RETURNDATASIZE ADD AND DUP3 ADD PUSH1 0x40 MSTORE RETURNDATASIZE DUP3 MSTORE RETURNDATASIZE PUSH1 0x0 PUSH1 0x20 DUP5 ADD RETURNDATACOPY PUSH2 0x310F JUMP JUMPDEST PUSH1 0x60 SWAP2 POP JUMPDEST POP PUSH1 0x0 DUP2 MLOAD SUB PUSH2 0x3156 JUMPI DUP5 PUSH1 0x40 MLOAD PUSH32 0x57F447CE00000000000000000000000000000000000000000000000000000000 DUP2 MSTORE PUSH1 0x4 ADD PUSH2 0x314D SWAP2 SWAP1 PUSH2 0x47B7 JUMP JUMPDEST PUSH1 0x40 MLOAD DUP1 SWAP2 SUB SWAP1 REVERT JUMPDEST DUP1 MLOAD PUSH1 0x20 DUP3 ADD REVERT JUMPDEST PUSH4 0xBC197C81 PUSH1 0xE0 SHL PUSH28 0xFFFFFFFFFFFFFFFFFFFFFFFFFFFFFFFFFFFFFFFFFFFFFFFFFFFFFFFF NOT AND DUP2 PUSH28 0xFFFFFFFFFFFFFFFFFFFFFFFFFFFFFFFFFFFFFFFFFFFFFFFFFFFFFFFF NOT AND EQ PUSH2 0x31E7 JUMPI DUP5 PUSH1 0x40 MLOAD PUSH32 0x57F447CE00000000000000000000000000000000000000000000000000000000 DUP2 MSTORE PUSH1 0x4 ADD PUSH2 0x31DE SWAP2 SWAP1 PUSH2 0x47B7 JUMP JUMPDEST PUSH1 0x40 MLOAD DUP1 SWAP2 SUB SWAP1 REVERT JUMPDEST POP JUMPDEST POP POP POP POP POP POP JUMP JUMPDEST PUSH1 0x40 MLOAD DUP1 PUSH1 0xE0 ADD PUSH1 0x40 MSTORE DUP1 PUSH1 0x0 DUP2 MSTORE PUSH1 0x20 ADD PUSH1 0x0 DUP2 MSTORE PUSH1 0x20 ADD PUSH1 0x0 DUP2 MSTORE PUSH1 0x20 ADD PUSH1 0x0 DUP2 MSTORE PUSH1 0x20 ADD PUSH1 0x0 DUP1 NOT AND DUP2 MSTORE PUSH1 0x20 ADD PUSH1 0x0 PUSH20 0xFFFFFFFFFFFFFFFFFFFFFFFFFFFFFFFFFFFFFFFF AND DUP2 MSTORE PUSH1 0x20 ADD PUSH1 0x0 ISZERO ISZERO DUP2 MSTORE POP SWAP1 JUMP JUMPDEST PUSH1 0x0 PUSH1 0x40 MLOAD SWAP1 POP SWAP1 JUMP JUMPDEST PUSH1 0x0 DUP1 REVERT JUMPDEST PUSH1 0x0 DUP1 REVERT JUMPDEST PUSH1 0x0 PUSH20 0xFFFFFFFFFFFFFFFFFFFFFFFFFFFFFFFFFFFFFFFF DUP3 AND SWAP1 POP SWAP2 SWAP1 POP JUMP JUMPDEST PUSH1 0x0 PUSH2 0x3288 DUP3 PUSH2 0x325D JUMP JUMPDEST SWAP1 POP SWAP2 SWAP1 POP JUMP JUMPDEST PUSH2 0x3298 DUP2 PUSH2 0x327D JUMP JUMPDEST DUP2 EQ PUSH2 0x32A3 JUMPI PUSH1 0x0 DUP1 REVERT JUMPDEST POP JUMP JUMPDEST PUSH1 0x0 DUP2 CALLDATALOAD SWAP1 POP PUSH2 0x32B5 DUP2 PUSH2 0x328F JUMP JUMPDEST SWAP3 SWAP2 POP POP JUMP JUMPDEST PUSH1 0x0 DUP2 SWAP1 POP SWAP2 SWAP1 POP JUMP JUMPDEST PUSH2 0x32CE DUP2 PUSH2 0x32BB JUMP JUMPDEST DUP2 EQ PUSH2 0x32D9 JUMPI PUSH1 0x0 DUP1 REVERT JUMPDEST POP JUMP JUMPDEST PUSH1 0x0 DUP2 CALLDATALOAD SWAP1 POP PUSH2 0x32EB DUP2 PUSH2 0x32C5 JUMP JUMPDEST SWAP3 SWAP2 POP POP JUMP JUMPDEST PUSH1 0x0 DUP1 PUSH1 0x40 DUP4 DUP6 SUB SLT ISZERO PUSH2 0x3308 JUMPI PUSH2 0x3307 PUSH2 0x3253 JUMP JUMPDEST JUMPDEST PUSH1 0x0 PUSH2 0x3316 DUP6 DUP3 DUP7 ADD PUSH2 0x32A6 JUMP JUMPDEST SWAP3 POP POP PUSH1 0x20 PUSH2 0x3327 DUP6 DUP3 DUP7 ADD PUSH2 0x32DC JUMP JUMPDEST SWAP2 POP POP SWAP3 POP SWAP3 SWAP1 POP JUMP JUMPDEST PUSH2 0x333A DUP2 PUSH2 0x32BB JUMP JUMPDEST DUP3 MSTORE POP POP JUMP JUMPDEST PUSH1 0x0 PUSH1 0x20 DUP3 ADD SWAP1 POP PUSH2 0x3355 PUSH1 0x0 DUP4 ADD DUP5 PUSH2 0x3331 JUMP JUMPDEST SWAP3 SWAP2 POP POP JUMP JUMPDEST PUSH1 0x0 PUSH32 0xFFFFFFFF00000000000000000000000000000000000000000000000000000000 DUP3 AND SWAP1 POP SWAP2 SWAP1 POP JUMP JUMPDEST PUSH2 0x3390 DUP2 PUSH2 0x335B JUMP JUMPDEST DUP2 EQ PUSH2 0x339B JUMPI PUSH1 0x0 DUP1 REVERT JUMPDEST POP JUMP JUMPDEST PUSH1 0x0 DUP2 CALLDATALOAD SWAP1 POP PUSH2 0x33AD DUP2 PUSH2 0x3387 JUMP JUMPDEST SWAP3 SWAP2 POP POP JUMP JUMPDEST PUSH1 0x0 PUSH1 0x20 DUP3 DUP5 SUB SLT ISZERO PUSH2 0x33C9 JUMPI PUSH2 0x33C8 PUSH2 0x3253 JUMP JUMPDEST JUMPDEST PUSH1 0x0 PUSH2 0x33D7 DUP5 DUP3 DUP6 ADD PUSH2 0x339E JUMP JUMPDEST SWAP2 POP POP SWAP3 SWAP2 POP POP JUMP JUMPDEST PUSH1 0x0 DUP2 ISZERO ISZERO SWAP1 POP SWAP2 SWAP1 POP JUMP JUMPDEST PUSH2 0x33F5 DUP2 PUSH2 0x33E0 JUMP JUMPDEST DUP3 MSTORE POP POP JUMP JUMPDEST PUSH1 0x0 PUSH1 0x20 DUP3 ADD SWAP1 POP PUSH2 0x3410 PUSH1 0x0 DUP4 ADD DUP5 PUSH2 0x33EC JUMP JUMPDEST SWAP3 SWAP2 POP POP JUMP JUMPDEST PUSH1 0x0 DUP2 SWAP1 POP SWAP2 SWAP1 POP JUMP JUMPDEST PUSH2 0x3429 DUP2 PUSH2 0x3416 JUMP JUMPDEST DUP3 MSTORE POP POP JUMP JUMPDEST PUSH1 0x0 PUSH1 0x20 DUP3 ADD SWAP1 POP PUSH2 0x3444 PUSH1 0x0 DUP4 ADD DUP5 PUSH2 0x3420 JUMP JUMPDEST SWAP3 SWAP2 POP POP JUMP JUMPDEST PUSH1 0x0 PUSH1 0x20 DUP3 DUP5 SUB SLT ISZERO PUSH2 0x3460 JUMPI PUSH2 0x345F PUSH2 0x3253 JUMP JUMPDEST JUMPDEST PUSH1 0x0 PUSH2 0x346E DUP5 DUP3 DUP6 ADD PUSH2 0x32A6 JUMP JUMPDEST SWAP2 POP POP SWAP3 SWAP2 POP POP JUMP JUMPDEST PUSH1 0x0 DUP2 MLOAD SWAP1 POP SWAP2 SWAP1 POP JUMP JUMPDEST PUSH1 0x0 DUP3 DUP3 MSTORE PUSH1 0x20 DUP3 ADD SWAP1 POP SWAP3 SWAP2 POP POP JUMP JUMPDEST PUSH1 0x0 DUP2 SWAP1 POP PUSH1 0x20 DUP3 ADD SWAP1 POP SWAP2 SWAP1 POP JUMP JUMPDEST PUSH1 0x0 DUP2 MLOAD SWAP1 POP SWAP2 SWAP1 POP JUMP JUMPDEST PUSH1 0x0 DUP3 DUP3 MSTORE PUSH1 0x20 DUP3 ADD SWAP1 POP SWAP3 SWAP2 POP POP JUMP JUMPDEST PUSH1 0x0 JUMPDEST DUP4 DUP2 LT ISZERO PUSH2 0x34DD JUMPI DUP1 DUP3 ADD MLOAD DUP2 DUP5 ADD MSTORE PUSH1 0x20 DUP2 ADD SWAP1 POP PUSH2 0x34C2 JUMP JUMPDEST PUSH1 0x0 DUP5 DUP5 ADD MSTORE POP POP POP POP JUMP JUMPDEST PUSH1 0x0 PUSH1 0x1F NOT PUSH1 0x1F DUP4 ADD AND SWAP1 POP SWAP2 SWAP1 POP JUMP JUMPDEST PUSH1 0x0 PUSH2 0x3505 DUP3 PUSH2 0x34A3 JUMP JUMPDEST PUSH2 0x350F DUP2 DUP6 PUSH2 0x34AE JUMP JUMPDEST SWAP4 POP PUSH2 0x351F DUP2 DUP6 PUSH1 0x20 DUP7 ADD PUSH2 0x34BF JUMP JUMPDEST PUSH2 0x3528 DUP2 PUSH2 0x34E9 JUMP JUMPDEST DUP5 ADD SWAP2 POP POP SWAP3 SWAP2 POP POP JUMP JUMPDEST PUSH1 0x0 PUSH2 0x353F DUP4 DUP4 PUSH2 0x34FA JUMP JUMPDEST SWAP1 POP SWAP3 SWAP2 POP POP JUMP JUMPDEST PUSH1 0x0 PUSH1 0x20 DUP3 ADD SWAP1 POP SWAP2 SWAP1 POP JUMP JUMPDEST PUSH1 0x0 PUSH2 0x355F DUP3 PUSH2 0x3477 JUMP JUMPDEST PUSH2 0x3569 DUP2 DUP6 PUSH2 0x3482 JUMP JUMPDEST SWAP4 POP DUP4 PUSH1 0x20 DUP3 MUL DUP6 ADD PUSH2 0x357B DUP6 PUSH2 0x3493 JUMP JUMPDEST DUP1 PUSH1 0x0 JUMPDEST DUP6 DUP2 LT ISZERO PUSH2 0x35B7 JUMPI DUP5 DUP5 SUB DUP10 MSTORE DUP2 MLOAD PUSH2 0x3598 DUP6 DUP3 PUSH2 0x3533 JUMP JUMPDEST SWAP5 POP PUSH2 0x35A3 DUP4 PUSH2 0x3547 JUMP JUMPDEST SWAP3 POP PUSH1 0x20 DUP11 ADD SWAP10 POP POP PUSH1 0x1 DUP2 ADD SWAP1 POP PUSH2 0x357F JUMP JUMPDEST POP DUP3 SWAP8 POP DUP8 SWAP6 POP POP POP POP POP POP SWAP3 SWAP2 POP POP JUMP JUMPDEST PUSH1 0x0 PUSH1 0x20 DUP3 ADD SWAP1 POP DUP2 DUP2 SUB PUSH1 0x0 DUP4 ADD MSTORE PUSH2 0x35E3 DUP2 DUP5 PUSH2 0x3554 JUMP JUMPDEST SWAP1 POP SWAP3 SWAP2 POP POP JUMP JUMPDEST PUSH1 0x0 DUP3 DUP3 MSTORE PUSH1 0x20 DUP3 ADD SWAP1 POP SWAP3 SWAP2 POP POP JUMP JUMPDEST PUSH1 0x0 PUSH2 0x3607 DUP3 PUSH2 0x34A3 JUMP JUMPDEST PUSH2 0x3611 DUP2 DUP6 PUSH2 0x35EB JUMP JUMPDEST SWAP4 POP PUSH2 0x3621 DUP2 DUP6 PUSH1 0x20 DUP7 ADD PUSH2 0x34BF JUMP JUMPDEST PUSH2 0x362A DUP2 PUSH2 0x34E9 JUMP JUMPDEST DUP5 ADD SWAP2 POP POP SWAP3 SWAP2 POP POP JUMP JUMPDEST PUSH1 0x0 PUSH1 0x20 DUP3 ADD SWAP1 POP DUP2 DUP2 SUB PUSH1 0x0 DUP4 ADD MSTORE PUSH2 0x364F DUP2 DUP5 PUSH2 0x35FC JUMP JUMPDEST SWAP1 POP SWAP3 SWAP2 POP POP JUMP JUMPDEST PUSH1 0x0 PUSH1 0x20 DUP3 DUP5 SUB SLT ISZERO PUSH2 0x366D JUMPI PUSH2 0x366C PUSH2 0x3253 JUMP JUMPDEST JUMPDEST PUSH1 0x0 PUSH2 0x367B DUP5 DUP3 DUP6 ADD PUSH2 0x32DC JUMP JUMPDEST SWAP2 POP POP SWAP3 SWAP2 POP POP JUMP JUMPDEST PUSH2 0x368D DUP2 PUSH2 0x3416 JUMP JUMPDEST DUP2 EQ PUSH2 0x3698 JUMPI PUSH1 0x0 DUP1 REVERT JUMPDEST POP JUMP JUMPDEST PUSH1 0x0 DUP2 CALLDATALOAD SWAP1 POP PUSH2 0x36AA DUP2 PUSH2 0x3684 JUMP JUMPDEST SWAP3 SWAP2 POP POP JUMP JUMPDEST PUSH1 0x0 PUSH1 0x20 DUP3 DUP5 SUB SLT ISZERO PUSH2 0x36C6 JUMPI PUSH2 0x36C5 PUSH2 0x3253 JUMP JUMPDEST JUMPDEST PUSH1 0x0 PUSH2 0x36D4 DUP5 DUP3 DUP6 ADD PUSH2 0x369B JUMP JUMPDEST SWAP2 POP POP SWAP3 SWAP2 POP POP JUMP JUMPDEST PUSH1 0x0 DUP1 REVERT JUMPDEST PUSH32 0x4E487B7100000000000000000000000000000000000000000000000000000000 PUSH1 0x0 MSTORE PUSH1 0x41 PUSH1 0x4 MSTORE PUSH1 0x24 PUSH1 0x0 REVERT JUMPDEST PUSH2 0x371A DUP3 PUSH2 0x34E9 JUMP JUMPDEST DUP2 ADD DUP2 DUP2 LT PUSH8 0xFFFFFFFFFFFFFFFF DUP3 GT OR ISZERO PUSH2 0x3739 JUMPI PUSH2 0x3738 PUSH2 0x36E2 JUMP JUMPDEST JUMPDEST DUP1 PUSH1 0x40 MSTORE POP POP POP JUMP JUMPDEST PUSH1 0x0 PUSH2 0x374C PUSH2 0x3249 JUMP JUMPDEST SWAP1 POP PUSH2 0x3758 DUP3 DUP3 PUSH2 0x3711 JUMP JUMPDEST SWAP2 SWAP1 POP JUMP JUMPDEST PUSH1 0x0 PUSH8 0xFFFFFFFFFFFFFFFF DUP3 GT ISZERO PUSH2 0x3778 JUMPI PUSH2 0x3777 PUSH2 0x36E2 JUMP JUMPDEST JUMPDEST PUSH1 0x20 DUP3 MUL SWAP1 POP PUSH1 0x20 DUP2 ADD SWAP1 POP SWAP2 SWAP1 POP JUMP JUMPDEST PUSH1 0x0 DUP1 REVERT JUMPDEST PUSH1 0x0 PUSH2 0x37A1 PUSH2 0x379C DUP5 PUSH2 0x375D JUMP JUMPDEST PUSH2 0x3742 JUMP JUMPDEST SWAP1 POP DUP1 DUP4 DUP3 MSTORE PUSH1 0x20 DUP3 ADD SWAP1 POP PUSH1 0x20 DUP5 MUL DUP4 ADD DUP6 DUP2 GT ISZERO PUSH2 0x37C4 JUMPI PUSH2 0x37C3 PUSH2 0x3789 JUMP JUMPDEST JUMPDEST DUP4 JUMPDEST DUP2 DUP2 LT ISZERO PUSH2 0x37ED JUMPI DUP1 PUSH2 0x37D9 DUP9 DUP3 PUSH2 0x32DC JUMP JUMPDEST DUP5 MSTORE PUSH1 0x20 DUP5 ADD SWAP4 POP POP PUSH1 0x20 DUP2 ADD SWAP1 POP PUSH2 0x37C6 JUMP JUMPDEST POP POP POP SWAP4 SWAP3 POP POP POP JUMP JUMPDEST PUSH1 0x0 DUP3 PUSH1 0x1F DUP4 ADD SLT PUSH2 0x380C JUMPI PUSH2 0x380B PUSH2 0x36DD JUMP JUMPDEST JUMPDEST DUP2 CALLDATALOAD PUSH2 0x381C DUP5 DUP3 PUSH1 0x20 DUP7 ADD PUSH2 0x378E JUMP JUMPDEST SWAP2 POP POP SWAP3 SWAP2 POP POP JUMP JUMPDEST PUSH1 0x0 DUP1 REVERT JUMPDEST PUSH1 0x0 PUSH8 0xFFFFFFFFFFFFFFFF DUP3 GT ISZERO PUSH2 0x3845 JUMPI PUSH2 0x3844 PUSH2 0x36E2 JUMP JUMPDEST JUMPDEST PUSH2 0x384E DUP3 PUSH2 0x34E9 JUMP JUMPDEST SWAP1 POP PUSH1 0x20 DUP2 ADD SWAP1 POP SWAP2 SWAP1 POP JUMP JUMPDEST DUP3 DUP2 DUP4 CALLDATACOPY PUSH1 0x0 DUP4 DUP4 ADD MSTORE POP POP POP JUMP JUMPDEST PUSH1 0x0 PUSH2 0x387D PUSH2 0x3878 DUP5 PUSH2 0x382A JUMP JUMPDEST PUSH2 0x3742 JUMP JUMPDEST SWAP1 POP DUP3 DUP2 MSTORE PUSH1 0x20 DUP2 ADD DUP5 DUP5 DUP5 ADD GT ISZERO PUSH2 0x3899 JUMPI PUSH2 0x3898 PUSH2 0x3825 JUMP JUMPDEST JUMPDEST PUSH2 0x38A4 DUP5 DUP3 DUP6 PUSH2 0x385B JUMP JUMPDEST POP SWAP4 SWAP3 POP POP POP JUMP JUMPDEST PUSH1 0x0 DUP3 PUSH1 0x1F DUP4 ADD SLT PUSH2 0x38C1 JUMPI PUSH2 0x38C0 PUSH2 0x36DD JUMP JUMPDEST JUMPDEST DUP2 CALLDATALOAD PUSH2 0x38D1 DUP5 DUP3 PUSH1 0x20 DUP7 ADD PUSH2 0x386A JUMP JUMPDEST SWAP2 POP POP SWAP3 SWAP2 POP POP JUMP JUMPDEST PUSH1 0x0 DUP1 PUSH1 0x0 DUP1 PUSH1 0x0 PUSH1 0xA0 DUP7 DUP9 SUB SLT ISZERO PUSH2 0x38F6 JUMPI PUSH2 0x38F5 PUSH2 0x3253 JUMP JUMPDEST JUMPDEST PUSH1 0x0 PUSH2 0x3904 DUP9 DUP3 DUP10 ADD PUSH2 0x32A6 JUMP JUMPDEST SWAP6 POP POP PUSH1 0x20 PUSH2 0x3915 DUP9 DUP3 DUP10 ADD PUSH2 0x32A6 JUMP JUMPDEST SWAP5 POP POP PUSH1 0x40 DUP7 ADD CALLDATALOAD PUSH8 0xFFFFFFFFFFFFFFFF DUP2 GT ISZERO PUSH2 0x3936 JUMPI PUSH2 0x3935 PUSH2 0x3258 JUMP JUMPDEST JUMPDEST PUSH2 0x3942 DUP9 DUP3 DUP10 ADD PUSH2 0x37F7 JUMP JUMPDEST SWAP4 POP POP PUSH1 0x60 DUP7 ADD CALLDATALOAD PUSH8 0xFFFFFFFFFFFFFFFF DUP2 GT ISZERO PUSH2 0x3963 JUMPI PUSH2 0x3962 PUSH2 0x3258 JUMP JUMPDEST JUMPDEST PUSH2 0x396F DUP9 DUP3 DUP10 ADD PUSH2 0x37F7 JUMP JUMPDEST SWAP3 POP POP PUSH1 0x80 DUP7 ADD CALLDATALOAD PUSH8 0xFFFFFFFFFFFFFFFF DUP2 GT ISZERO PUSH2 0x3990 JUMPI PUSH2 0x398F PUSH2 0x3258 JUMP JUMPDEST JUMPDEST PUSH2 0x399C DUP9 DUP3 DUP10 ADD PUSH2 0x38AC JUMP JUMPDEST SWAP2 POP POP SWAP3 SWAP6 POP SWAP3 SWAP6 SWAP1 SWAP4 POP JUMP JUMPDEST PUSH1 0x0 DUP1 PUSH1 0x40 DUP4 DUP6 SUB SLT ISZERO PUSH2 0x39C0 JUMPI PUSH2 0x39BF PUSH2 0x3253 JUMP JUMPDEST JUMPDEST PUSH1 0x0 PUSH2 0x39CE DUP6 DUP3 DUP7 ADD PUSH2 0x369B JUMP JUMPDEST SWAP3 POP POP PUSH1 0x20 PUSH2 0x39DF DUP6 DUP3 DUP7 ADD PUSH2 0x32A6 JUMP JUMPDEST SWAP2 POP POP SWAP3 POP SWAP3 SWAP1 POP JUMP JUMPDEST PUSH1 0x0 DUP1 PUSH1 0x0 PUSH1 0x60 DUP5 DUP7 SUB SLT ISZERO PUSH2 0x3A02 JUMPI PUSH2 0x3A01 PUSH2 0x3253 JUMP JUMPDEST JUMPDEST PUSH1 0x0 PUSH2 0x3A10 DUP7 DUP3 DUP8 ADD PUSH2 0x32DC JUMP JUMPDEST SWAP4 POP POP PUSH1 0x20 PUSH2 0x3A21 DUP7 DUP3 DUP8 ADD PUSH2 0x32A6 JUMP JUMPDEST SWAP3 POP POP PUSH1 0x40 PUSH2 0x3A32 DUP7 DUP3 DUP8 ADD PUSH2 0x32DC JUMP JUMPDEST SWAP2 POP POP SWAP3 POP SWAP3 POP SWAP3 JUMP JUMPDEST PUSH1 0x0 PUSH8 0xFFFFFFFFFFFFFFFF DUP3 GT ISZERO PUSH2 0x3A57 JUMPI PUSH2 0x3A56 PUSH2 0x36E2 JUMP JUMPDEST JUMPDEST PUSH1 0x20 DUP3 MUL SWAP1 POP PUSH1 0x20 DUP2 ADD SWAP1 POP SWAP2 SWAP1 POP JUMP JUMPDEST PUSH1 0x0 PUSH2 0x3A7B PUSH2 0x3A76 DUP5 PUSH2 0x3A3C JUMP JUMPDEST PUSH2 0x3742 JUMP JUMPDEST SWAP1 POP DUP1 DUP4 DUP3 MSTORE PUSH1 0x20 DUP3 ADD SWAP1 POP PUSH1 0x20 DUP5 MUL DUP4 ADD DUP6 DUP2 GT ISZERO PUSH2 0x3A9E JUMPI PUSH2 0x3A9D PUSH2 0x3789 JUMP JUMPDEST JUMPDEST DUP4 JUMPDEST DUP2 DUP2 LT ISZERO PUSH2 0x3AC7 JUMPI DUP1 PUSH2 0x3AB3 DUP9 DUP3 PUSH2 0x32A6 JUMP JUMPDEST DUP5 MSTORE PUSH1 0x20 DUP5 ADD SWAP4 POP POP PUSH1 0x20 DUP2 ADD SWAP1 POP PUSH2 0x3AA0 JUMP JUMPDEST POP POP POP SWAP4 SWAP3 POP POP POP JUMP JUMPDEST PUSH1 0x0 DUP3 PUSH1 0x1F DUP4 ADD SLT PUSH2 0x3AE6 JUMPI PUSH2 0x3AE5 PUSH2 0x36DD JUMP JUMPDEST JUMPDEST DUP2 CALLDATALOAD PUSH2 0x3AF6 DUP5 DUP3 PUSH1 0x20 DUP7 ADD PUSH2 0x3A68 JUMP JUMPDEST SWAP2 POP POP SWAP3 SWAP2 POP POP JUMP JUMPDEST PUSH1 0x0 DUP1 PUSH1 0x40 DUP4 DUP6 SUB SLT ISZERO PUSH2 0x3B16 JUMPI PUSH2 0x3B15 PUSH2 0x3253 JUMP JUMPDEST JUMPDEST PUSH1 0x0 DUP4 ADD CALLDATALOAD PUSH8 0xFFFFFFFFFFFFFFFF DUP2 GT ISZERO PUSH2 0x3B34 JUMPI PUSH2 0x3B33 PUSH2 0x3258 JUMP JUMPDEST JUMPDEST PUSH2 0x3B40 DUP6 DUP3 DUP7 ADD PUSH2 0x3AD1 JUMP JUMPDEST SWAP3 POP POP PUSH1 0x20 DUP4 ADD CALLDATALOAD PUSH8 0xFFFFFFFFFFFFFFFF DUP2 GT ISZERO PUSH2 0x3B61 JUMPI PUSH2 0x3B60 PUSH2 0x3258 JUMP JUMPDEST JUMPDEST PUSH2 0x3B6D DUP6 DUP3 DUP7 ADD PUSH2 0x37F7 JUMP JUMPDEST SWAP2 POP POP SWAP3 POP SWAP3 SWAP1 POP JUMP JUMPDEST PUSH1 0x0 DUP2 MLOAD SWAP1 POP SWAP2 SWAP1 POP JUMP JUMPDEST PUSH1 0x0 DUP3 DUP3 MSTORE PUSH1 0x20 DUP3 ADD SWAP1 POP SWAP3 SWAP2 POP POP JUMP JUMPDEST PUSH1 0x0 DUP2 SWAP1 POP PUSH1 0x20 DUP3 ADD SWAP1 POP SWAP2 SWAP1 POP JUMP JUMPDEST PUSH2 0x3BAC DUP2 PUSH2 0x32BB JUMP JUMPDEST DUP3 MSTORE POP POP JUMP JUMPDEST PUSH1 0x0 PUSH2 0x3BBE DUP4 DUP4 PUSH2 0x3BA3 JUMP JUMPDEST PUSH1 0x20 DUP4 ADD SWAP1 POP SWAP3 SWAP2 POP POP JUMP JUMPDEST PUSH1 0x0 PUSH1 0x20 DUP3 ADD SWAP1 POP SWAP2 SWAP1 POP JUMP JUMPDEST PUSH1 0x0 PUSH2 0x3BE2 DUP3 PUSH2 0x3B77 JUMP JUMPDEST PUSH2 0x3BEC DUP2 DUP6 PUSH2 0x3B82 JUMP JUMPDEST SWAP4 POP PUSH2 0x3BF7 DUP4 PUSH2 0x3B93 JUMP JUMPDEST DUP1 PUSH1 0x0 JUMPDEST DUP4 DUP2 LT ISZERO PUSH2 0x3C28 JUMPI DUP2 MLOAD PUSH2 0x3C0F DUP9 DUP3 PUSH2 0x3BB2 JUMP JUMPDEST SWAP8 POP PUSH2 0x3C1A DUP4 PUSH2 0x3BCA JUMP JUMPDEST SWAP3 POP POP PUSH1 0x1 DUP2 ADD SWAP1 POP PUSH2 0x3BFB JUMP JUMPDEST POP DUP6 SWAP4 POP POP POP POP SWAP3 SWAP2 POP POP JUMP JUMPDEST PUSH1 0x0 PUSH1 0x20 DUP3 ADD SWAP1 POP DUP2 DUP2 SUB PUSH1 0x0 DUP4 ADD MSTORE PUSH2 0x3C4F DUP2 DUP5 PUSH2 0x3BD7 JUMP JUMPDEST SWAP1 POP SWAP3 SWAP2 POP POP JUMP JUMPDEST PUSH1 0x0 PUSH8 0xFFFFFFFFFFFFFFFF DUP3 GT ISZERO PUSH2 0x3C72 JUMPI PUSH2 0x3C71 PUSH2 0x36E2 JUMP JUMPDEST JUMPDEST PUSH2 0x3C7B DUP3 PUSH2 0x34E9 JUMP JUMPDEST SWAP1 POP PUSH1 0x20 DUP2 ADD SWAP1 POP SWAP2 SWAP1 POP JUMP JUMPDEST PUSH1 0x0 PUSH2 0x3C9B PUSH2 0x3C96 DUP5 PUSH2 0x3C57 JUMP JUMPDEST PUSH2 0x3742 JUMP JUMPDEST SWAP1 POP DUP3 DUP2 MSTORE PUSH1 0x20 DUP2 ADD DUP5 DUP5 DUP5 ADD GT ISZERO PUSH2 0x3CB7 JUMPI PUSH2 0x3CB6 PUSH2 0x3825 JUMP JUMPDEST JUMPDEST PUSH2 0x3CC2 DUP5 DUP3 DUP6 PUSH2 0x385B JUMP JUMPDEST POP SWAP4 SWAP3 POP POP POP JUMP JUMPDEST PUSH1 0x0 DUP3 PUSH1 0x1F DUP4 ADD SLT PUSH2 0x3CDF JUMPI PUSH2 0x3CDE PUSH2 0x36DD JUMP JUMPDEST JUMPDEST DUP2 CALLDATALOAD PUSH2 0x3CEF DUP5 DUP3 PUSH1 0x20 DUP7 ADD PUSH2 0x3C88 JUMP JUMPDEST SWAP2 POP POP SWAP3 SWAP2 POP POP JUMP JUMPDEST PUSH1 0x0 PUSH1 0x20 DUP3 DUP5 SUB SLT ISZERO PUSH2 0x3D0E JUMPI PUSH2 0x3D0D PUSH2 0x3253 JUMP JUMPDEST JUMPDEST PUSH1 0x0 DUP3 ADD CALLDATALOAD PUSH8 0xFFFFFFFFFFFFFFFF DUP2 GT ISZERO PUSH2 0x3D2C JUMPI PUSH2 0x3D2B PUSH2 0x3258 JUMP JUMPDEST JUMPDEST PUSH2 0x3D38 DUP5 DUP3 DUP6 ADD PUSH2 0x3CCA JUMP JUMPDEST SWAP2 POP POP SWAP3 SWAP2 POP POP JUMP JUMPDEST PUSH2 0x3D4A DUP2 PUSH2 0x3416 JUMP JUMPDEST DUP3 MSTORE POP POP JUMP JUMPDEST PUSH2 0x3D59 DUP2 PUSH2 0x327D JUMP JUMPDEST DUP3 MSTORE POP POP JUMP JUMPDEST PUSH2 0x3D68 DUP2 PUSH2 0x33E0 JUMP JUMPDEST DUP3 MSTORE POP POP JUMP JUMPDEST PUSH1 0xE0 DUP3 ADD PUSH1 0x0 DUP3 ADD MLOAD PUSH2 0x3D84 PUSH1 0x0 DUP6 ADD DUP3 PUSH2 0x3BA3 JUMP JUMPDEST POP PUSH1 0x20 DUP3 ADD MLOAD PUSH2 0x3D97 PUSH1 0x20 DUP6 ADD DUP3 PUSH2 0x3BA3 JUMP JUMPDEST POP PUSH1 0x40 DUP3 ADD MLOAD PUSH2 0x3DAA PUSH1 0x40 DUP6 ADD DUP3 PUSH2 0x3BA3 JUMP JUMPDEST POP PUSH1 0x60 DUP3 ADD MLOAD PUSH2 0x3DBD PUSH1 0x60 DUP6 ADD DUP3 PUSH2 0x3BA3 JUMP JUMPDEST POP PUSH1 0x80 DUP3 ADD MLOAD PUSH2 0x3DD0 PUSH1 0x80 DUP6 ADD DUP3 PUSH2 0x3D41 JUMP JUMPDEST POP PUSH1 0xA0 DUP3 ADD MLOAD PUSH2 0x3DE3 PUSH1 0xA0 DUP6 ADD DUP3 PUSH2 0x3D50 JUMP JUMPDEST POP PUSH1 0xC0 DUP3 ADD MLOAD PUSH2 0x3DF6 PUSH1 0xC0 DUP6 ADD DUP3 PUSH2 0x3D5F JUMP JUMPDEST POP POP POP POP JUMP JUMPDEST PUSH1 0x0 PUSH1 0xE0 DUP3 ADD SWAP1 POP PUSH2 0x3E11 PUSH1 0x0 DUP4 ADD DUP5 PUSH2 0x3D6E JUMP JUMPDEST SWAP3 SWAP2 POP POP JUMP JUMPDEST PUSH1 0x0 DUP1 PUSH1 0x40 DUP4 DUP6 SUB SLT ISZERO PUSH2 0x3E2E JUMPI PUSH2 0x3E2D PUSH2 0x3253 JUMP JUMPDEST JUMPDEST PUSH1 0x0 PUSH2 0x3E3C DUP6 DUP3 DUP7 ADD PUSH2 0x32DC JUMP JUMPDEST SWAP3 POP POP PUSH1 0x20 PUSH2 0x3E4D DUP6 DUP3 DUP7 ADD PUSH2 0x32DC JUMP JUMPDEST SWAP2 POP POP SWAP3 POP SWAP3 SWAP1 POP JUMP JUMPDEST PUSH1 0x0 DUP1 PUSH1 0x0 DUP1 PUSH1 0x80 DUP6 DUP8 SUB SLT ISZERO PUSH2 0x3E71 JUMPI PUSH2 0x3E70 PUSH2 0x3253 JUMP JUMPDEST JUMPDEST PUSH1 0x0 PUSH2 0x3E7F DUP8 DUP3 DUP9 ADD PUSH2 0x32DC JUMP JUMPDEST SWAP5 POP POP PUSH1 0x20 PUSH2 0x3E90 DUP8 DUP3 DUP9 ADD PUSH2 0x32A6 JUMP JUMPDEST SWAP4 POP POP PUSH1 0x40 PUSH2 0x3EA1 DUP8 DUP3 DUP9 ADD PUSH2 0x32A6 JUMP JUMPDEST SWAP3 POP POP PUSH1 0x60 PUSH2 0x3EB2 DUP8 DUP3 DUP9 ADD PUSH2 0x32DC JUMP JUMPDEST SWAP2 POP POP SWAP3 SWAP6 SWAP2 SWAP5 POP SWAP3 POP JUMP JUMPDEST PUSH2 0x3EC7 DUP2 PUSH2 0x33E0 JUMP JUMPDEST DUP2 EQ PUSH2 0x3ED2 JUMPI PUSH1 0x0 DUP1 REVERT JUMPDEST POP JUMP JUMPDEST PUSH1 0x0 DUP2 CALLDATALOAD SWAP1 POP PUSH2 0x3EE4 DUP2 PUSH2 0x3EBE JUMP JUMPDEST SWAP3 SWAP2 POP POP JUMP JUMPDEST PUSH1 0x0 DUP1 PUSH1 0x40 DUP4 DUP6 SUB SLT ISZERO PUSH2 0x3F01 JUMPI PUSH2 0x3F00 PUSH2 0x3253 JUMP JUMPDEST JUMPDEST PUSH1 0x0 PUSH2 0x3F0F DUP6 DUP3 DUP7 ADD PUSH2 0x32A6 JUMP JUMPDEST SWAP3 POP POP PUSH1 0x20 PUSH2 0x3F20 DUP6 DUP3 DUP7 ADD PUSH2 0x3ED5 JUMP JUMPDEST SWAP2 POP POP SWAP3 POP SWAP3 SWAP1 POP JUMP JUMPDEST PUSH2 0x3F33 DUP2 PUSH2 0x327D JUMP JUMPDEST DUP3 MSTORE POP POP JUMP JUMPDEST PUSH1 0x0 PUSH1 0xE0 DUP3 ADD SWAP1 POP PUSH2 0x3F4E PUSH1 0x0 DUP4 ADD DUP11 PUSH2 0x3331 JUMP JUMPDEST PUSH2 0x3F5B PUSH1 0x20 DUP4 ADD DUP10 PUSH2 0x3331 JUMP JUMPDEST PUSH2 0x3F68 PUSH1 0x40 DUP4 ADD DUP9 PUSH2 0x3331 JUMP JUMPDEST PUSH2 0x3F75 PUSH1 0x60 DUP4 ADD DUP8 PUSH2 0x3331 JUMP JUMPDEST PUSH2 0x3F82 PUSH1 0x80 DUP4 ADD DUP7 PUSH2 0x3420 JUMP JUMPDEST PUSH2 0x3F8F PUSH1 0xA0 DUP4 ADD DUP6 PUSH2 0x3F2A JUMP JUMPDEST PUSH2 0x3F9C PUSH1 0xC0 DUP4 ADD DUP5 PUSH2 0x33EC JUMP JUMPDEST SWAP9 SWAP8 POP POP POP POP POP POP POP POP JUMP JUMPDEST PUSH1 0x0 DUP1 PUSH1 0x40 DUP4 DUP6 SUB SLT ISZERO PUSH2 0x3FBF JUMPI PUSH2 0x3FBE PUSH2 0x3253 JUMP JUMPDEST JUMPDEST PUSH1 0x0 PUSH2 0x3FCD DUP6 DUP3 DUP7 ADD PUSH2 0x32A6 JUMP JUMPDEST SWAP3 POP POP PUSH1 0x20 PUSH2 0x3FDE DUP6 DUP3 DUP7 ADD PUSH2 0x32A6 JUMP JUMPDEST SWAP2 POP POP SWAP3 POP SWAP3 SWAP1 POP JUMP JUMPDEST PUSH1 0x0 DUP1 PUSH1 0x0 DUP1 PUSH1 0x0 PUSH1 0xA0 DUP7 DUP9 SUB SLT ISZERO PUSH2 0x4004 JUMPI PUSH2 0x4003 PUSH2 0x3253 JUMP JUMPDEST JUMPDEST PUSH1 0x0 PUSH2 0x4012 DUP9 DUP3 DUP10 ADD PUSH2 0x32A6 JUMP JUMPDEST SWAP6 POP POP PUSH1 0x20 PUSH2 0x4023 DUP9 DUP3 DUP10 ADD PUSH2 0x32A6 JUMP JUMPDEST SWAP5 POP POP PUSH1 0x40 PUSH2 0x4034 DUP9 DUP3 DUP10 ADD PUSH2 0x32DC JUMP JUMPDEST SWAP4 POP POP PUSH1 0x60 PUSH2 0x4045 DUP9 DUP3 DUP10 ADD PUSH2 0x32DC JUMP JUMPDEST SWAP3 POP POP PUSH1 0x80 DUP7 ADD CALLDATALOAD PUSH8 0xFFFFFFFFFFFFFFFF DUP2 GT ISZERO PUSH2 0x4066 JUMPI PUSH2 0x4065 PUSH2 0x3258 JUMP JUMPDEST JUMPDEST PUSH2 0x4072 DUP9 DUP3 DUP10 ADD PUSH2 0x38AC JUMP JUMPDEST SWAP2 POP POP SWAP3 SWAP6 POP SWAP3 SWAP6 SWAP1 SWAP4 POP JUMP JUMPDEST PUSH32 0x4E487B7100000000000000000000000000000000000000000000000000000000 PUSH1 0x0 MSTORE PUSH1 0x32 PUSH1 0x4 MSTORE PUSH1 0x24 PUSH1 0x0 REVERT JUMPDEST PUSH32 0x4E487B7100000000000000000000000000000000000000000000000000000000 PUSH1 0x0 MSTORE PUSH1 0x11 PUSH1 0x4 MSTORE PUSH1 0x24 PUSH1 0x0 REVERT JUMPDEST PUSH1 0x0 PUSH2 0x40E8 DUP3 PUSH2 0x32BB JUMP JUMPDEST SWAP2 POP PUSH32 0xFFFFFFFFFFFFFFFFFFFFFFFFFFFFFFFFFFFFFFFFFFFFFFFFFFFFFFFFFFFFFFFF DUP3 SUB PUSH2 0x411A JUMPI PUSH2 0x4119 PUSH2 0x40AE JUMP JUMPDEST JUMPDEST PUSH1 0x1 DUP3 ADD SWAP1 POP SWAP2 SWAP1 POP JUMP JUMPDEST PUSH32 0x4E487B7100000000000000000000000000000000000000000000000000000000 PUSH1 0x0 MSTORE PUSH1 0x22 PUSH1 0x4 MSTORE PUSH1 0x24 PUSH1 0x0 REVERT JUMPDEST PUSH1 0x0 PUSH1 0x2 DUP3 DIV SWAP1 POP PUSH1 0x1 DUP3 AND DUP1 PUSH2 0x416C JUMPI PUSH1 0x7F DUP3 AND SWAP2 POP JUMPDEST PUSH1 0x20 DUP3 LT DUP2 SUB PUSH2 0x417F JUMPI PUSH2 0x417E PUSH2 0x4125 JUMP JUMPDEST JUMPDEST POP SWAP2 SWAP1 POP JUMP JUMPDEST PUSH32 0x426174636820646F6573206E6F74206578697374000000000000000000000000 PUSH1 0x0 DUP3 ADD MSTORE POP JUMP JUMPDEST PUSH1 0x0 PUSH2 0x41BB PUSH1 0x14 DUP4 PUSH2 0x35EB JUMP JUMPDEST SWAP2 POP PUSH2 0x41C6 DUP3 PUSH2 0x4185 JUMP JUMPDEST PUSH1 0x20 DUP3 ADD SWAP1 POP SWAP2 SWAP1 POP JUMP JUMPDEST PUSH1 0x0 PUSH1 0x20 DUP3 ADD SWAP1 POP DUP2 DUP2 SUB PUSH1 0x0 DUP4 ADD MSTORE PUSH2 0x41EA DUP2 PUSH2 0x41AE JUMP JUMPDEST SWAP1 POP SWAP2 SWAP1 POP JUMP JUMPDEST PUSH1 0x0 DUP2 SWAP1 POP SWAP3 SWAP2 POP POP JUMP JUMPDEST PUSH1 0x0 DUP2 SWAP1 POP DUP2 PUSH1 0x0 MSTORE PUSH1 0x20 PUSH1 0x0 KECCAK256 SWAP1 POP SWAP2 SWAP1 POP JUMP JUMPDEST PUSH1 0x0 DUP2 SLOAD PUSH2 0x421E DUP2 PUSH2 0x4154 JUMP JUMPDEST PUSH2 0x4228 DUP2 DUP7 PUSH2 0x41F1 JUMP JUMPDEST SWAP5 POP PUSH1 0x1 DUP3 AND PUSH1 0x0 DUP2 EQ PUSH2 0x4243 JUMPI PUSH1 0x1 DUP2 EQ PUSH2 0x4258 JUMPI PUSH2 0x428B JUMP JUMPDEST PUSH1 0xFF NOT DUP4 AND DUP7 MSTORE DUP2 ISZERO ISZERO DUP3 MUL DUP7 ADD SWAP4 POP PUSH2 0x428B JUMP JUMPDEST PUSH2 0x4261 DUP6 PUSH2 0x41FC JUMP JUMPDEST PUSH1 0x0 JUMPDEST DUP4 DUP2 LT ISZERO PUSH2 0x4283 JUMPI DUP2 SLOAD DUP2 DUP10 ADD MSTORE PUSH1 0x1 DUP3 ADD SWAP2 POP PUSH1 0x20 DUP2 ADD SWAP1 POP PUSH2 0x4264 JUMP JUMPDEST DUP4 DUP9 ADD SWAP6 POP POP POP JUMPDEST POP POP POP SWAP3 SWAP2 POP POP JUMP JUMPDEST PUSH1 0x0 PUSH2 0x429F DUP3 PUSH2 0x34A3 JUMP JUMPDEST PUSH2 0x42A9 DUP2 DUP6 PUSH2 0x41F1 JUMP JUMPDEST SWAP4 POP PUSH2 0x42B9 DUP2 DUP6 PUSH1 0x20 DUP7 ADD PUSH2 0x34BF JUMP JUMPDEST DUP1 DUP5 ADD SWAP2 POP POP SWAP3 SWAP2 POP POP JUMP JUMPDEST PUSH1 0x0 PUSH2 0x42D1 DUP3 DUP6 PUSH2 0x4211 JUMP JUMPDEST SWAP2 POP PUSH2 0x42DD DUP3 DUP5 PUSH2 0x4294 JUMP JUMPDEST SWAP2 POP DUP2 SWAP1 POP SWAP4 SWAP3 POP POP POP JUMP JUMPDEST PUSH1 0x0 PUSH1 0x40 DUP3 ADD SWAP1 POP PUSH2 0x42FE PUSH1 0x0 DUP4 ADD DUP6 PUSH2 0x3F2A JUMP JUMPDEST PUSH2 0x430B PUSH1 0x20 DUP4 ADD DUP5 PUSH2 0x3F2A JUMP JUMPDEST SWAP4 SWAP3 POP POP POP JUMP JUMPDEST PUSH32 0x4261746368206973206E6F742061637469766500000000000000000000000000 PUSH1 0x0 DUP3 ADD MSTORE POP JUMP JUMPDEST PUSH1 0x0 PUSH2 0x4348 PUSH1 0x13 DUP4 PUSH2 0x35EB JUMP JUMPDEST SWAP2 POP PUSH2 0x4353 DUP3 PUSH2 0x4312 JUMP JUMPDEST PUSH1 0x20 DUP3 ADD SWAP1 POP SWAP2 SWAP1 POP JUMP JUMPDEST PUSH1 0x0 PUSH1 0x20 DUP3 ADD SWAP1 POP DUP2 DUP2 SUB PUSH1 0x0 DUP4 ADD MSTORE PUSH2 0x4377 DUP2 PUSH2 0x433B JUMP JUMPDEST SWAP1 POP SWAP2 SWAP1 POP JUMP JUMPDEST PUSH32 0x5175616E746974792065786365656473206261746368206C696D697400000000 PUSH1 0x0 DUP3 ADD MSTORE POP JUMP JUMPDEST PUSH1 0x0 PUSH2 0x43B4 PUSH1 0x1C DUP4 PUSH2 0x35EB JUMP JUMPDEST SWAP2 POP PUSH2 0x43BF DUP3 PUSH2 0x437E JUMP JUMPDEST PUSH1 0x20 DUP3 ADD SWAP1 POP SWAP2 SWAP1 POP JUMP JUMPDEST PUSH1 0x0 PUSH1 0x20 DUP3 ADD SWAP1 POP DUP2 DUP2 SUB PUSH1 0x0 DUP4 ADD MSTORE PUSH2 0x43E3 DUP2 PUSH2 0x43A7 JUMP JUMPDEST SWAP1 POP SWAP2 SWAP1 POP JUMP JUMPDEST PUSH1 0x0 PUSH2 0x43F5 DUP3 PUSH2 0x32BB JUMP JUMPDEST SWAP2 POP PUSH2 0x4400 DUP4 PUSH2 0x32BB JUMP JUMPDEST SWAP3 POP DUP3 DUP3 ADD SWAP1 POP DUP1 DUP3 GT ISZERO PUSH2 0x4418 JUMPI PUSH2 0x4417 PUSH2 0x40AE JUMP JUMPDEST JUMPDEST SWAP3 SWAP2 POP POP JUMP JUMPDEST PUSH1 0x0 PUSH1 0x40 DUP3 ADD SWAP1 POP PUSH2 0x4433 PUSH1 0x0 DUP4 ADD DUP6 PUSH2 0x3331 JUMP JUMPDEST PUSH2 0x4440 PUSH1 0x20 DUP4 ADD DUP5 PUSH2 0x3331 JUMP JUMPDEST SWAP4 SWAP3 POP POP POP JUMP JUMPDEST PUSH1 0x0 PUSH1 0x20 PUSH1 0x1F DUP4 ADD DIV SWAP1 POP SWAP2 SWAP1 POP JUMP JUMPDEST PUSH1 0x0 DUP3 DUP3 SHL SWAP1 POP SWAP3 SWAP2 POP POP JUMP JUMPDEST PUSH1 0x0 PUSH1 0x8 DUP4 MUL PUSH2 0x4494 PUSH32 0xFFFFFFFFFFFFFFFFFFFFFFFFFFFFFFFFFFFFFFFFFFFFFFFFFFFFFFFFFFFFFFFF DUP3 PUSH2 0x4457 JUMP JUMPDEST PUSH2 0x449E DUP7 DUP4 PUSH2 0x4457 JUMP JUMPDEST SWAP6 POP DUP1 NOT DUP5 AND SWAP4 POP DUP1 DUP7 AND DUP5 OR SWAP3 POP POP POP SWAP4 SWAP3 POP POP POP JUMP JUMPDEST PUSH1 0x0 DUP2 SWAP1 POP SWAP2 SWAP1 POP JUMP JUMPDEST PUSH1 0x0 PUSH2 0x44DB PUSH2 0x44D6 PUSH2 0x44D1 DUP5 PUSH2 0x32BB JUMP JUMPDEST PUSH2 0x44B6 JUMP JUMPDEST PUSH2 0x32BB JUMP JUMPDEST SWAP1 POP SWAP2 SWAP1 POP JUMP JUMPDEST PUSH1 0x0 DUP2 SWAP1 POP SWAP2 SWAP1 POP JUMP JUMPDEST PUSH2 0x44F5 DUP4 PUSH2 0x44C0 JUMP JUMPDEST PUSH2 0x4509 PUSH2 0x4501 DUP3 PUSH2 0x44E2 JUMP JUMPDEST DUP5 DUP5 SLOAD PUSH2 0x4464 JUMP JUMPDEST DUP3 SSTORE POP POP POP POP JUMP JUMPDEST PUSH1 0x0 SWAP1 JUMP JUMPDEST PUSH2 0x451E PUSH2 0x4511 JUMP JUMPDEST PUSH2 0x4529 DUP2 DUP5 DUP5 PUSH2 0x44EC JUMP JUMPDEST POP POP POP JUMP JUMPDEST JUMPDEST DUP2 DUP2 LT ISZERO PUSH2 0x454D JUMPI PUSH2 0x4542 PUSH1 0x0 DUP3 PUSH2 0x4516 JUMP JUMPDEST PUSH1 0x1 DUP2 ADD SWAP1 POP PUSH2 0x452F JUMP JUMPDEST POP POP JUMP JUMPDEST PUSH1 0x1F DUP3 GT ISZERO PUSH2 0x4592 JUMPI PUSH2 0x4563 DUP2 PUSH2 0x41FC JUMP JUMPDEST PUSH2 0x456C DUP5 PUSH2 0x4447 JUMP JUMPDEST DUP2 ADD PUSH1 0x20 DUP6 LT ISZERO PUSH2 0x457B JUMPI DUP2 SWAP1 POP JUMPDEST PUSH2 0x458F PUSH2 0x4587 DUP6 PUSH2 0x4447 JUMP JUMPDEST DUP4 ADD DUP3 PUSH2 0x452E JUMP JUMPDEST POP POP JUMPDEST POP POP POP JUMP JUMPDEST PUSH1 0x0 DUP3 DUP3 SHR SWAP1 POP SWAP3 SWAP2 POP POP JUMP JUMPDEST PUSH1 0x0 PUSH2 0x45B5 PUSH1 0x0 NOT DUP5 PUSH1 0x8 MUL PUSH2 0x4597 JUMP JUMPDEST NOT DUP1 DUP4 AND SWAP2 POP POP SWAP3 SWAP2 POP POP JUMP JUMPDEST PUSH1 0x0 PUSH2 0x45CE DUP4 DUP4 PUSH2 0x45A4 JUMP JUMPDEST SWAP2 POP DUP3 PUSH1 0x2 MUL DUP3 OR SWAP1 POP SWAP3 SWAP2 POP POP JUMP JUMPDEST PUSH2 0x45E7 DUP3 PUSH2 0x34A3 JUMP JUMPDEST PUSH8 0xFFFFFFFFFFFFFFFF DUP2 GT ISZERO PUSH2 0x4600 JUMPI PUSH2 0x45FF PUSH2 0x36E2 JUMP JUMPDEST JUMPDEST PUSH2 0x460A DUP3 SLOAD PUSH2 0x4154 JUMP JUMPDEST PUSH2 0x4615 DUP3 DUP3 DUP6 PUSH2 0x4551 JUMP JUMPDEST PUSH1 0x0 PUSH1 0x20 SWAP1 POP PUSH1 0x1F DUP4 GT PUSH1 0x1 DUP2 EQ PUSH2 0x4648 JUMPI PUSH1 0x0 DUP5 ISZERO PUSH2 0x4636 JUMPI DUP3 DUP8 ADD MLOAD SWAP1 POP JUMPDEST PUSH2 0x4640 DUP6 DUP3 PUSH2 0x45C2 JUMP JUMPDEST DUP7 SSTORE POP PUSH2 0x46A8 JUMP JUMPDEST PUSH1 0x1F NOT DUP5 AND PUSH2 0x4656 DUP7 PUSH2 0x41FC JUMP JUMPDEST PUSH1 0x0 JUMPDEST DUP3 DUP2 LT ISZERO PUSH2 0x467E JUMPI DUP5 DUP10 ADD MLOAD DUP3 SSTORE PUSH1 0x1 DUP3 ADD SWAP2 POP PUSH1 0x20 DUP6 ADD SWAP5 POP PUSH1 0x20 DUP2 ADD SWAP1 POP PUSH2 0x4659 JUMP JUMPDEST DUP7 DUP4 LT ISZERO PUSH2 0x469B JUMPI DUP5 DUP10 ADD MLOAD PUSH2 0x4697 PUSH1 0x1F DUP10 AND DUP3 PUSH2 0x45A4 JUMP JUMPDEST DUP4 SSTORE POP JUMPDEST PUSH1 0x1 PUSH1 0x2 DUP9 MUL ADD DUP9 SSTORE POP POP POP JUMPDEST POP POP POP POP POP POP JUMP JUMPDEST PUSH32 0x496E73756666696369656E742062616C616E6365000000000000000000000000 PUSH1 0x0 DUP3 ADD MSTORE POP JUMP JUMPDEST PUSH1 0x0 PUSH2 0x46E6 PUSH1 0x14 DUP4 PUSH2 0x35EB JUMP JUMPDEST SWAP2 POP PUSH2 0x46F1 DUP3 PUSH2 0x46B0 JUMP JUMPDEST PUSH1 0x20 DUP3 ADD SWAP1 POP SWAP2 SWAP1 POP JUMP JUMPDEST PUSH1 0x0 PUSH1 0x20 DUP3 ADD SWAP1 POP DUP2 DUP2 SUB PUSH1 0x0 DUP4 ADD MSTORE PUSH2 0x4715 DUP2 PUSH2 0x46D9 JUMP JUMPDEST SWAP1 POP SWAP2 SWAP1 POP JUMP JUMPDEST PUSH32 0x5175616E74697479206D7573742062652067726561746572207468616E203000 PUSH1 0x0 DUP3 ADD MSTORE POP JUMP JUMPDEST PUSH1 0x0 PUSH2 0x4752 PUSH1 0x1F DUP4 PUSH2 0x35EB JUMP JUMPDEST SWAP2 POP PUSH2 0x475D DUP3 PUSH2 0x471C JUMP JUMPDEST PUSH1 0x20 DUP3 ADD SWAP1 POP SWAP2 SWAP1 POP JUMP JUMPDEST PUSH1 0x0 PUSH1 0x20 DUP3 ADD SWAP1 POP DUP2 DUP2 SUB PUSH1 0x0 DUP4 ADD MSTORE PUSH2 0x4781 DUP2 PUSH2 0x4745 JUMP JUMPDEST SWAP1 POP SWAP2 SWAP1 POP JUMP JUMPDEST PUSH32 0x4E487B7100000000000000000000000000000000000000000000000000000000 PUSH1 0x0 MSTORE PUSH1 0x12 PUSH1 0x4 MSTORE PUSH1 0x24 PUSH1 0x0 REVERT JUMPDEST PUSH1 0x0 PUSH1 0x20 DUP3 ADD SWAP1 POP PUSH2 0x47CC PUSH1 0x0 DUP4 ADD DUP5 PUSH2 0x3F2A JUMP JUMPDEST SWAP3 SWAP2 POP POP JUMP JUMPDEST PUSH1 0x0 PUSH1 0x40 DUP3 ADD SWAP1 POP PUSH2 0x47E7 PUSH1 0x0 DUP4 ADD DUP6 PUSH2 0x3F2A JUMP JUMPDEST PUSH2 0x47F4 PUSH1 0x20 DUP4 ADD DUP5 PUSH2 0x3420 JUMP JUMPDEST SWAP4 SWAP3 POP POP POP JUMP JUMPDEST PUSH1 0x0 PUSH1 0x80 DUP3 ADD SWAP1 POP PUSH2 0x4810 PUSH1 0x0 DUP4 ADD DUP8 PUSH2 0x3F2A JUMP JUMPDEST PUSH2 0x481D PUSH1 0x20 DUP4 ADD DUP7 PUSH2 0x3331 JUMP JUMPDEST PUSH2 0x482A PUSH1 0x40 DUP4 ADD DUP6 PUSH2 0x3331 JUMP JUMPDEST PUSH2 0x4837 PUSH1 0x60 DUP4 ADD DUP5 PUSH2 0x3331 JUMP JUMPDEST SWAP6 SWAP5 POP POP POP POP POP JUMP JUMPDEST PUSH1 0x0 PUSH1 0x40 DUP3 ADD SWAP1 POP DUP2 DUP2 SUB PUSH1 0x0 DUP4 ADD MSTORE PUSH2 0x485A DUP2 DUP6 PUSH2 0x3BD7 JUMP JUMPDEST SWAP1 POP DUP2 DUP2 SUB PUSH1 0x20 DUP4 ADD MSTORE PUSH2 0x486E DUP2 DUP5 PUSH2 0x3BD7 JUMP JUMPDEST SWAP1 POP SWAP4 SWAP3 POP POP POP JUMP JUMPDEST PUSH1 0x0 DUP2 MLOAD SWAP1 POP SWAP2 SWAP1 POP JUMP JUMPDEST PUSH1 0x0 DUP3 DUP3 MSTORE PUSH1 0x20 DUP3 ADD SWAP1 POP SWAP3 SWAP2 POP POP JUMP JUMPDEST PUSH1 0x0 PUSH2 0x489E DUP3 PUSH2 0x4877 JUMP JUMPDEST PUSH2 0x48A8 DUP2 DUP6 PUSH2 0x4882 JUMP JUMPDEST SWAP4 POP PUSH2 0x48B8 DUP2 DUP6 PUSH1 0x20 DUP7 ADD PUSH2 0x34BF JUMP JUMPDEST PUSH2 0x48C1 DUP2 PUSH2 0x34E9 JUMP JUMPDEST DUP5 ADD SWAP2 POP POP SWAP3 SWAP2 POP POP JUMP JUMPDEST PUSH1 0x0 PUSH1 0xA0 DUP3 ADD SWAP1 POP PUSH2 0x48E1 PUSH1 0x0 DUP4 ADD DUP9 PUSH2 0x3F2A JUMP JUMPDEST PUSH2 0x48EE PUSH1 0x20 DUP4 ADD DUP8 PUSH2 0x3F2A JUMP JUMPDEST PUSH2 0x48FB PUSH1 0x40 DUP4 ADD DUP7 PUSH2 0x3331 JUMP JUMPDEST PUSH2 0x4908 PUSH1 0x60 DUP4 ADD DUP6 PUSH2 0x3331 JUMP JUMPDEST DUP2 DUP2 SUB PUSH1 0x80 DUP4 ADD MSTORE PUSH2 0x491A DUP2 DUP5 PUSH2 0x4893 JUMP JUMPDEST SWAP1 POP SWAP7 SWAP6 POP POP POP POP POP POP JUMP JUMPDEST PUSH1 0x0 DUP2 MLOAD SWAP1 POP PUSH2 0x4935 DUP2 PUSH2 0x3387 JUMP JUMPDEST SWAP3 SWAP2 POP POP JUMP JUMPDEST PUSH1 0x0 PUSH1 0x20 DUP3 DUP5 SUB SLT ISZERO PUSH2 0x4951 JUMPI PUSH2 0x4950 PUSH2 0x3253 JUMP JUMPDEST JUMPDEST PUSH1 0x0 PUSH2 0x495F DUP5 DUP3 DUP6 ADD PUSH2 0x4926 JUMP JUMPDEST SWAP2 POP POP SWAP3 SWAP2 POP POP JUMP JUMPDEST PUSH1 0x0 PUSH1 0xA0 DUP3 ADD SWAP1 POP PUSH2 0x497D PUSH1 0x0 DUP4 ADD DUP9 PUSH2 0x3F2A JUMP JUMPDEST PUSH2 0x498A PUSH1 0x20 DUP4 ADD DUP8 PUSH2 0x3F2A JUMP JUMPDEST DUP2 DUP2 SUB PUSH1 0x40 DUP4 ADD MSTORE PUSH2 0x499C DUP2 DUP7 PUSH2 0x3BD7 JUMP JUMPDEST SWAP1 POP DUP2 DUP2 SUB PUSH1 0x60 DUP4 ADD MSTORE PUSH2 0x49B0 DUP2 DUP6 PUSH2 0x3BD7 JUMP JUMPDEST SWAP1 POP DUP2 DUP2 SUB PUSH1 0x80 DUP4 ADD MSTORE PUSH2 0x49C4 DUP2 DUP5 PUSH2 0x4893 JUMP JUMPDEST SWAP1 POP SWAP7 SWAP6 POP POP POP POP POP POP JUMP INVALID LOG2 PUSH5 0x6970667358 0x22 SLT KECCAK256 0xD6 LOG4 PUSH29 0xB1D744A2F87EF9E0E53FAEBC6709B36B2F43A02F111C55C2C62BDBE384 PUSH5 0x736F6C6343 STOP ADDMOD EQ STOP CALLER PUSH9 0x747470733A2F2F6170 PUSH10 0x2E68326C65646765722E PUSH4 0x6F6D2F6D PUSH6 0x746164617461 0x2F "},"methodIdentifiers":{"CERTIFIER_ROLE()":"69d0b517","DEFAULT_ADMIN_ROLE()":"a217fddf","GOVERNANCE_ROLE()":"f36c8f5c","MINT_TOKEN()":"933e9743","PRODUCER_ROLE()":"cb3e1fe7","RETIRE_TOKEN()":"1ea0004b","STATUS_ACTIVE()":"4389cc22","STATUS_PARTIAL()":"0386a97d","STATUS_RETIRED()":"a3b08bce","TRANSFER_TOKEN()":"055e3282","balanceOf(address,uint256)":"00fdd58e","balanceOfBatch(address[],uint256[])":"4e1273f4","batchCounter()":"68233eef","batches(uint256)":"b32c4d8d","createBatch(uint256,uint256)":"92a2d846","getBatch(uint256)":"5ac44282","getBatchBalance(address,uint256)":"446f05bb","getBatchStatusString(uint256)":"07fe8a8c","getBatchTotalSupply(uint256)":"91664369","getRoleAdmin(bytes32)":"248a9ca3","getUserBatches(address)":"d913a08b","getUserRoles(address)":"06a36aee","grantRole(bytes32,address)":"2f2ff15d","hasRole(bytes32,address)":"91d14854","isApprovedForAll(address,address)":"e985e9c5","mintBatch(uint256,address,uint256)":"3c3a1897","mintedSupply(uint256)":"919956ef","name()":"06fdde03","renounceRole(bytes32,address)":"36568abe","retireBatch(uint256,uint256)":"855fd784","retiredSupply(uint256)":"0a48c3d8","revokeRole(bytes32,address)":"d547741f","safeBatchTransferFrom(address,address,uint256[],uint256[],bytes)":"2eb2c2d6","safeTransferFrom(address,address,uint256,uint256,bytes)":"f242432a","setApprovalForAll(address,bool)":"a22cb465","setBaseURI(string)":"55f804b3","supportsInterface(bytes4)":"01ffc9a7","symbol()":"95d89b41","totalSupply(uint256)":"bd85b039","transferBatch(uint256,address,address,uint256)":"93a0ac36","uri(uint256)":"0e89341c"}}}}}